:1000000000100020C11C0000BD1C0000BD1C000031
:10001000BD1C0000BD1C0000BD1C0000BD1C00007C
:10002000BD1C0000BD1C0000BD1C0000BD1C00006C
:10003000BD1C0000BD1C0000BB670000BD1C000013
:10004000BD1C0000BD1C0000BD1C0000BD1C00004C
:10005000BD1C0000BD1C0000BD1C0000BD1C00003C
:10006000BD1C0000BD1C0000CD180000BD1C000020
:10007000BD1C0000BD1C0000BD1C0000BD1C00001C
:10008000BD1C0000BD1C0000E1180000BD1C0000EC
:10009000BD1C0000BD1C0000BD1C0000BD1C0000FC
:1000A000BD1C0000BD1C0000BD1C0000BD1C0000EC
:1000B000BD1C0000BD1C0000FD7B0000BD1C00003D
:1000C000BD1C0000BD1C0000BD1C0000BD1C0000CC
:1000D000BD1C0000BD1C0000BD1C0000BD1C0000BC
:1000E000BD1C0000BD1C0000BD1C0000BD1C0000AC
:1000F000BD1C0000BD1C0000BD1C0000BD1C00009C
:10010000BD1C0000BD1C0000BD1C000010B5054C4E
:10011000237833B9044B13B10448AFF300800123B3
:10012000237010BDA81C00200000000048D0000073
:1001300008B5034B1BB103490348AFF3008008BD6A
:1001400000000000AC1C002048D00000A3F5803A5D
:10015000704700BF174B002B08BF134B9D46FFF79E
:10016000F5FF00218B460F461348144A121A09F076
:10017000BBFA0E4B002B00D098470D4B002B00D044
:1001800098470020002104000D000D48002802D0EF
:100190000C48AFF3008009F06DFA2000290001F04F
:1001A000A9FB09F053FA00BF00000800000000009E
:1001B000000000000010002050110020B08C002032
:1001C0000000000000000000034A136923F004034C
:1001D000136130BFF9E700BF00ED00E00000000050
:1001E0002DE9F04FCC4C2DED068BD4F83CB0C1B0CE
:1001F000002204AB01930092A3681146104606F05A
:10020000CDF89DF81050002DFDD1DFF82093D9F8DE
:100210000080B8F1010F40F08B81C04EC04806F05D
:1002200001FD33682269A169BD489A1A521A29460C
:1002300006F003FF33682269A169B9489A1A521A75
:10024000414606F0FAFE3368B548DFF8D482194615
:100250002A4606F0F2FE3368B148013B19462A46A9
:1002600006F0EBFE6269316824955300CDE9255311
:100270002369CB1A1421CDE93331CDE92951CDE9D8
:100280002D5132912321CDE93551CDE93951A3F1D9
:100290000A01CDE93B15D9F80C10521A5200CDE9EC
:1002A0003D320527A2690F20CDE92B70581FCDE9FB
:1002B0002735CDE92F3531904FF0020C192013442A
:1002C000CDE937C024AF3F9339464046013506F0AB
:1002D000E1FF072D07F11007F6D1E36B914F90482E
:1002E00097ED027A03EBD3735B1007EE903AF8EECA
:1002F000E77A33680B9377EE676A77EE277AFDEE3D
:10030000E66AFDEEE77A1A1F08A9CDED086ACDED81
:100310000A7A099206F0BEFF4FF0FF36B8687F4DAB
:1003200008F0A4FC41EC190B584608F08DFC8046FF
:10033000206D894608F088FC75A3D3E9002308F0F6
:10034000EDFC794B002208F013FE0AF031FA41EC83
:100350001A0B2868A0F1040A206D08F075FC6CA344
:10036000D3E9002308F0DAFC6F4B002208F000FE0E
:100370000AF06EFA07EE906AB8EEE78AD7ED027AD5
:1003800002460B464046494638EE278A08F0C6FC2E
:1003900008F05EFF53EC1A2B82444946404608F0B1
:1003A000BDFC53EC192B08F003FB80463046894610
:1003B00008F04AFC02460B464046494608F0F8FA67
:1003C00008F046FF2B68BDEEC88A043B0146009347
:1003D000534818EE103A5246013606F079FE032EC5
:1003E0009CD1DFF84081DFF838910026D8F8003042
:1003F000D5ED007A022B7ED198ED037A236AF8EED0
:10040000E77A03EBD37377EEC77A98ED027A5B1045
:10041000FDEEE77A484617EE902AFDEEC77A17EE12
:10042000901A06F03CFD01360A2E08F12808DDD1AD
:10043000DFF8F880D4ED177A98ED017A2B682396CF
:10044000F8EEE77A2022C7EE276A0F92A3F10F0297
:10045000A3F11000591FA3F10D0EA3F1080CCDE973
:100460001162063B23224FF00B091893B3EE047A76
:10047000F3EE0F7A46EEC77A2223CDE91320FDEE84
:10048000E77ACDE91B20CDE91F2ECDF85C901D93B6
:10049000DFF88C90CDF830E00523CDE91561CDE98A
:1004A0001961CDF838C0CDED0D7A10901E91CDF8C0
:1004B00088C021930DF1300A002651464846013686
:1004C00006F0E8FE062E0AF1100AF6D198F811306F
:1004D00073B1D7ED027A2A68A36C1148FDEEE77A72
:1004E000043A17EE901A06F0D3FC002388F8113076
:1004F00006F04EFB7CE6032B95D198ED037AA36DB5
:10050000F8EEE77A77EEC77A98ED027A80E700BFD7
:100510006E861BF0F921094060360020081000208B
:1005200048310020C436002000806640FC300020A6
:10053000B8F1030F18D1052601272F4806F072FBEA
:100540002E492D4800962B462A46CDE9016706F034
:10055000C5FF0F232A490297CDE9006302222B46EB
:10056000254806F0BBFFC3E7B8F1020F7FF440AEA9
:1005700005260127204806F055FB2B462A46CDE9E3
:1005800001671E491C48009606F0A8FF99F8102044
:1005900000960F23CDE901372B46B2B9184916480A
:1005A000424606F09BFF1923CDE900631549124826
:1005B00002972B46042206F091FF1E23CDE900632B
:1005C000114902972B463246CAE710490A4842466B
:1005D00006F084FF1923CDE900630A490648029713
:1005E0002B46042206F07AFF1E23CDE9006308495A
:1005F00002972B463246B3E748310020C0BD0000C9
:10060000CABD0000D3BD0000E1BD0000F0BD000088
:10061000F8BD000080B51B4E1B4F88B04FF000089E
:10062000002204AD1146CDE900857B68104605F037
:10063000B5FE9DF810100029FDD10B460A46304644
:100640000095039104F082FB01F074F803990F4CBC
:10065000084601F05BF82070012001F057F8607047
:10066000022001F053F8A070032001F04FF8039925
:10067000E0702A46304604F00BFD9DF81030002B48
:10068000FDD1CDE7983D002060360020F03D0020F0
:100690004FF6FF73C340DB0710B5044604D4064889
:1006A00040F2134101F07AFD044B012000FA04F4FA
:1006B000C3F8FC4010BD00BF05BE000000A000460E
:1006C0002DE9F04F2B4DDFF8BCA0DFF8BCB00024C3
:1006D00087B02C7426462F68012F02AB34D100223C
:1006E0001046009211460193322305F057FEE86848
:1006F00008F0AAFA8046DAF81400894608F0A4FA4D
:100700001D4B002208F00AFB02460B4640464946B4
:1007100008F08AFD0028DED001360A2296FBF2F3AB
:1007200002FB13630BB32B7CFBB9CCB1134A202122
:10073000C2F8FC101C46DBF8003014225343B342CD
:10074000C9D101232B74C6E7009300231A4619462A
:100750000B4804F0E5FD9DF80830002BFDD1BAE709
:100760000520FFF795FF3C46E5E70520FFF790FFE2
:10077000E1E700BFFC3000200000E03F00A00044A3
:100780002031002060360020001000204FF6FF735B
:10079000C340DB0710B5044604D4054840F2B53128
:1007A00001F0FCFC034B23449B00186810BD00BF04
:1007B00005BE000060088510BFB5DFF8AC80284F8B
:1007C0000026002302AD1A4619460095404604F063
:1007D000A7FD9DF80830002BFDD11A46194600955B
:1007E000384604F0B3FA9DF80830002BFDD11D4CBB
:1007F0000720FFF7CBFF6378984215D00123E37001
:100800000720FFF7C3FFC0B10620FFF7BFFFA0B16D
:10081000267066702A460021384604F039FC9DF89F
:100820000830002BFDD1CCE70620FFF7AFFF23787F
:1008300098421CBF0123A370E2E70720FFF7A6FF41
:1008400010B101236370E5E70620FFF79FFF002842
:10085000DED0012304202370FFF71AFFDAE700BF80
:10086000DC2B0020D82B0020B02B0020BFB51B4E66
:100870001B4C1C4D02AF00223223019700921146FF
:10088000104605F08BFD9DF80830002BFDD195ED4D
:10089000027A2268B5EE407A0132F1EE10FA226057
:1008A000E9D0D6ED186AC7EE267AB2EE047A67EE82
:1008B000877AFDEEE77A17EE903AC3F10A0392FBCE
:1008C000F3F103FB11231BB90420FFF7E1FED1E78D
:1008D000054B1022C3F8FC20CCE700BF6036002097
:1008E000F8300020FC30002000A000441C4B70B504
:1008F00004461868322564269623C4E90230C4E908
:10090000005608F0A1F9174B002208F007FA08F08A
:100910009FFC03221523C4E9052302230722C4E90F
:1009200007320522C4E909230A214FF47A73C4E986
:100930000B1341F288331021C4E90D36C4E90F13BB
:100940002061636414201E23C4E91203EB23C4E96D
:100950001435054B2366C4E91625204670BD00BF3B
:10096000081000200000E83F0000A04100B58FB053
:100970000AAB089301220023CDE906320A214FF485
:100980008072CDE9032119220292064A01921522B2
:1009900000920549054A0648059305F069F90FB02C
:1009A0005DF804FBAC38002069BE0000A90A000015
:1009B000AC3C002070B52DED028B054608F042FFDF
:1009C0002E4E0323F46894FBF3F490FBF4F303FB43
:1009D000140408F037FFC30748BF6442284B07EEF2
:1009E000904A93ED028AF8EEE77A37EE888A08F0AB
:1009F00029FF4FF47A6390FBF3F202FB130000F53A
:100A00007A7007EE900ADFED1F6A33691E4AF8EE2E
:100A1000E77AF6EE005A87EEA67A07EE903AF8EEFD
:100A2000E77A5B42C5ED037AFDEEC87AD2ED006A43
:100A3000F8EEE77AF8EEE66A87EE876ABDEC028B9D
:100A400002222A600022AA60AA6107EE903AF8EE1C
:100A5000E77A85ED046A87EE876A0023C5E90833E3
:100A6000336B6B6026EE877AF0EE467A47EE657A56
:100A7000C5ED076AC5ED057A70BD00BF6036002080
:100A8000C436002000007A44041000200023002215
:100A9000C0E9082202608360C3600361436183612F
:100AA000C3614260704700002DE9F04F2DED028BCD
:100AB0002422F7B0BA4EBB4C00210DEB020008F027
:100AC00013FED6ED177AF8EEE77A09ADCDED0A7A86
:100AD0000FCD0FC40FCD0FC42B6844F82039B24B93
:100AE0000A21002000220139C3E90000C3E90800FF
:100AF0009A60DA601A615A619A61DA6103F1280337
:100B0000F1D1F368A84D012003EBD373034107EE45
:100B1000903AF8EEE77AB36B2860C5ED027AEA60A6
:100B20006B6020608B468846DFF87892D9F800A089
:100B3000BAF1010F05AD40F052810022984F0195A6
:100B400000923B681146104605F028FC2B78002BDC
:100B5000FDD11A4619469548009504F0F7F82B7810
:100B6000002BFDD112AC904A23460A2651685960E9
:100B70001168196091689960D168D960116919612B
:100B80005169596191699961D169D961116A196293
:100B9000013E516A596202F1280203F12803E5D1AE
:100BA00082482A46314604F073FA3346324680487A
:100BB0000095314604F0CAF87E4B1A781AB9597874
:100BC000002900F01B81D97861B9997851B9597819
:100BD000002900F0E4837B6B226A03EBD373A2EB62
:100BE0006303236272482A46002104F051FA00236D
:100BF0001A4619467048009504F0A8F82B78002B87
:100C0000FDD16E4A12780292002A76D1B8F1000F17
:100C100073D0D9ED027AF5EEC07AF1EE10FA6CDD00
:100C2000282101FB03F2A058002840F0FD805C4F12
:100C30009FED638AD7ED186A87EEA67AA51803237D
:100C4000A350A368AB604FF07E53EB6067EE087A69
:100C500017EE900A08F00AF88046386D894607F0CA
:100C6000F3FF4DA3D3E9002308F058F8554B0022B9
:100C700008F07EF909F09CFD02460B4640464946C5
:100C8000DFF8208108F04AF808F00AFBD8ED026A84
:100C900097ED187A2861C6EE877A67EEC87A17EE64
:100CA000900A07F0E3FF41EC180B386D07F0CCFF1A
:100CB00039A3D3E9002308F031F8424B002208F0B1
:100CC00057F909F0C5FD02460B4651EC180B08F028
:100CD00025F808F0E5FA7B6D6B60236A686103F51F
:100CE000434350332362D8F8203000220133AA61F5
:100CF000EA61C8F80820C8F82030304B5A78002A3A
:100D000040F097800DF1140A2B485246002104F060
:100D1000BFF99AF80030002BFDD1224F029B97EDCE
:100D2000018A1F4D002B00F0DA80B5EEC08AF1EE8B
:100D300010FA40F3E080D7ED028A95ED187AF4EED0
:100D4000C78AF1EE10FA40F1D680D5ED007AF8EEC0
:100D5000E77A67EE877A17EE900A07F087FF1A4B5B
:100D6000002208F005F9194B002208F001F980462D
:100D7000894618EE900A07F079FF42464B4607F085
:100D800017FE08F08DFAB86018EE100A07F06EFF33
:100D900042461DE0AFF300806E861BF0F92109404A
:100DA00060360020FC300020C43600207C38002053
:100DB000983D0020F03D0020DC2B0020D82B0020A7
:100DC0000000C842008066400000F83F00408F40AD
:100DD0004B4607F0EBFD08F063FA78608BE00023E8
:100DE0001A461946B948009504F09AFA2B78002B58
:100DF000FDD1CDF80880DDF8088095E69A78002AC4
:100E000000F0D082236A7A6B1344EAE6236A7A6B95
:100E10009B1AE6E6D4ED047AF5EEC07AF1EE10FA0C
:100E2000F4DC7FF5DFAEEDE701330A2B7FF4F9AE9A
:100E300063E7DFF8B492A64D99ED137AD5ED017A08
:100E4000B8EEC77AF4EEC77AF1EE10FAFFF65AAFB1
:100E5000DB78002B3FF456AFAB6977EEC77A0133EE
:100E6000AB610123C5ED017A6B742746B84658F88B
:100E7000283F022B2CD19DED147AD7ED0C7A77EE1A
:100E8000C77AFDEEE77A17EE900A08F0DBFB9DEDDE
:100E9000157AD7ED0D7A039077EEC77AFDEEE77AF3
:100EA00017EE900A08F0CEFB039B404303FB0300C0
:100EB00007F0CAFE09F016FD08F0CAF9D9F8483063
:100EC000834205DB4046FFF7E1FDEB690133EB614F
:100ED0000AF1010ABAF10A0F4746C7D112E7D5ED68
:100EE000177AF8EEE77AF4EEC87AF1EE10FA00F22B
:100EF000C480C7ED017AEB69012B00F0F980022B69
:100F000000F01C81002B40F02F811E4612AF4FF0E5
:100F1000280808FB06F3DB59022B0ED0092E09D155
:100F2000002208FB02F03B58002B40F0C9803844F7
:100F3000FFF740FD01360A2EEBD166499FED666A48
:100F4000DFF8A89120460A274FF000080368032B1A
:100F500040F01781D5ED006A4368026A92FBF3F214
:100F6000F8EEE66A07EE902AC6EE865A426A92FBCF
:100F7000F3F3D9F800201344B8EEE77A07EE903A7D
:100F8000D0ED056A80ED067AF8EEE77A002347EEA9
:100F9000A56AC0E90833C0ED077AD0ED047AC0ED48
:100FA000056A47EE257A90ED027AC0ED047A05EEE7
:100FB000A77AD0ED037A80ED027A45EEA67AB5EEF7
:100FC000C07AF1EE10FAC0ED037A00F2D18095ED0F
:100FD000047AB8EEC77AF4EEC77AF1EE10FAC0F2EE
:100FE000D181D5ED036AD1ED035AF8EEE66AF4EE4D
:100FF000E65AF1EE10FA00F2C581FFF747FD344AD8
:101000006E69D3680133B342D36001DB02231360FE
:10101000013F00F1280001F1280197D13B462F48FC
:10102000CDF800A03A46394603F090FE9AF8003019
:10103000002BFDD1274B0A2162685A60A2689A6092
:10104000E268DA6022691A6162695A61A2699A618A
:10105000E269DA61226A1A62626A5A62013954F8F4
:10106000282B43F8282BE7D11C48524604F010F8EF
:101070009AF80030002BFDD1BDE6FFF63CAFD5ED70
:10108000007A95ED187AF8EEE77A67EE877A17EE30
:10109000900A07F0EBFD124B002207F069FF114B9D
:1010A000002207F065FF804618EE100A894607F017
:1010B000DDFD02460B464046494607F079FC8AE6CC
:1010C00001320A2A7FF42DAF34E700BF203100201F
:1010D000FC300020C436002000007A447C38002018
:1010E0000000F83F00408F406036002004100020D0
:1010F000002312AA52F826100A36022908BF01332B
:10110000642EF7D1A96A99422FDDE96A0BF1010B30
:101110009BFBF1F301FB13B3002B7FF40EAF2826EA
:1011200003E001330A2B3FF408AF06FB03F011582C
:101130000029F6D11044FFF73DFCFEE66A6A9BFBEE
:10114000F2F302FB13B343B9282612AA06FB03F0FD
:10115000815829B91044FFF72DFC0BF1010BECE687
:1011600001330A2BF2D1F8E7FEE74FF0000BE4E67B
:10117000F5EEC07AF1EE10FA3FF64AAFFFF786FCC3
:1011800046E7022B74D1D9ED007A2B6AD0ED035AD1
:1011900090ED045AC0F81880B8EEE77AD5ED007AE1
:1011A00080ED077AF8EEE77A03EBD373C7EE866A31
:1011B0005B10D0ED057A47EE267A90ED027AC0ED0D
:1011C000057A46EEA75A07EE903AF8EEE77A06EE71
:1011D000857AC0ED035A75EEA75A80ED027AF5EED6
:1011E000C05AF1EE10FA22D8EB6BDDED144A03EB96
:1011F000D3735B1006EE903AF8EEE66A34EEE64AF8
:10120000B4EEC47AF1EE10FA0CDD74EEA66AB4EE18
:10121000E67AF1EE10FA05D5FFF738FC674B0322AA
:101220001A60F5E6F5EEC05AF1EE10FAA6D4EB68B6
:1012300006EE903A77EE277AF8EEE66AF4EEE67A72
:10124000F1EE10FA7FF7E4AEFDEEC77AB1EE455A43
:1012500017EE90CA9CFBF3F203FB12C29A1A07EE38
:10126000902AF8EEE77A80ED045AC0ED027ACFE6D4
:10127000012B7FF4CDAE95ED007A036A426893FBB3
:10128000F2F3B8EEC77A07EE903AC7EE065A6B6CE7
:10129000F8EEE77A90ED047AC0ED067A07EEA57ACB
:1012A00007EE903AF8EEE77A80ED047AB4EEE77A4A
:1012B000F1EE10FA02DDC0ED047A09E05B4207EEC0
:1012C000903AF8EEE77AB4EEE77AF1EE10FAF2D45B
:1012D000D0ED027A90ED047A002345EE877A03621E
:1012E000EB6B03EBD3725210F0EE676AC0ED027A3B
:1012F00007EE902AF8EEE77AEA6877EEA67AF5EE3E
:10130000C07AF1EE10FA19D507EE903AB1EE477AAD
:1013100080ED047AB8EEE77A37EE267AFDEEC77AEA
:1013200017EE90CA9CFBF2F302FB13C35B0007EEBF
:10133000903AF8EEE77A77EEA67A96E705EE902AED
:10134000F8EEE55AF4EEE57AF1EE10FA7FF760AECA
:1013500007EE903AF8EEE77AB1EE477A77EEA67AA2
:1013600080ED047AFDEEE77A17EE90CA9CFBF2F36B
:1013700002FB13C35B0007EE903AF8EEE77A76EED5
:10138000E77A72E7F5EEC07AF1EE10FA7FF6F6AE84
:10139000F4EEC77AF1EE10FA7FF53AAEEEE6002AE7
:1013A0007FF434ADDB78002B3FF434AD7B6B226AE5
:1013B00003EBD37302EB630313E400BFFC300020A4
:1013C00000B58FB00AAB089301220023CDE90632A5
:1013D0000A214FF48072CDE9032119220292064AB4
:1013E0000192152200920549054A0648059304F02A
:1013F0003FFC0FB05DF804FBC41C002077BE00006A
:10140000E1010000C420002000B58FB00AAB0893B2
:1014100001220023CDE906320A214FF48072CDE982
:10142000032119220292064A0192152200920549CF
:10143000054A0648059304F01BFC0FB05DF804FB59
:10144000D821002089BE00006D080000D8250020AA
:1014500000B58FB00AAB089301220023CDE9063214
:101460000A214FF48072CDE9032119220292064A23
:101470000192152200920549054A0648059304F099
:10148000F7FB0FB05DF804FBC426002095BE0000FA
:10149000C1060000C42A00201FB506486A464FF462
:1014A000007104F031F89DF80030002BFDD105B03B
:1014B0005DF804FBB02B002000B58FB00AAB089399
:1014C00001220023CDE906320A214FF48072CDE9D2
:1014D000032119220292064A01921522009205491F
:1014E000054A0648059304F0C3FB0FB05DF804FB02
:1014F0000C2C0020A1BE0000B90700000C30002019
:1015000000B58FB00AAB089301220023CDE9063263
:101510000A214FF48072CDE9032119220292064A72
:101520000192142200920549054A0648059304F0E9
:101530009FFB0FB05DF804FBF43D0020AEBE000041
:1015400015060000F441002000B58FB00AAB0893E7
:1015500001220023CDE906320A214FF48072CDE941
:1015600003210749074805931922CDE9002102927A
:101570000549064A04F07CFB0FB05DF804FB00BF90
:101580007431002074350020BBBE0000C90100008A
:1015900010B59EB000F05AF900F018F900F03AFAD0
:1015A00020B1464840F2A72100F0F8FD002005F0E8
:1015B000C5FA20B1414840F2AB2100F0EFFD4048B0
:1015C00005F084FB20B13D4840F2AF2100F0E6FD7C
:1015D0003B4C00236FF07F422046C4E9012305F015
:1015E00021FB3849204605F06CFF05F0D1FA68462A
:1015F000FFF77CF964226946334808F067F83349FD
:1016000033481AAA03F0DAFC9DF86830002BFDD1AC
:10161000304931481AAA03F0D1FC9DF86830002BFC
:10162000FDD11AAA2D492E4803F0C8FC9DF8682068
:10163000002AFDD12B492C481AAB04F005F89DF87F
:101640006820002AFDD1294929481AAB03F0FCFF84
:101650009DF86820002AFDD1264927481AAB03F0DF
:10166000F3FF9DF86820002AFDD1244924481AABD5
:1016700003F0EAFF9DF86820002AFDD11AAB21494A
:10168000214803F0E1FF9DF86830002BFDD1FFF702
:101690005BFFFFF735FFFFF70FFFFFF767F9FFF776
:1016A0008FFEFFF7B1FEFFF7D3FE1AA802F06AFB28
:1016B0009DF86830002BFDD11EB010BDC6BE0000E5
:1016C000483100208CC8000060360020CFBE0000EA
:1016D000DC2B0020DCBE0000983D0020E9BE0000AD
:1016E0007C380020F7BE0000B02B002008BF0000AF
:1016F000C83D002019BF00005438002028BF00005A
:10170000B021002036BF000020310020074A0849E0
:1017100052F8203052F8202051F82000A3EB920319
:1017200098422CBF00200120704700BFE0420020FB
:10173000F0420020F0B54FF080401E4C1E4F1F4E6F
:1017400085B000F015FD002323702378032B06D904
:101750004FF0804005B0BDE8F04000F0F3BC2378C6
:10176000174DF95C4FF0804000F0D2FC00210123BE
:1017700069626A4631700A206B6004F017FD02232B
:101780006B606A6A23780F49DBB241F82320237823
:101790000D49DBB251F823309A4282BF2378DBB285
:1017A00041F823200123337023780133DBB2237007
:1017B000CBE700BF0043002064BF000001430020CE
:1017C00000840140F0420020E042002030B5164D78
:1017D0000FCD87B06C460FC495E8030084E8030082
:1017E0001248012100F07AFD1148012100F076FD38
:1017F0001048012100F072FD01214FF48A4000F0F1
:101800006DFD0D4B0D4A1A604FF6FF72DA610C4AFE
:101810001A670C4B0C4A1A6569464FF0804000F07D
:101820002FFC07B030BD00BF4CBF00004041050099
:101830000012040000A20400008401400000010A1C
:101840000100002A00600E400003100013B54FF0A5
:101850000111052001F00EFF04221146002305208E
:1018600001F0CAFF4FF00111052001F003FF05212F
:1018700000230422084601F0BFFF4FF001110520AC
:1018800001F0F8FE002301220621052001F0B4FF3B
:101890004FF00111052001F0EDFE00230122072188
:1018A000052001F0A9FF0124062223461146CDE9B7
:1018B0000044052001F002FF0722CDE90044234641
:1018C0001146052001F0FAFE02B010BD08B5FFF781
:1018D000E3FD024B4022C3F8242408BD00A00040D1
:1018E00008B5FFF7D9FD024B8022C3F8242408BDB8
:1018F00000A0004008B506F0A5F9064B4FF4806241
:101900001A604FF480221A60FFF742FE06F0A7F932
:10191000002008BD00E100E07047000008B5042188
:10192000112001F0BBF80948012100F0D7FC08485C
:10193000022101F0B3F80748022101F0AFF8064890
:10194000022101F0ABF8002008BD00BF30253E00A9
:1019500002001E00030020000500240008B5224BF1
:1019600001225A64214BD3F8FC20214B120E12D1D4
:101970004AF6E851C3F89011D3F8981141F00401E8
:10198000C3F89811C3F89021D3F8642142F40052AF
:10199000C3F8642101E0012AF6D0164A136A23F441
:1019A000441343F488131362A2F58052D2F8A43191
:1019B00043F4F843C2F8A43105F024FE00F040F8E7
:1019C00005F0BEFD05F0E0FD05F008FEFFF7A6FFFF
:1019D00005F0CCFD00F028F806F000FF02F040F919
:1019E000BDE8084002F04EB900000E400081E00F53
:1019F00000300E4000400E4002F068B900F004B81C
:101A000005F0CABE70477047014800F0EFB900BF4B
:101A100068BF000008B5042201230F21032001F054
:101A2000EBFE002008BD000008B50448012100F0CD
:101A300055FCBDE80840FFF76FBF00BF00350A0046
:101A40000148012100F04ABC00350A002DE9F041AF
:101A50001A4E0446884617460FCE86B06D460FC50F
:101A600096E8030085E8030015482568012100F089
:101A700035FC6068012100F031FC617B207B002394
:101A8000042201F0B9FE617A207A0023042201F0D9
:101A9000B3FE28466946CDF80880ADF8107001F015
:101AA000EDFF237CA27B1B0643EA0223AB670020E9
:101AB0000A236B6706B0BDE8F08100BF80BF00005D
:101AC00000350A0070B506680C468D18AC4201D18D
:101AD000002070BD14F8011B304602F029F8F5E72C
:101AE000026813699B06FCD57047000013B50446D5
:101AF00005F052FF247B00230122CDE9003264006F
:101B0000034AB0FBF4F1034805F0A8FE02B010BD93
:101B1000191B000004430020024B4FF40052C3F88D
:101B2000A820704700A0004073B50F4B0F4E4FF434
:101B30008045C3F89C500446407B06F093F804238C
:101B400002220DF106013046ADF80630FFF7BAFF6C
:101B50003046FFF7C5FFA07B06F084F8044B002059
:101B6000C3F89C5002B070BD00A0004610100020C9
:101B700000A0004438B5044601211248124D00F07F
:101B8000ADFBA16811480022FFF760FF002304228B
:101B90000E21032001F030FE002304220D2103203A
:101BA00001F02AFE94E80F0085E80F00084B01229F
:101BB00020461A70FFF79AFF2046FFF7B5FF002076
:101BC00038BD00BF00350A0020430020101000205F
:101BD0001C4300202DE9F74F0688DFF8A4B0984693
:101BE00003795E43254B14464FF48042C3F89C2092
:101BF0000134A4B20546407B0F4606F033F82302B9
:101C000043F001031E48ADF8063002220DF1060133
:101C10000134FFF757FF2402F610A4B24FF0000979
:101C200008F1FF3AC1450ED11548FFF759FFA87BCF
:101C300006F018F8134B4FF480420020C3F89C20A4
:101C400003B0BDE8F08F394632465846FFF73AFFF9
:101C5000CA4514BF44F0FF034FF6FF7302220DF193
:101C60000601584604F58074ADF806303744FFF796
:101C700029FF09F10109A4B2D4E700BF00A0004682
:101C80001010002000A00044034B04481B78002BD8
:101C900008BF0020704700BF1C43002020430020E5
:101CA0001FB5054B0FCB6C4684E80F002046FFF7AD
:101CB00061FF04B010BD00BF98BF0000FEE7000048
:101CC00008B500F069F8064B0649074A8B4201D374
:101CD000FEF740FA52F8040B43F8040BF6E700BF96
:101CE000001000205011002050D000000048704724
:101CF000005A6202104AD2F8943003F00703023B04
:101D0000032B13D8DFE803F00C14020E0B4B1B68F7
:101D1000D2F80001C0F304200130B3FBF0F07047AB
:101D2000074BF4E7074B1B685B08F1E7054BEEE751
:101D30004FF40043ECE700BF00400E40301000209D
:101D4000281000202C10002008B5FFF7D3FF054B0A
:101D5000D3F80831C3F308230133B0FBF3F0024B8F
:101D6000186008BD00400E4024100020014B186888
:101D7000704700BF28100020054B1860054BD3F8B2
:101D8000943003F00703022B01D1FFF7DDBF70474A
:101D90002810002000400E40044B054A9A60D3F8FA
:101DA000882042F47002C3F88820704700ED00E0FC
:101DB000000000004FF4004070474FF47A70704705
:101DC000014B1868704700BF3010002005490A68B1
:101DD0001318054883428CBF4FF0FF320B6010464A
:101DE000704700BF3410002000000420D0E9000339
:101DF0001847000038B50D46044618B3012824D012
:101E0000022825D0032826D004280ED0052825D066
:101E1000831F012B09D9082823D0092823D00A2899
:101E200003D10723EB40DB0704D410484FF479714A
:101E300000F0B4F930200E4B0121444301FA05F5BE
:101E40001D5138BD40F2FF33ECE74FF6C073E9E7B0
:101E500040F6FF73E6E74FF47F43E3E74FF6FF7387
:101E6000E0E70F23DEE74FF44043DBE705BE000069
:101E70000CA0004438B50D46044618B3012824D000
:101E8000022825D0032826D004280ED0052825D0E6
:101E9000831F012B09D9082823D0092823D00A2819
:101EA00003D10723EB40DB0704D4104840F2134171
:101EB00000F074F930200E4B0121444301FA05F57E
:101EC0001D5138BD40F2FF33ECE74FF6C073E9E730
:101ED00040F6FF73E6E74FF47F43E3E74FF6FF7307
:101EE000E0E70F23DEE74FF44043DBE705BE0000E9
:101EF0000CA0004610B501210446094800F0EEF997
:101F00000848012100F0EAF9A37820786178B3FA53
:101F100083F35B09042201F06FFC002010BD00BFB9
:101F20004041050000350A000346007859789B7847
:101F30000BB9FFF75FBFFFF79DBF034600785978E5
:101F40009B780BB9FFF796BFFFF754BF38B50478FD
:101F500045782CB3012C26D0022C27D0032C28D076
:101F6000042C0ED0052C27D0A31F012B09D9082C37
:101F700025D0092C25D00A2C03D10723EB40DB0701
:101F800004D4114840F22E4100F008F930225443A5
:101F900004F18044012304F52044AB40A36138BD23
:101FA00040F2FF33EAE74FF6C073E7E740F6FF730E
:101FB000E4E74FF47F43E1E74FF6FF73DEE70F23DB
:101FC000DCE74FF44043D9E705BE000070B5047864
:101FD0004578064654B3012C2BD0022C2CD0032C70
:101FE0002DD0042C0ED0052C2CD0A31F012B09D9E9
:101FF000082C2AD0092C2AD00A2C03D10723EB4025
:10200000DB0704D4134840F2FE3100F0C7F8302358
:102010005C43114B234405EBC305AD00B37828683E
:10202000C0B213B9B0FA80F0400970BD40F2FF337E
:10203000E5E74FF6C073E2E740F6FF73DFE74FF4E2
:102040007F43DCE74FF6FF73D9E70F23D7E74FF461
:102050004043D4E705BE00000CA0100270B5054651
:102060000E46144600F0ACFE296881EA040202EA3A
:1020700006044C402C60BDE8704000F0A5BE000096
:10208000B0F1804F38B504460D4606D01D4B98423E
:1020900003D01D48A22100F081F82B693F2B03D902
:1020A0001948B62100F07AF8EB683F2B03D916489F
:1020B000B72100F073F86B683F2B03D91248B821A1
:1020C00000F06CF86B682A781B0643EAC27343F48D
:1020D00000432360EA682B7A43EA0243A3622A6939
:1020E0006B7A43EA0243E362AA7A084B43EA02733B
:1020F000636004F1424404F5801464012B7D236085
:1021000038BD00BF00040040A8BF000000FD00046F
:10211000B0F1804F13B50A46044608D0074B9842E9
:1021200005D001910648F52100F038F8019AFF2109
:10213000201D02B0BDE81040FFF790BF0004004032
:10214000A8BF0000B0F1804F10B5044607D0064B81
:10215000984204D0054840F21B1100F01FF8236894
:1021600023F00103236010BD00040040A8BF00005D
:10217000B0F1804F10B5044607D0064B984204D00A
:1021800005484FF49C7100F009F8236843F00103FF
:10219000236010BD00040040A8BF0000FEE700005F
:1021A0000C4B984210D90C4B984210D902220123B3
:1021B0000A490B640A49D1F8003123F0807343EADD
:1021C0000263C1F80031704700221346F0E7012294
:1021D000FBE700BF0048E8010090D0030000C843BF
:1021E00000400E4038B5114B5B68114B00221C4675
:1021F000C9B21D798D4202D11D68854212D20132C9
:10220000052A03F10803F4D10A4841F29E31FFF791
:10221000C5FF032205494B6823F0407343EA02637C
:102220004B6038BD04EBC2025279F3E700000E4068
:1022300004C100000CC000001F2810B5044604D9DA
:10224000034840F22F11FFF7A9FF0120A04010BD65
:102250006FC0000038B5074C41F67133256C23641C
:10226000FFF744FD0021FFF7BDFF0DB100232364FC
:1022700038BD00BF00000E40044BDB6B5B0604D48E
:10228000034AD2F8C830002BFBD1704700300E4013
:102290000000C64308B5FFF7EFFF024B5868C0F3D4
:1022A000014008BD00300E40044BD3F84421D20752
:1022B00003D4D3F840211042FBD1704700400E40B8
:1022C00038B5054C41F67133256C2364FFF78AFF5E
:1022D0000DB10023236438BD00000E4038B5C0F3B3
:1022E0000323013B092B24D8DFE803F02A2D232305
:1022F000051619231C20154C0023C0F3043513B117
:102300001846FFF7D1FF04F1424404F5801405EBB1
:10231000C404A400216038BD0D4C0123EDE70D4C31
:102320001023EAE70C4C4FF48033E6E70B4C002314
:10233000E3E7BDE838400A4841F63B11FFF72EBFFE
:10234000084C0023D9E7084C0023D6E7B0400E40E4
:10235000E0400E40E8400E40F0400E4050410E403C
:102360000CC0000000400E40C0400E4008B5C0F355
:102370000313013B092B60D8DFE803F0050B0F19AD
:102380005F5F1F233C532E4BD3F80001C0F30420A2
:1023900008BD2B4BD3F81401F8E7294BD3F8000103
:1023A000C0F300600130FFF747FF0138F0E7244B2E
:1023B000D3F80C01C0F30820EAE7214BD3F8080159
:1023C000F8E7204B984209D01F4B98420CD041F6B9
:1023D000DF211E48FFF7E2FE0020D9E7184BD3F8B3
:1023E000200100F00F00DEE7154BD3F82001C0F309
:1023F0000110D8E7164B984208D003F5B01303F547
:102400008053984206D041F60331E2E70C4BD3F8F3
:102410002801ECE70A4BD3F82801C0F3012004306F
:10242000C1E70C4B984205D1054BD3F8300100F0C1
:102430000300ADE741F61231CBE741F63731C8E78B
:1024400000400E408006160080162E000CC00000D2
:1024500090171A00A009140008B5FFF787FF013094
:1024600008BD000000F00F00013808B5072844D867
:10247000DFE800F0040F1943232D4335264BD3F832
:10248000943003F00703023B052B3DD8234AD05C70
:1024900008BD214BD3F8803003F00703013B032B29
:1024A00034D81F4AF3E71C4BD3F8843003F00703FA
:1024B000013B032B2AD81B4AE9E7174BD3F8883096
:1024C00003F00703013B032B20D8174ADFE7124B29
:1024D0001B6F13F0010F0CBF07200920D8E70E4B2C
:1024E000D3F85C3103F03003202B11D0302B11D006
:1024F000102B14BF01200720CAE70C4841F68B615E
:10250000FFF74CFE0020C3E70520C1E70120BFE72D
:102510000420BDE70820BBE700400E40D5C0000006
:10252000DBC00000DFC00000DBC000000CC000000A
:1025300038B52C4B984205460AD02B4B984207D011
:102540002A4B984204D02A4841F29E41FFF726FECA
:102550002846FFF787FF234B9D42044611D0224BAC
:102560009D4212D0214B9D4213D1224BD3F8804083
:1025700004F00704042C2DD8DFE804F02A11151DFF
:1025800019001C4BD3F88440F2E71A4BD3F888406B
:10259000EEE7174841F2CD41FFF700FEEAE7BDE85C
:1025A0003840FFF707BCBDE83840FFF709BCBDE87D
:1025B0003840FFF702BCFFF79DFB0E4B0446D3F8F3
:1025C0000001C0F300600130FFF736FEB4FBF0F409
:1025D000204638BD064841F21F51FFF7DFFD0024B9
:1025E000F6E700BF030020000500240002001E00E3
:1025F0000CC0000000400E4038B500F47813B3F56D
:10260000B01F05467FD02ED8B3F5402F69D011D822
:10261000B3F5802F54D006D843B1B3F5003F5AD05C
:1026200041F66B211AE0B3F5202FF9D1BDE838400F
:10263000FFF760BBB3F5801F00F0A280B3F5A01FC9
:1026400057D0B3F5602FEBD15B48FFF70BFF07289E
:1026500000F096800928E9D04FF493515748FFF7CE
:102660009DFD002036E0B3F5381F5AD013D8B3F5DE
:10267000001F5FD00AD8B3F5D01F5DD0B3F5F01FAF
:10268000CED14F48BDE83840FFF752BFB3F5101F19
:10269000C6D14C48F6E7B3F5481F57D0B3F5781FBD
:1026A00000F08280B3F5401FBAD14748FFF740FFE2
:1026B000464B0446D3F82801C0F3012004302BE038
:1026C000FFF718FB414BD3F80C31C3F30823013358
:1026D000B0FBF3F038BDFFF70DFB3C4BD3F80831EE
:1026E000F3E7FFF707FB394BD3F81431C3F30423A7
:1026F000EDE73448FFF71CFF344BD3F8303103F0DB
:102700000303D840E6E72E48FFF712FF2F4B04469D
:10271000D3F8200100F00F00FFF78EFDB4FBF0F0BE
:10272000D8E72748FFF704FF284BD3F82031C3F33D
:102730000113E6E72448A5E72348FFF7F9FE234BFA
:102740000446D3F82801C0F30110E5E72048FFF75D
:1027500089FE0138072824D801A353F820F000BFD0
:1027600063260000A3270000A3270000872700009E
:10277000A3270000A3270000812700008F27000067
:10278000144B1868A6E7BDE83840FFF7EFBAFFF72B
:10279000B1FA0E4BD3F80031C3F3042303FB00005E
:1027A00098E741F2972159E7FFF7A4FA0446284633
:1027B000FFF752FEB2E700BF06000E000CC000009B
:1027C00002001E00050024000300200000400E400F
:1027D000B800320038100020014B1880704700BF4D
:1027E0003C100020013838B50C46032864D8DFE8D7
:1027F00000F002441A2FB1F5007F04D3324842F2B0
:102800008961FFF7CBFC314AC4F30804D2F8683879
:10281000002BFBD12E4A136A23F4FF7323F001032C
:102820002343136238BD7F2904D9274842F29661B9
:10283000FFF7B4FC254A04F07F01D2F86038002B82
:10284000FBD1234B1C6924F07F040C431C61E9E796
:102850007F2904D91C4842F2B161FFF79FFC1B4A53
:1028600004F07F01D2F86438002BFBD1184B9C692F
:1028700024F07F040C439C61D4E7154DD5F89030CB
:102880005B0704D5104842F2C161FFF787FC6B6A11
:1028900023F0300343F010036B62C4F3C311CB1C6D
:1028A0002A6B0C490F2B01EA020128BF0F23214399
:1028B00041EA03712963B5E7BDE83840024842F2B6
:1028C000DB61FFF76BBC00BF0CC000000020C843F9
:1028D00000400E4000F8FF0F022810B50C4604D04F
:1028E000144842F2F361FFF759FC134B5B6A13F093
:1028F000300F1BD0202C16D0302C17D0B4B10D487F
:1029000042F20E71FFF74AFC0C4B0B4AD2F89010C2
:1029100033EA0101FAD15B024ABFD2F8A0000120DC
:10292000C0F3802010BD4FF40003EEE74FF44003E6
:10293000EBE700BF0CC0000000400E40FF33E10792
:10294000022808B50CD129B1094B4FF48060C3F8B7
:10295000A80059664AB1BDE808400220FFF7BCBF95
:10296000044842F24471FFF719FC012008BD00BF82
:1029700000400E400CC0000004282DE9F04704463A
:102980000F4691461FD83D4B3D4A13F800A03D4BE2
:1029900013F80080F1B93C4B33F810301366012373
:1029A00003FA08F8D2F8903013EA080FFAD1B9F117
:1029B000000F5AD00125324A05FA0AF5D2F89030B4
:1029C0002B42FBD151E0BDE8F047304842F2D851EC
:1029D000FFF7E4BB2E4B022833F8106047D1536A4F
:1029E00013F0300F43D12B4BDB6B5A0504D427482F
:1029F00042F2E751FFF7D2FB214A536ADB0705D5C4
:102A0000536A23F0300343F010035362224D1C4BF2
:102A1000A8441E664FEA8808D8F80030002BFBD087
:102A2000B9F1000F21D05544AD002B68002BFCD02C
:102A3000022C1AD1CFB1124F796A11F0010118D0CE
:102A4000012220212046FFF77BFFD7F89C4001227E
:102A500000210220FFF790FFC4F30A010220FFF7D4
:102A6000C1FE3E662B68002BFCD0BDE8F087002736
:102A7000CCE72046FFF730FFE7E700BFE3C00000E8
:102A800000400E40E8C00000F8C000000CC000008C
:102A9000EEC0000000300E408004F210112838B55E
:102AA0000C460FD000F00F000138072800F2EB8031
:102AB000DFE810F0240066009A00E9007D00B40011
:102AC000E900C200042912D1FFF750F90546A8B168
:102AD0000021284600F082FA023C0A2C45D8DFE8A3
:102AE00004F04A473137444444443D0F4D00052922
:102AF00004D1664B1D68664B9D42E9D80025EBE783
:102B00000320052401221146FFF736FFFFF7A2FB41
:102B10000DB1FFF7B1FB5F4B5C67FFF715F904469A
:102B2000FFF7E8F8FFF73CFBFFF7B4FB0146204650
:102B3000FFF7C6FB002D5DD128460121BDE83840D6
:102B400000F04CBA5448FFF72BFB02200446D9E7AB
:102B50005148FFF725FB01240320D3E741F64C71D0
:102B6000BDE838404D48FFF719BB41F65171F7E712
:102B700001200324C6E700200424C3E70724C5E797
:102B8000062933D14548464D41F69071FFF706FBC3
:102B900042484FF4FD51FFF701FBFFF7ABF8FFF799
:102BA000FFFA404B0122C3F80826032321E006293F
:102BB0003D4DEDD0013C092C2BD801A353F824F056
:102BC000192C0000F72B0000052C0000132C00002E
:102BD000132C00009B2B0000132C0000132C000072
:102BE000132C0000F12B0000304DE3E72C4DE1E702
:102BF00004232B6038BD012211460020FFF7BCFEE4
:102C00000223F6E7012211461046FFF7B5FE012325
:102C1000EFE741F6CB71A3E70023EAE7072904D0E9
:102C2000092906D042F255019AE71A4B00221A6789
:102C3000E0E7184B0122FAE74C1E072C1ED8DFE80C
:102C400004F0201D1D161D1D0F0403221149D1F88B
:102C50005C3123F0300343EA0213C1F85C31C9E769
:102C6000012211460420FFF787FE0122EEE7012230
:102C700011460220FFF780FE0222E7E742F2B3018D
:102C80006EE70022E2E742F28A1169E72C10002089
:102C9000002D310100400E400148E8010CC0000049
:102CA00080400E400010C84388400E4084400E40D3
:102CB00010B504461120FFF7D5FB042804D127489E
:102CC00042F27341FFF76AFA012200210220FFF766
:102CD00053FE63781BB9A3780BB9E37823B11F487F
:102CE00042F2AF41FFF75AFA237C012B04D11B4873
:102CF00042F2B641FFF752FA194A217C536A23F097
:102D00000103022908BF43F001035362154B2178E8
:102D1000C3F8A014637AA18843EAC123D362136B7A
:102D2000A07A217A03F07F630343E08843EAC0235B
:102D300043EAC11303310F2928BF0F2143EA01736E
:102D40001363A37B617B1B0143EA0133E17B0B43EC
:102D5000217B43EA0143536310BD00BF0CC0000058
:102D600000400E400000C84370B505461120FFF733
:102D700079FB022804D10F4842F23151FFF70EFAD5
:102D80000D4E0E4BB26B2C7813401C436B7844EA0B
:102D9000C324AB7844EA0364EB7844EA0324B36BBE
:102DA000A34205D0002101220846FFF7E5FDB463E8
:102DB00070BD00BF0CC0000000400E4080E4FFF872
:102DC000EFF3108072B6704700B962B67047EFF348
:102DD0001180602383F31188704780F31188704756
:102DE000034B5868C0F30800003818BF0120704733
:102DF00000ED00E0EFF31083DB0706D4EFF3118062
:102E00005F2894BF00200120704701207047000018
:102E1000034BD86B80F04000C0F38010704700BFB8
:102E200000300E4038B542EA0323B3F5007F054673
:102E30000C463ED019D8B3F5807F36D00AD883B37C
:102E4000012B21D01F4840F68E11FFF7A7F9002271
:102E500013461FE040F201129342F3D11A4BD3F80C
:102E600024321A0EC3F3074314E0B3F5407F24D095
:102E700040F20132934210D040F201229342E1D15C
:102E8000114BD3F8283202E00F4BD3F82432C3F3AE
:102E90000722DBB22B60226038BD0B4BD3F82832FF
:102EA000DFE7094BD3F81C32F1E7074BD3F81C32AC
:102EB000D7E7054BD3F82032E9E7034BD3F82032AC
:102EC000CFE700BF2CC100000081E00F08B5FFF77D
:102ED0009FFF20B1024AD2F8C830002BFBD108BDB9
:102EE0000000C6431A4B022810B5D3F830320C4606
:102EF00012D0032813D0012814BFDBB2C3F3072379
:102F00001B0323F47042ECB95AB140F61D1111486D
:102F1000FFF744F9002010BDC3F30743F0E71B0E91
:102F2000EEE70D49CA6E22F470421343CB660120CE
:102F3000F1E70949D1F8EC2022F470421343C1F8BB
:102F4000EC30F4E7002AF4D040F62911DFE700BFA7
:102F50000081E00F2CC1000000300E40F8B504469F
:102F60000F46FFF755FF78B3FFF7B0FF174B5B68CD
:102F7000C3F301439C4227D0154BD3F80061FEF701
:102F8000B9FE022C05460FD1124BC6F3042606FBF0
:102F900000069E4204D9104840F23161FFF7FEF866
:102FA00002212846FFF78CF9C4F102021023934056
:102FB000064A13610FB1FFF789FF2CB92146284655
:102FC000BDE8F840FFF77CB9F8BD00BF00300E4007
:102FD00000400E40002D31012CC1000013B5024607
:102FE000FFF716FFC8B152B90D4B0191D3F800415C
:102FF000FEF780FEC4F30422019902FB0002094B94
:103000001B7843B1084B9A4205D8022002B0BDE8B4
:103010001040FFF7A3BF0020F8E702B010BD00BFCB
:1030200000400E4036430020002D31010378134A42
:10303000002B437870B514BF04260026002B83783C
:10304000946914BF02250025002B037924F03F0466
:1030500043EA0403C47814BF08210021012C08BFEF
:1030600043F0010333432B430B43936113684179CE
:1030700023F4403343EA0143136070BD00300E4037
:10308000224B4AF6E85210B5596B5A639A6FD20731
:10309000FCD41B6C13F003031EBF1D4A0124C2F8AD
:1030A000B44A834204D110B9194BC3F8B40A10BD15
:1030B000032B00D09BB9431E012B10D8134A4FF4A9
:1030C0000023D362936FDB07FCD4136C23F003035C
:1030D00043F0010313640D4A536A1C03FCD50B4BE8
:1030E0009A6FD207FCD41A6C22F0030202431A64CE
:1030F0009A6F12F00102FBD10038054C18BF012075
:103100000129C4F8B40A08BF5A63D0E700300E4062
:103110000000C6432DE9F04FA0F5E16389B000241B
:10312000B3F5966FCDE90244CDE90444CDE90644F8
:1031300006468A46934605D940F6EE215548FFF7E4
:103140002DF8A3E0B0F5E16F534B8CBF01220022B4
:1031500049D1D3F81832C3F30721DBB207910493A6
:103160004FF416754FF4966748E0BBF1000F0ED090
:10317000D9F85C2022F4FE4222F00202B6F5E16F9B
:1031800042EA012218BF02200243C9F85C20BAF1CA
:10319000000F26D020460021FFF7A4FE044610B9F8
:1031A00040F64B31CAE701214046FFF79BFE04463B
:1031B00010B940F65331C1E7384A536EBD4238BFAB
:1031C0003D4623F4FF73E72D23F0010328BFE725D5
:1031D000B6F5E16F18BF43F0010343EA45035366B8
:1031E00054E0012452E0D3F81832190EC3F3074318
:1031F000079104934FF496654FF4E167DFF89C90D4
:10320000D9F84C400192C4F30174234605A902A8E1
:10321000FFF708FED9F8EC30019AC3F301284346C2
:1032200006A903A8FFF7FEFD049BF01B079FF91AF0
:103230004143B1FBF5F299182CBF012300238F42C3
:103240001ED3EBB9069A039FD31B4343B3FBF5F39D
:10325000FF182CBF01230023BA4211D383B9059B69
:10326000029AA3EB020C00FB0CF0B0FBF5F555192C
:103270002CBF01200020AB4202D300283FF475AFE1
:10328000044840F63C31FEF789FF0024204609B08F
:10329000BDE8F08F2CC100000081E00F00300E402F
:1032A000334A08B5136FD16C11F0010F03F0060318
:1032B00044D0002B42D0132857D9143813288CBF80
:1032C000102308232A49013BCA6C180322F47F42C9
:1032D00040EA03231343CB64264BCA6C1B88C2F31A
:1032E00003222833013202EB820003EB5303B3FBCA
:1032F000F0F3C86C013B072B28BF072320F0EE60DA
:1033000040EA036343F48013CB641B4BB3F90030F2
:10331000002B12DB03F12800C0F34E0303445008D6
:1033200000EB4202B3FBF2F20B6D072A28BF072223
:1033300023F0700343EA02120A6508BDD16C01F064
:103340000101194304D109280FD90A380928B6E721
:10335000D26CD20702D50BB92728B0E7074840F650
:103360009131FEF71BFF0023ACE70423AAE700BF5F
:1033700000300E4032430020344300202CC10000B6
:103380000C4BD3F8803910B5044633B9012804D961
:10339000094840F6AF31FEF701FF084A136F23F0EA
:1033A000070323431367064BBDE810401888FFF757
:1033B00077BF00BF0000C6432CC1000000300E40A4
:1033C0003043002038B55A4B02229A639B6B03F0BE
:1033D0000F039342044607D0564840F64B21FEF7B0
:1033E000DDFE0025284638BD0389C82B04D9514885
:1033F00040F65521FEF7D2FEA28823899A4204D9CD
:103400004C4840F65621FEF7C9FEB4F90C30C82BE3
:1034100004DD484840F65721FEF7C0FE6378012BD3
:1034200055D1A388C82B04D940F65B214148FEF74B
:10343000B5FEE28842F210739A4204D93D4840F644
:103440006821FEF7ABFEE3884A2B48D9B3F5FA7F33
:1034500047D340F6C312934294BF4FF000524FF04F
:1034600040523349B4F90C00CB6C23F0405323F0A5
:1034700001030028A8BF43F001031343CB64D1F834
:10348000EC30A28843F44073C1F8EC302A4B1A8028
:10349000CB6E43F08073CB66284BD3F8800900B124
:1034A0000420FFF76DFF264B21891980254BB4F9C5
:1034B0000C20A0881A80FFF7F3FEA37BA3B1012B99
:1034C00022D01C4840F6CE01FEF768FE0FE0022B2A
:1034D000AFD1A3880A2BACD94FF42661A6E700220E
:1034E000BFE74FF08052BCE7114B174A9A650122A3
:1034F00060881146FFF70EFE054640B90D4840F6BC
:103500009F21FEF74BFE6DE7094B104AEEE7084A94
:10351000D36B43F48063D3636078FFF7B1FDA37A84
:10352000A3F1200253425341044AC2F8943759E7A9
:1035300000300E402CC10000304300200000C64384
:10354000324300203443002077402057372110B702
:1035500038B50D46044618B3012824D0022825D0DA
:10356000032826D004280ED0052825D0831F012B40
:1035700009D9082823D0092823D00A2803D10723F2
:10358000EB40DB0704D4104840F21341FEF706FE7F
:1035900030200E4B0121444301FA05F51D5138BD81
:1035A00040F2FF33ECE74FF6C073E9E740F6FF73F4
:1035B000E6E74FF47F43E3E74FF6FF73E0E70F23BF
:1035C000DEE74FF44043DBE705BE00000CA00046F9
:1035D00038B50D46044618B3012824D0022825D05A
:1035E000032826D004280ED0052825D0831F012BC0
:1035F00009D9082823D0092823D00A2803D1072372
:10360000EB40DB0704D410484FF47971FEF7C6FD98
:1036100030200E4B0121444301FA05F51D5138BD00
:1036200040F2FF33ECE74FF6C073E9E740F6FF7373
:10363000E6E74FF47F43E3E74FF6FF73E0E70F233E
:10364000DEE74FF44043DBE705BE00000CA000447A
:1036500070B505460E461446FFF7B2FB296881EAAD
:10366000040202EA06044C402C60BDE87040FFF7FB
:10367000ABBB0000032838B504460D4607D9042823
:1036800008D0052803D0A0F10803022B02D835F09A
:10369000011303D008487D21FEF780FD30206043F0
:1036A00000F180402A464FF00111BDE8384000F596
:1036B0002040FFF7CDBF00BF8FC100002DE9F041D2
:1036C0000E4615461F46044600285FD0012860D0EC
:1036D000022861D0032862D004280ED0052861D0CA
:1036E000831F012B09D908285FD009285FD00A2839
:1036F00003D10720F040C30703D43748BF21FEF7AA
:103700004DFD86EA050333F0030303D03248C1219F
:10371000FEF744FD072D06F003064FF00F0149D8D0
:103720004FEA85082D4804FA08F201FA08F1FFF77C
:103730008FFF03212A4806FA08F201FA08F1FFF781
:1037400087FF1F2D03D927489121FEF727FD264C1F
:103750002C44A4001F2D276003D922489121FEF795
:103760001DFD9DF81830C4F88030204A0123AB407D
:103770001F2DC2F8243403D91A489121FEF70EFDFB
:103780009DF81C30C4F80033BDE8F08140F2FF30F2
:10379000B0E74FF6C070ADE740F6FF70AAE74FF410
:1037A0007F40A7E74FF6FF70A4E70F20A2E74FF492
:1037B00040409FE7A5F108084FEA88080C4804FA42
:1037C00008F201FA08F1FFF743FF0321094806FA5E
:1037D00008F201FA08F1B2E78FC1000000A400402E
:1037E00008A40040F3C100008020851000A0004024
:1037F00004A400400CA40040F8B50D4616461F4630
:103800000446D8B301283CD002283DD003283ED03E
:1038100004280ED005283DD0831F012B09D9082884
:103820003BD009283BD00A2803D10723EB40DB0714
:1038300004D4274840F21D11FEF7B0FC26B12946FA
:1038400020467FB3FFF784FE3020604300F18040C4
:10385000072D00F5204028D84368AA000F21914089
:1038600023EA010306FA02F21343436076BB2946BA
:1038700020463FB3BDE8F840FFF76ABE40F2FF3391
:10388000D4E74FF6C073D1E740F6FF73CEE74FF4AD
:103890007F43CBE74FF6FF73C8E70F23C6E74FF42C
:1038A0004043C3E7FFF794FECEE7A5F10803826823
:1038B0009B000F21994022EA010206FA03F3134309
:1038C0008360D3E7BDE8F840FFF782BEF8BD00BFD4
:1038D0008FC10000022838B504460D4603D91148AF
:1038E0004C21FEF75BFC6B791F2B03D90D484F2150
:1038F000FEF754FCAB786A789B0143EA82032A788E
:103900001343EA7843EA02132A7943EAC2236A7925
:1039100043EA0233AA79043443EA42432401024AC7
:10392000135138BD56C2000000200440014B1860FE
:10393000704700BF00008442427801790378002A72
:10394000827870B514BF04260026002AC27814BFFE
:1039500010250025002A42794FEA023242EA01226C
:1039600042EA0302837914BF20240024002BC37988
:1039700042EA034343EA0603027A43EA050314BF1B
:103980004FF4004100212343002A14BF4FF40032BA
:1039900000220B431343014A136070BD0020044012
:1039A00070B506460C46154622B90D484FF42271F3
:1039B000FEF7F4FB1CB90B48FEF71EFE04460A4B4B
:1039C0006D00013CB4FBF5F413EA04234FEA04252F
:1039D00004D0034840F2A521FEF7E0FB756170BDFD
:1039E000BAC2000040410500070080FF38B51E4BF9
:1039F0001E4D984204460ED0A8420CD003F5006339
:103A0000984208D003F58063984204D0184840F2E9
:103A10002E41FEF7C3FB40F6AA63E36041F20502C4
:103A2000002323606260134AA3606361E364A264BD
:103A300023666367A367E3670B4B9C4209D0AC42E4
:103A400007D003F500639C4203D003F580639C42DA
:103A500001D1002323650023AC42A36502D0064AAE
:103A6000944200D1E36538BD0000014000040140EC
:103A7000BAC20000F9FF0100000C014038B52A4B22
:103A8000984204460D4610D003F5806398420CD04E
:103A900003F58063984208D003F58063984204D010
:103AA00022484FF45671FEF779FB2046FFF79EFF40
:103AB000A97B2A8A2368002942F0010214BF4FF42F
:103AC0008061002113430B432A7D23602368002A71
:103AD00014BF4FF00052002213432360AB7C1BB194
:103AE000EB7C43F08003A3652B7B43F4805363603E
:103AF000D5E901122046FFF753FF6B7B0BB1102372
:103B0000E3606B7D1BB1236843F480332360AB7D9E
:103B1000EA7D1B07120503F0E04302F4E0021343C1
:103B200023662B78E36038BD00000140BAC2000074
:103B300003695B06FCD54163704700002DE9F0473F
:103B4000374FDDE908840646154699468A4641B94D
:103B5000082323704FF4D963A360324B6760E3609E
:103B6000FEE75AB1531E134208D00823237040F2D7
:103B7000CB63A3602B4B6760E360FEE7FFF727F999
:103B8000002D08BF04254D4538BF4D46D6F808E046
:103B90006B1E13EA0E0FC5F1000202EA0E0208BF07
:103BA0000025154409F1FF33AA4413EA0A0FC9F1AD
:103BB000000202EA0A0208BF4FF0000902EB090303
:103BC00072680132A2EB0E01A3EB0E0E7145844622
:103BD00015491AD2B8F1000F02D09B1AC8F800306C
:103BE000162540F22273C4E90231257067606046F1
:103BF000FFF7F3F840F2D763A3600A4B25706760C4
:103C0000E36000252846BDE8F087B36000232370F9
:103C10004FF4E563C4E902316760FFF7DEF8F1E7CE
:103C20001FC30000AEC3000096C3000030B50C46B1
:103C300085B011461D461BB9039200F019F803998F
:103C4000064801950023009304220123002C18BF8D
:103C50002046FFF773FF05B030BD00BF40100020C5
:103C6000024B00221A6002F021BD00BF386700201D
:103C7000FEE702F033BD0000014B1860704700BF43
:103C8000386700201FB5104B1B78012B07D1FFF7B9
:103C9000A7F8B0B94FF0FF3005B05DF804FB6846F7
:103CA00000F06CF99DF800100029F3D101206A465C
:103CB00000F0F2FD9DF80000003818BF01204042DE
:103CC000EAE76FF00500E7E7E46B00201FB5FFF7B8
:103CD00087F848B9074B1B78012B02D0684600F0E3
:103CE00051F84FF0FF3001E06FF0050005B05DF8CE
:103CF00004FB00BFE46B0020704700002DE9F04199
:103D0000044608B9FFF7B4FFFFF76AF8194E1A4DD9
:103D1000074638B12023237040F21933C4E9023535
:103D20006660FEE7154B1B78012B08D00223237039
:103D3000666040F21D33C4E90235BDE8F081DFF86A
:103D4000408098F80030F92B05D91E232370666057
:103D500040F22233EFE7FFF73AF898F800300133EA
:103D600088F80030FFF739F82770666040F22D338D
:103D7000E1E700BFC8C30000CEC40000E46B002030
:103D8000E56B002070B5044608B9FFF771FF264BBC
:103D90001E78012E09D013232370244B636040F258
:103DA000F633A360224BE360FEE7224B1B88022B15
:103DB00009D8092323701D4B636040F20143A360BF
:103DC0001B4BE360FEE71C4D2B784BB11F23237088
:103DD000164B636040F20443A360154BE360FEE7BB
:103DE000FFF708F848B11F232370104B636040F2BF
:103DF0000743A3600E4BE360FEE701F053FA0F4B5D
:103E00000F4A18700F4B2E7018700C2358430E4B2E
:103E10001B5813600D4A136001F0F2FC02F084FCA1
:103E2000BDE87040FFF724BFC6680020C8C300008B
:103E3000A3C40000006D0020E46B0020DB680020BC
:103E4000F46C0020DA680020E4680020F06C0020A8
:103E500008B501F027FAA0F140035842584108BDC7
:103E600030B14368C1F8E8308368DB68C3617047EC
:103E700091F83030022B03D0072B05D0034B00E024
:103E8000034BC1F8E8307047024BFAE7E0CD000081
:103E90003BC4000042C40000044BC1F8E83018B134
:103EA000826802B1D368C361704700BFE0CD0000F3
:103EB0000023C0E9003303817047036810B533B9AC
:103EC00001220281C1E90933016041601CE00289DD
:103ED00091F833400132028193F83320A2420CD88A
:103EE0005B6A002BF8D14B6243688B625962ECE746
:103EF000C1E909325162996206E09A6A002AF7D153
:103F0000C1E909329962016010BDC36A5BB19A6868
:103F1000526A4AB9C3E902221A8A013A1A82002374
:103F2000C0E90933C3627047D0E9092111B9916230
:103F30009A60F1E74A620AB9D960EDE79162EBE76E
:103F400038B5C56AAB685B6A4BB1FFF7DEFFC56287
:103F5000014605F10800BDE83840FFF7AEBF38BDA7
:103F6000054B40220021013AC3E90011198103F1F8
:103F70000C03F8D1704700BFE4680020F8B5044690
:103F800008B9FFF775FE964D6A68D2B12B68954E59
:103F90004BB92346296B94489200FFF747FE3060E7
:103FA00023780BB1F8BD3360904B32681A60904AA9
:103FB0006B6813608F49904A9B0013600A68134432
:103FC0000B602A89B2B12346296B8C481201FFF796
:103FD0002DFE8B4B18602378002BE3D1894B8A4A46
:103FE00018602B8913808349884A1B0113600A6873
:103FF00013440B606A69002A27D02B69844E002B7A
:1040000062D12346296B83489200FFF70FFE306090
:104010002378002BC6D1804B2A7E1A707F4BEA6929
:104020001A607F4B32681A606B69EA6864215A43F0
:10403000B2FBF1F27B490A607B4A6E4913607B4A0E
:104040009B0013600A6813440B606A6A002A28D038
:104050002B6A774E002B39D12346296B7548920085
:10406000FFF7E4FD30602378002B9BD1724B95F86D
:1040700028201A70714B32681A606B6AEA686421F2
:104080005A43B2FBF1F26E490A606E4AE96A136064
:104090006D4A9B0013606D4A116056490A681344CB
:1040A0000B606B4E6B6B336002F0EAFB03F074FB4A
:1040B000054668B101232370664B63604FF4D773E4
:1040C000A360654BE3606DE73360A4E73360CDE741
:1040D00003F062FC3368984209D2092323705D4BD8
:1040E00063604FF4D973A3605B4BE360FEE703F0BA
:1040F00053FC3368594F984240F0D8803D60326895
:10410000B2F57A7F07D900230020012105F018F9C4
:104110004FF47A754543524B524A1D600023137089
:10412000514A1370514A1360514A1360514A137037
:10413000514A1370514A2046137002F025F80A23A1
:10414000B0FBF3F04E4B18602578002D7FF42AAFBA
:10415000274A136853B12549086838B10146013B25
:1041600041F8045BFBD1116801F078FD454B002557
:104170001D7001F08FF8FFF7F3FE434B1D60434BBA
:104180001D80214B1B88002B40F09C80404A00235F
:104190001360404A1380404A1360404A1380404AEB
:1041A0001360404A2046138001F0D4FC2378002B92
:1041B0007FF4F8AE204601F0EFFA2378002B7FF46D
:1041C000F1AE204602F0A8F92378002B7FF4EAAE86
:1041D00000F018FCFFF790FD334B01221A70E1E666
:1041E00054100020406700204BC4000044670020AA
:1041F000486700203C6700204C6700205EC4000038
:104200005067002054670020586700205C6700203A
:104210006867002070C400006067002064670020A9
:104220006C670020706700207467002078670020AA
:104230008867002089C40000806700208C67002008
:104240009067002094670020986700208467002012
:104250007C670020C8C30000DAC40000A06700200B
:104260009C670020E46B0020E56B0020F06C0020D0
:10427000F46C0020DA680020DB680020EC6B002082
:10428000E86B0020026D0020C0680020C468002098
:10429000D4680020D8680020DC680020E068002096
:1042A000F06B0020F46B0020C668002003F074FB64
:1042B0002B4602460121002005F042F8336858439E
:1042C00038601CE7204600F0E9FC2378002B3FF41F
:1042D0005DAF67E690F833300B490C22534330B59D
:1042E000CA58CC1832B901252581C0E90422C8502A
:1042F000606030BD2589013525810024026144615B
:104300005061C850F5E700BFE468002090F8332002
:104310000B490C235A4330B58C588B1834B90125FE
:104320001D81C0E904448850586030BD1A890132AB
:104330001A81002202615A6842611061F4E700BFED
:10434000E468002010B5044690F8330000F0BAFF8E
:10435000084B94F833201B789A42204606D1FFF789
:10436000D5FF2046BDE8104004F055BAFFF7B2FF74
:10437000F7E700BFDA68002038B50C4691F8321034
:1043800007290546049807D80239052906D8DFE829
:1043900001F0060605052525FF293AD138BD6267DB
:1043A000A4F87830606415B12046FFF7AEFD2146D1
:1043B0002846FFF771FD94F83230032B06D104F143
:1043C000540003F023FA08B1FFF752FC2046FFF730
:1043D000B9FF0023238684F83230DFE76267A4F850
:1043E0007830606415B12046FFF78FFD21462846DE
:1043F000FFF752FD94F83230072B06D104F1540038
:1044000003F004FA08B1FFF733FC002323860423EA
:10441000E1E7BDE83840FFF72BBCD0E9003293421A
:1044200010B50FD01C690021A24215BF6161C3E91C
:104430000412C3E90412C2E9043116BF1361026019
:104440000460436010BD000070B50446D4E9043533
:1044500090F83300124A0C21BDB973B94143551885
:1044600053502B816B6000F043FF0023C4E90433F9
:104470002046BDE8704004F0E4B94843161831897D
:10448000013931815D611350EFE701FB0022118991
:10449000013911812B610BB95560E6E75D61E4E7F5
:1044A000E468002013B5044670B1084B1B78012B5B
:1044B0000AD10023CDE90033054A016F03460548C0
:1044C00003F002FA044B1C6002B010BDEC6B00203C
:1044D00079470000A8670020A4670020F8B50446CB
:1044E000A8B1114B1B78012B11D1C56E0F4E7DB9B0
:1044F0000F4B1F6803F050FA32682B46511E0D46D1
:104500001946E7FB0051284604F01AFF2067F8BD62
:1045100003F042FA32680023511E0E461946E5FBAD
:1045200000613046F0E700BFEC6B00207C670020A4
:10453000E86B00202DE9F7435E4B1B78012B00D080
:10454000FEE75D4B93F80080B8F1000F40F09680D5
:10455000FEF73DFC594F5A4C97F80090594D0646CE
:1045600000F0A0FE40280346387000F08A800C203E
:10457000DFF85C814343B9F1400F58F80330236002
:1045800003D101F02FFAAFF3008022682B68DFF827
:1045900044919A4218D1002001F04CFB012802D02E
:1045A000286802F08BF999F800303BB12068036F5E
:1045B0000BB9FFF793FF2068FFF774FF304603B095
:1045C000BDE8F043FEF709BC99F800301BB3DFF8F3
:1045D0000891D9F800301B6FEBB13B4801A903F0FB
:1045E00097F930B9D9F80030019A37481A6703F0C3
:1045F0000DF9D9F800301A6F6AB993F8330000EB5F
:10460000400008EB8000FFF708FF3B780C22534383
:1046100058F8033023602268D2F8BC300133C2F866
:10462000BC302A4A1368013313603B78402B33D0E7
:104630002B682268934215D0A3B102F04FF82B6883
:10464000D3F8C43098421FD302F048F82B68D3F84F
:10465000C430C01A2A68D2F8C830C2F8C000184462
:10466000C2F8C800246802F039F8C4F8C40002F0A7
:104670009AF83046FEF7B1FBBFF36F8F03B0BDE889
:10468000F083C4F80080CCE702F028F82B68D3F858
:10469000C420D2431044DDE701F09CF92C681CB122
:1046A00002F01CF8C4F8C40003F054FFAFF300801C
:1046B000DDE700BFE46B0020E56B0020DB68002035
:1046C000F46C0020F06C0020A8670020F86C00203B
:1046D000E4680020EC6B0020A46700202DE9F04185
:1046E000044608B9FFF7C4FAFEF77AFB1E4F1F4EC7
:1046F00038B12023237040F24533C4E902366760A5
:10470000FEE71B4B1B78012B08D002232370676048
:1047100040F24933C4E90236BDE8F081DFF8548045
:1047200098F800302BB91F232370676040F24E3396
:10473000F0E7FEF74CFB98F80050013DEDB288F829
:1047400000503DB1FEF749FB2D232370676040F216
:104750005633DFE7FEF741FBFFF7ECFE257067609D
:104760004FF45873D6E700BFC8C30000C0C40000B0
:10477000E46B0020E56B002038B50E4B1B78012B55
:104780000D4616D1FEF723FB00232B670A4B1B684F
:1047900093F833300446094803EB430300EB8300EE
:1047A000FFF73BFE2046FEF718FBBDE83840FFF759
:1047B000C1BE38BDEC6B0020A4670020E468002077
:1047C000F8B50C46FEF703FB94F83230013B074680
:1047D000062B48D8DFE803F0544704475B47040042
:1047E00094F83030042B08BFE36A4FF0000608BF8E
:1047F0005D6A6667A4F8786018BF354601F06EFF01
:1048000060642046FFF781FB94F83230032B31D1EE
:10481000FFF798FD84F832604FF44073238615B398
:1048200095F8333095F834209A421CD094F8332010
:104830009A4218D1284600F01DFC95F83430834286
:1048400028BF0346D9B295F833308B420BD02846A7
:1048500001F042FB284603F0A9FB95F833200146FE
:104860002E2003F051FD3846FEF7B7FABDE8F840B8
:10487000FFF760BE072B04BF042384F83230CBE778
:10488000002384F832302046FFF75CFDEBE7042379
:1048900084F83230E7E700002DE9F04105460E4686
:1048A00014460AB9FFF7E4F9002323701E4B636036
:1048B00040F27D33A3601D4BE360FEF788FADFF81A
:1048C00080800746E6B1C8F80060194B012D1A78C0
:1048D0001FD0012A0FD1174C1748216800257031CD
:1048E0001D7003F015F808B123681D67124802F027
:1048F0008DFF002323603846BDE8F041FEF76DBA16
:10490000204601F041FC0A23B0FBF3F0C8F8000098
:10491000DBE7002AEFD1094C1D702068FFF7DEFDB0
:104920002068FFF7BFFDE6E7C8C30000ABC4000086
:10493000EC6B0020A4670020A8670020F06C00202A
:10494000E86B0020F7B504460D4611B303F024F8D8
:10495000114B1A680026571E46F1FF31E5FB007126
:104960003346384604F0ECFCCDE9006601460B4ABC
:10497000234604F1540002F0A7FF08B1FFF778F9CD
:104980000323204684F8323003B0BDE8F040FFF73F
:104990005BBD0223F5E700BF7C670020C147000034
:1049A00037B5144D0B4611462A6882F83030002383
:1049B00082F83130104A127804463AB10F4A104852
:1049C00012680191136702F021FF01992868FFF72F
:1049D000B9FF64B1296804F10800CC62FFF76DFAF1
:1049E0002968204603B0BDE83040FFF739BA2B688C
:1049F000DC62F5E7F06C0020EC6B0020A46700207F
:104A0000A8670020774B1B7882B0DBB28DF80530A9
:104A1000754B1B68DBB28DF80730744B1B78DBB22B
:104A20008DF80530724B1B78DBB28DF80530714B79
:104A30001B68DBB28DF807306F4B1B6ADBB28DF859
:104A400007306E4B1B78DBB28DF805306C4B1B7852
:104A5000DBB28DF805306B4B1B88DBB28DF806306E
:104A6000694B1B88DBB28DF80630684B1B78DBB2D4
:104A70008DF80530664B1B88DBB28DF80630654B30
:104A80001B88DBB28DF80630634B1B88DBB28DF8D8
:104A90000630624B93F82830DBB28DF80730604B5C
:104AA0001B78DBB28DF805305E4B1B88DBB28DF8CE
:104AB00006305D4B1B88DBB28DF806305B4B1B88E4
:104AC000DBB28DF806305A4B1B88DBB28DF806300E
:104AD000584B1B88DBB28DF80630574B1B88DBB276
:104AE0008DF80630554B5B8DDBB28DF80730544B9B
:104AF0001B78DBB28DF80530524B1B88DBB28DF88A
:104B00000630514B1B78DBB28DF806304F4B1B6AD9
:104B1000DBB28DF807304E4B1B78DBB28DF80530D9
:104B20004C4B1B88DBB28DF806304B4B1B88DBB23D
:104B30008DF80630494B1B68DBB28DF80730484BC7
:104B40001B78DBB28DF80630464B1B78DBB28DF854
:104B50000530454B1B78DBB28DF80530434B1B7895
:104B6000DBB28DF80530424B1B78DBB28DF8053097
:104B7000404B1B78DBB28DF805303F4B1B78DBB226
:104B80008DF805303D4B1B88DBB28DF806303C4B71
:104B90001B78DBB28DF805303A4B1B88DBB28DF801
:104BA0000630394B1B88DBB28DF80630374B1B784B
:104BB000DBB28DF80530364B1B88DBB28DF8063042
:104BC000344B9B8CDBB28DF80730334B1B88DBB248
:104BD0008DF806309DF805309DF806309DF80730B9
:104BE00002B0704794100020901000208C1000201C
:104BF000C067002098100020C46700209C1000208F
:104C0000EC6700209E100020A0100020A2100020C1
:104C1000A8100020A4100020A6100020F06700209B
:104C2000AA100020AC100020AE100020B010002010
:104C3000B2100020B4100020B61000202068002020
:104C4000B8100020BA100020C410002050680020C6
:104C5000C5100020C6100020BC100020C01000208D
:104C6000CA100020C8100020C9100020CE1000205B
:104C7000CF100020D1100020D0100020D210002032
:104C8000D4100020CC100020D6100020D810002016
:104C9000DA10002078680020DC100020154BF0B5F9
:104CA0001C68154B1E880025721E04F1100192B27B
:104CB0002B46AFB2BA4213D8110104EB0212635073
:104CC00053601381D3600D4A1381D38096801460A2
:104CD00003700B4B43605D2383600A4BC360F0BDE0
:104CE00041E9041321F8083C41F8043C0135103136
:104CF000DFE700BF5467002058670020C868002025
:104D0000E1C4000053C50000428910B582B1094BCF
:104D100001681C680C6041681960D988891AD980BB
:104D20009988114499800023C0E90033438183812D
:104D3000104610BDC868002038B504460D46102244
:104D4000002104F0D1FC258138BD00002DE9F74F8A
:104D50000C9C06468A4617461D460CB9FEF788FF8E
:104D6000FEF73EF848B120232370864B636040F283
:104D70003313A360844BE360FEE74EB90A2323702C
:104D8000804B63604FF49B73A3607F4BE360FEE74F
:104D9000C7F30E034BB1082323707A4B636040F2D4
:104DA0003913A360784BE360FEE73268774B9A4291
:104DB00009D00C232370734B636040F23D13A36052
:104DC000714BE360FEE73FB2002F0CDBFEF712F8F9
:104DD00048B11F2323706B4B63604FF4A073A36033
:104DE000694BE360FEE76A4B93F80090B9F1010F5D
:104DF0001CD1FDF7ECFF96F82830DFF89CB1804617
:104E0000F3B9DBF80030736286F828900DB1F26ACE
:104E10002A609A6B326240469E63FDF7DEFF0023F4
:104E20002370584B63604FF4AA7305E0022323708C
:104E3000544B636040F24513A360534BE36014E0AE
:104E4000D6F82490DBF80020914521D1FF2BDFF824
:104E500034914D4F0CD1FDF7C0FF1E232370C4F8D1
:104E6000049040F25D13C4E9023703B0BDE8F08F4F
:104E7000013386F828300DB1F36A2B604046FDF708
:104E8000ACFF23232370C4F8049040F26913EAE7CF
:104E9000002F0BDAFDF7A1FF0DB100232B601D23BE
:104EA0002370384B63604FF4BB73C5E7394B1B78F5
:104EB0005BB1FDF792FF0DB100232B602D23237012
:104EC000304B63604FF4C173B6E792F8331099F832
:104ED00033308B420BD9484600F0FEFF484603F0C2
:104EE00065F899F8332001462D2003F00DFA52465B
:104EF00004213046FFF754FD4046FDF76EFFFFF7F3
:104F000019FBFDF764FFDBF8003093F83120032A2A
:104F100032D8DFE802F00213271D0DB15B6C2B6065
:104F200000232370174B63604FF4D073A360164BBC
:104F3000E36003B0BDE8F04FFDF74FBF0DB15B6C10
:104F40002B60212323700F4B63604FF4D573EDE783
:104F50000DB100232B60222323700A4B63604FF4B2
:104F6000DA73E3E70DB15B6C2B6031232370054BE3
:104F700063604FF4DF73D9E70190FEF779FE019883
:104F8000D7E700BF62C50000E2C500004D55545888
:104F9000E46B0020E56B0020F06C0020054B064A16
:104FA000C36100234361136883610BB910607047CC
:104FB0005861FBE7E0CD0000D46800202DE9F04700
:104FC00005460F4614460AB9FEF752FEFDF708FFE4
:104FD000DFF88090DFF88080064638B12023237008
:104FE0005223C4E90238C4F80490FEE73DB90A230D
:104FF00023705523C4E90238C4F80490FEE7FDF796
:10500000E6FE302231468246284604F06DFB0F4B07
:1050100005F10800C5E90037FEF74AFF2846FFF70B
:10502000BDFF0B4A13880133138029463A462920D5
:1050300003F076FC5046FDF7D0FE6C232670C4E9E1
:105040000238C4F80490BDE8F08700BF4D555458AD
:10505000D868002062C50000EEC50000836B00F137
:1050600038028B42186A01D11060704703F12002A8
:105070000346F6E7836B3F2003B970479A6822B175
:1050800092F83320904228BF10461B6AF4E70000D4
:105090002DE9F04F054685B08B4614460AB9FEF758
:1050A000E7FDFDF79DFEDFF89481604F40B12023BE
:1050B000237040F25723C4E90237C4F80480FEE7A6
:1050C00045B90A23237040F25A23C4E90237C4F8D1
:1050D0000480FEE7CBF30E0343B10823237040F2B4
:1050E0005D23C4E90237C4F80480FEE72A68504B08
:1050F0009A4208D00C23237040F26123C4E902379E
:10510000C4F80480FEE74B4B1B78012B0AD0022326
:105110002370C4F8048040F26523C4E9023705B067
:10512000BDE8F08FDFF818A1FDF751FE6A6ADAF8E2
:1051300000309A42814608D0FDF74FFE1B232370B2
:10514000C4F804804FF41B73E7E701F0C7FA95F841
:1051500028300290013BDBB2E86285F828304BB181
:105160004846FDF73AFE23232370C4F8048040F23A
:105170007D23D2E7DAF800002946FFF76FFFAE681B
:105180005EB96E6285F828604846FDF726FE2670F7
:10519000C4F8048040F28A23BFE7DAF8001091F8DF
:1051A000333091F834600393B34220D00846FFF7C0
:1051B00061FFB04228BF3046039BC6B2B34216D24D
:1051C0000846FFF741F9DAF8000080F8336002F092
:1051D000EDFE324601462E2003F096F8304600F0F0
:1051E00071F8DAF80000FFF791F8134B1E70A96808
:1051F0006962012385F828308B6B2B62029B8D63DB
:10520000009300231A462846FFF7B6F84846FDF7F4
:10521000E4FD1BF4004F01D1FFF78CF9002323704C
:10522000C4F8048040F2AD2377E700BFD6C5000084
:105230004D555458E46B0020DA68002062C5000028
:10524000F06C00202DE9F341846B0546012714B969
:1052500002B0BDE8F081D4F8208001F03FFA214689
:10526000E06206462846FFF7F9FEA16821B984F8F6
:10527000281061624446EAE784F828708B6B236249
:10528000002365621A468C6320460096FFF774F887
:10529000F0E70000024B0022C3E90022704700BF84
:1052A000A868002008B5064B186828B9586801F0AE
:1052B0002FFA2030C0B208BD01F02AFAFAE700BF89
:1052C000A86800201F28094A07D84FF0004323FA96
:1052D00000F013680343136070470123C0F13F00DF
:1052E00003FA00F05368184350607047A868002024
:1052F0001F280A4B08D84FF0004222FA00F01A6823
:1053000022EA00021A6070470122C0F13F0002FA4F
:1053100000F05A6822EA00025A607047A86800202C
:105320002DE9F3470A9C0746894616461D460CB9E7
:10533000FEF79EFC0FFA86FABAF1000F0ADABFB93F
:105340000A2323706A4B63604FF49373A360694B25
:10535000E360FEE7FDF744FD0028F0D02023237032
:10536000634B63604FF49173A360624BE360FEE7AD
:10537000C6F30E064EB1082323705D4B636040F206
:105380002913A3605B4BE360FEE73A685A4B9A42ED
:1053900009D00C232370564B636040F22D13A36099
:1053A000544BE360FEE7BAF1000F0CDBFDF722FD82
:1053B00048B11F2323704E4B63604FF49873A36072
:1053C0004C4BE360FEE74D4B1B78012B17D1FDF7EB
:1053D000FEFC3E6A804606B3013E3E620DB17B6A2A
:1053E0002B6040463E6AFDF7F8FC00232370404BDB
:1053F000636040F24313A3603E4BE36009E0022385
:1054000023703B4B636040F23513A360394BE3607C
:105410000026304602B0BDE8F087BAF1000F0CDA82
:1054200005B12E6040463E6AFDF7D7FC1D23237070
:105430002F4B636040F25113DDE7314B1B785BB1BA
:1054400005B12E604046FDF7C8FC2D232370284B84
:10545000636040F25D13CEE74A4606213846FFF707
:105460009FFA4046FDF7B9FCFFF764F8FDF7AFFC83
:10547000244B1B6893F83120032A31D8DFE802F06F
:105480000212261C0DB15B6C2B6000232370184B9D
:1054900063604FF4BA73A360164BE3603E6AFDF796
:1054A0009CFCB6E70DB15B6C2B6021232370104B85
:1054B00063604FF4BF73EEE70DB100232B6022232E
:1054C00023700B4B63604FF4C473E4E70DB15B6C66
:1054D0002B6031232370064B63604FF4C973DAE706
:1054E0000190FDF77AFCFEF7C3FB0198D6E700BFF9
:1054F000FCC5000078C6000053454D41E46B002018
:10550000E56B0020F06C00202DE9F3470646884645
:1055100014460AB9FEF7ACFB4EB90A2323703E4B82
:10552000636040F22623A3603C4BE360FEE747F64E
:10553000FF5518EA050509D008232370364B636030
:1055400040F22923A360354BE360FEE73268344B19
:105550009A4209D00C2323702F4B636040F22F2313
:10556000A3602E4BE360FEE72E4B1B78012B09D086
:1055700002232370284B636040F23323A360274B40
:10558000E36038E001F0AAF88146FDF720FCB76837
:105590000546F7B108F4007A002339461A467F6AB7
:1055A000CDF800903046FEF7E7FEBAF1000F01D0CB
:1055B000002FF1D12846FDF710FC18F4004F01D15F
:1055C000FEF7B8FF144B63600025257040F2652399
:1055D000D4E7356ADFF840A0DFF840806B1C0ED1BD
:1055E000FDF7FBFB1E2323704FF41173C4E902384F
:1055F000C4F804A03D46284602B0BDE8F087013556
:10560000C6E90859FDF7E9FB40F24F23C4E9023827
:105610002770C4F804A0EEE7FCC500006EC60000C9
:1056200053454D41E46B0020054B064AC3610023FE
:105630004361136883610BB9106070475861FBE7E1
:10564000E0CD0000F06B00202DE9F84F05460F4635
:1056500093461C460BB9FEF70BFBFDF7C1FBDFF8C9
:105660008490DFF88480064638B1202323705823C5
:10567000C4E90238C4F80490FEE73DB90A23237058
:105680005B23C4E90238C4F80490FEE7FDF79FFBF2
:10569000282231468246284604F026F80F4B2B601C
:1056A00005F10800C5F820B06F60FEF701FC284640
:1056B000FFF7BAFF0A4A13880133138029463A4696
:1056C0002F2003F02DF95046FDF787FB732326703A
:1056D000C4E90238C4F80490BDE8F88F53454D4141
:1056E000F46B0020FCC5000082C60000F8B5064639
:1056F00008B9FEF7BDFAFDF76AFB1F4B00251D80B8
:105700001E4B1D601E4B1D601E4B1D81FDF765FB72
:10571000FDF75DFB1C4B1C68FDF75FFB74B9FDF7E3
:1057200056FB1A4B1D68FDF758FB05BB184B736001
:10573000A423B3603570174BF360F8BDFDF747FB4A
:10574000C4E93255C4F89050C4F8D450C4F8BC50E1
:10575000A4F8B650A4F8B850074600F0BFFFA4F86C
:105760008850C4F8C400D4F8E4403846D4E7FDF7C4
:105770002EFBAC85AD69D6E7FA6B0020EC6C0020FF
:105780002C6E0020C8680020FC6C0020DC68002023
:105790008EC6000014C7000000B5104A104900234F
:1057A0001370104A8BB013700322CDE90632CDE995
:1057B00004330D4A0890126803920C4A0C48126890
:1057C00002920C4A126801920B4A127800920B4A1C
:1057D00000F04EFA0BB05DF804FB00BFFC6B00203C
:1057E00001C70000F66B002074670020706700207E
:1057F000006C00206C6700206067002011580000DA
:1058000008B500F06BFF014B186008BDBC680020B4
:105810002DE9F04F85B06846FFF768FF684600F055
:10582000B3FC9DF8003005460BB1FEF721FA5C4B46
:1058300018684FF00008A842C24642F2107728BF0D
:105840000A20B5FBF0F500F049FF564E814600F006
:1058500045FF3368984267D300F040FF3468041B6B
:10586000FDF7B5FA504BD3F800B0C3F800A0FDF730
:10587000B4FA4E4B9C425DD94D4B9C425ED94D4B88
:105880009C425FD34C4B9C4295BF4FF47A70384694
:105890000A2601260BFB06F3B4FBF0F4B3FBF4F38A
:1058A0009BB2BB42454A28BF3B461380444AFB1A81
:1058B0009BB21380434A1188994203D2B8F1000F7A
:1058C00000D01380DFF808B1FDF781FADBF8008023
:1058D000FDF783FAB8F1000F37D1FDF778FADBF85E
:1058E0000080FDF77AFAB8F1000F3BD1364B1A78F9
:1058F000012A04D1684683F80080FFF7F7FE00F024
:10590000E9FFFFF77DFF00F0E9FE304B1A68A0EBDE
:105910000900824238BF18606A460021284600F01C
:1059200045FC4FF001088EE700F0D8FE3368DB43FA
:105930001C1895E7012042F21076ABE70A204FF4DD
:105940007A76A7E764200646A4E7FDF740FAD8F880
:10595000C830C8E932A3FDF740FAFDF738FAD8F8A5
:10596000E480B5E7D8F8CC30B8F8B8207343B3FB7F
:10597000F4F39BB2BB4228BF3B469A4238BFA8F81B
:10598000B830A8F8B63008F1D80208F1DC0140467A
:105990006B4600F041F8FDF71AFAD8F8E480A0E76A
:1059A00064670020BC680020B86800207F1A0600E9
:1059B000FF083D00005A6202FF83D717B06800203D
:1059C000F86B0020FA6B0020F66B0020EC6C0020D6
:1059D000FC6C002008B500F081FE014B186008BD8A
:1059E000B468002010B50A4C00F078FE2368984295
:1059F00008D300F073FE2368C01A064A13681844DF
:105A0000106010BD00F06AFE2368DB431844F4E721
:105A1000B4680020B86800202DE9F04105460F4623
:105A200016461C460BB9FEF723F9FDF7D9F948B124
:105A3000202323702F4B636040F2BC63A3602E4B86
:105A4000E360FEE74FB90A2323702A4B636040F2FC
:105A5000BF63A360284BE360FEE74EB90A232370BF
:105A6000244B636040F2C163A360234BE360FEE715
:105A7000FDF7ADF90DB9214B1D68D5F80080B8F1DF
:105A8000000F10D1FDF7A9F90823C7F80080C6F868
:105A900000802370174B636040F2CC63A360164B09
:105AA000E360BDE8F081B5F8408018F001080CD142
:105AB000FDF793F90723C7F80080C6F8008023702C
:105AC0000C4B636040F2D463E8E7FDF786F9AA69FE
:105AD00000231C3252F8041F51B13B60EA6BD31A09
