:1000000000100020F9110000F5110000F5110000AA
:10001000F5110000F5110000F5110000F5110000C8
:10002000F5110000F5110000F5110000F5110000B8
:10003000F5110000F5110000D35D0000F51100007E
:10004000F5110000F5110000F5110000F511000098
:10005000F5110000F5110000F5110000F511000088
:10006000F5110000F5110000050E0000F51100006B
:10007000F5110000F5110000F5110000F511000068
:10008000F5110000F5110000190E0000F511000037
:10009000F5110000F5110000F5110000F511000048
:1000A000F5110000F5110000F5110000F511000038
:1000B000F5110000F511000011710000F5110000AC
:1000C000F5110000F5110000F5110000F511000018
:1000D000F5110000F5110000F5110000F511000008
:1000E000F5110000F5110000F5110000F5110000F8
:1000F000F5110000F5110000F5110000F5110000E8
:10010000F5110000F5110000F511000010B5054CC7
:10011000237833B9044B13B10448AFF300800123B3
:10012000237010BDA81C00200000000008B10000D2
:1001300008B5034B1BB103490348AFF3008008BD6A
:1001400000000000AC1C002008B10000A3F5803ABC
:10015000704700BF174B002B08BF134B9D46FFF79E
:10016000F5FF00218B460F461348144A121A08F077
:10017000E7FC0E4B002B00D098470D4B002B00D016
:1001800098470020002104000D000D48002802D0EF
:100190000C48AFF3008008F0A1FC2000290000F01B
:1001A00045FE08F087FC00BF0000080000000000CA
:1001B0000000000000100020401100209C8300205F
:1001C0000000000000000000024A136801331360C1
:1001D000704700BFB4270020034A136923F00403CB
:1001E000136130BFF9E700BF00ED00E01FB506481E
:1001F0006A464FF4007104F013FC9DF80030002BA8
:10020000FDD105B05DF804FB8C3400201FB5064815
:100210006A464FF4007104F003FC9DF80030002B97
:10022000FDD105B05DF804FBE82E00201FB54FF4AA
:1002300000716A46024804F0F3FB05B05DF804FB68
:10024000B0210020F0B58FB0194801A905F04EFB90
:100250009DF80460002EFDD1164F174D2422314623
:1002600005A808F06DFCFB6D069305AC0FCC0FC51F
:100270000FCC0FC523682B60104B0A211A46013999
:10028000C3E90066C3E90266C3E90466C3E906661A
:10029000C3E9086603F12803F1D101231360FB6869
:1002A00003EBD3735B10C2E90231BB6B5360FEE713
:1002B0002C340020F42C0020B8270020582D0020DA
:1002C0002DE9F04F2DED088BBBB002A9A648A74C35
:1002D00005F00CFB02A9A64805F008FBA54802A9F9
:1002E00005F004FBE36B03EBD3735B100BEE103AEA
:1002F0009DF80830002BFDD19F4D02AF00239F4891
:1003000000971A46194604F097FA9DF80880B8F14C
:10031000000FFCD12E68012EF0D106A9984806F0F6
:1003200044FA2269A3699648D31A4146424606F028
:100330000FF92269A36992483146924ED31A424678
:1003400006F006F933688E48013B1946424606F02E
:10035000FFF830686269CDF86880411ECDE91D184C
:10036000CDE92518CDE9311821912D91E968530087
:10037000521A871F1C93520023691F9734920F272C
:10038000A269229714265F1D0338CDE92336CDE9F3
:1003900027369A1ACDE9297620962B902326192004
:1003A000CDE92F361B932C9633922E903593764BB6
:1003B000734E9A68E36B03EBD373A2EB630102EB1A
:1003C0006303CDE937830423369139931AAD294667
:1003D000304608F1010806F0E8F9B8F1080F05F118
:1003E0001005F4D1684DDFF884A12F466FF00106A7
:1003F0001BEE100A07F0B0FE41EC180BDAF85000C3
:1004000057F8488C07F0A8FE55A3D3E9002307F05E
:100410000DFF5E4B002208F033F808F0A9FB41EC19
:10042000190BDAF8500007F097FE4DA3D3E900232B
:1004300007F0FCFE554B002208F022F808F0E8FB1C
:1004400041EC1A0B404607F087FE08EB060B53EC15
:10045000192B8046894651EC180B07F0E7FE02463F
:100460000B464046494607F02BFD804630468946FC
:1004700007F072FE02460B464046494607F020FD53
:1004800008F06EF953EC1A2B804651EC180B07F06C
:10049000CDFE08F065F90136009043463848002249
:1004A000594606F0A0F8032E07F12807A0D1344FD3
:1004B00000262B68022B4DD1DAF8203003EBD373E2
:1004C0005B10D5E90212384605F074FF01360A2E9A
:1004D00005F12805EDD12B4B27491B68DAF85C00A4
:1004E000496891FBF0F1A3F111020A92A3F108020D
:1004F00014200C92A3F120020B9200FB01220D921A
:10050000A3F113020E929A1F1092A3F118020F92F8
:10051000A3F11202A3F10B01A3F117001292DA1F4B
:100520001390CDE91721A3F10C001590144F1191F0
:10053000A3F10E00043B1492169019930AAE002505
:1005400031463846013506F030F9042D06F1100623
:10055000F6D1D1E6032BB9D1DAF85830B1E700BFB4
:100560006E861BF0F921094038220020F42C00206F
:1005700008220020D8210020B8270020B021002028
:10058000DC27002004100020582D00200080664049
:100590002DE9F04786B0224802A905F0A7F99DF899
:1005A0000830002BFDD1DFF880A0DFF8809002AB8F
:1005B000009300231A461946504604F03DF99DF871
:1005C0000880B8F1000FFCD100F050FB404600F06D
:1005D00039FB0746012000F035FB0646022000F0FB
:1005E00031FB0546032000F02DFB02AB0093414692
:1005F000044643464246484603F034FE9DF8081040
:100600000029FDD1074B02AA48461F705E709D70FD
:10061000DC7003F0C9FF9DF80830002BFDD1C6E760
:10062000A4390020B43400208C3400205C34002035
:100630004FF6FF73C340DB0710B5044604D40648E9
:1006400040F2134101F036F8044B012000FA04F4A3
:10065000C3F8FC4010BD00BF089F000000A000468A
:10066000F8B51A4B1A4D1C68E86801341C6007F095
:1006700073FD184B064658690F4607F06DFD164B83
:10068000002207F0D3FD02460B463046394608F0FB
:1006900053F8C8B1114B1A6802B91C60104A1B68A4
:1006A0001268E31AB3EB420F06DD01232B74BDE899
:1006B000F8400520FFF7BCBF934205DDE307F6D500
:1006C000084B2022C3F8FC20F8BD00BFB027002053
:1006D000B8270020F42C00200000E03FD43900208F
:1006E0000010002000A000444FF6FF73C340DB075A
:1006F00010B5044604D4054840F2B53100F0DAFFE5
:10070000034B23449B00186810BD00BF089F0000E6
:1007100060088510BFB5DFF8AC80284F00260023A5
:1007200002AD1A4619460095404604F085F89DF83A
:100730000830002BFDD11A4619460095384603F0C3
:1007400091FD9DF80830002BFDD11D4C0720FFF7CF
:10075000CBFF6378984215D00123E3700720FFF7A1
:10076000C3FFC0B10620FFF7BFFFA0B126706670BF
:100770002A460021384603F017FF9DF80830002B69
:10078000FDD1CCE70620FFF7AFFF237898421CBFCE
:100790000123A370E2E70720FFF7A6FF10B10123B2
:1007A0006370E5E70620FFF79FFF0028DED00123F6
:1007B00004202370FFF73CFFDAE700BF94220020FB
:1007C00090220020682200201F4A2DE9F047D2F82D
:1007D00000A01E4AD2F81090D2F81880D2F820E07B
:1007E000D76BD2F834C0946CC0F81090D2E9106581
:1007F0004FF00309926D8265C0E9059832221921F4
:100800004FF00008C0E90021C0E9078E64214FF0D5
:100810000A0E4FF00208C0E9021AC0E909E8C0E96F
:100820000E17C0F82CE084644FF47A7E1E21EB246E
:10083000C0E90CECC0E91065C0E913144265C2655B
:1008400014220266BDE8F08704100020F42C00207A
:1008500000B58FB00AAB089301220023CDE9063220
:100860000A214FF48072CDE9032119220292064A2F
:100870000192152200920549054A0648059304F0A5
:1008800083FC0FB05DF804FB402F00206C9F00003C
:10089000450200004033002000B58FB00AAB08933A
:1008A00001220023CDE906320A214FF48072CDE9FE
:1008B000032119220292064A01921522009205494B
:1008C000054A0648059304F05FFC0FB05DF804FB91
:1008D000C41C00207A9F0000C1020000C420002038
:1008E0001FB506486A464FF4007104F099F89DF868
:1008F0000030002BFDD105B05DF804FB682200201C
:1009000000B58FB00AAB089301220023CDE906326F
:100910000A214FF48072CDE9032119220292064A7E
:100920000192152200920549054A0648059304F0F4
:100930002BFC0FB05DF804FBC42200208C9F00004C
:1009400015070000C426002000B58FB00AAB08933D
:1009500001220023CDE906320A214FF48072CDE94D
:10096000032119220292064A01921422009205499B
:10097000054A0648059304F007FC0FB05DF804FB38
:10098000B8340020999F000091050000B83800207D
:1009900000B58FB00AAB089301220023CDE90632DF
:1009A0000A214FF48072CDE90321074907480593D6
:1009B0001922CDE9002102920549064A04F0E4FB20
:1009C0000FB05DF804FB00BF08280020082C0020B1
:1009D000A69F0000D901000070B5A2B000F0D2F9C6
:1009E00000F090F900F0B2FA20B1734840F296217D
:1009F00000F060FE002005F0ADFB20B16E4840F233
:100A00009A2100F057FE6D4805F06CFC20B16A4851
:100A100040F29E2100F04EFE684C6FF07F420023B2
:100A20002046C4E9012305F009FC6549204605F08C
:100A3000D3FF0525002301261A4662490095CDE91A
:100A40000156204605F0D5FF00235F49009502229C
:100A5000CDE90156204605F0CCFF05F0A5FB04A822
:100A6000FFF7B2FE01466422584808F05BF8584987
:100A700058481EAA03F02EFD9DF87830002BFDD1BA
:100A8000554956481EAA03F025FD9DF87830002BE5
:100A9000FDD11EAA5249534803F01CFD9DF8782051
:100AA000002AFDD11EABCDE902234F4B0193474CE9
:100AB0004E494F4802230093236804F0B3FF9DF88A
:100AC0007820002AFDD11EABCDE90223494B0193CA
:100AD00002230093A3684849484804F0A3FF9DF807
:100AE0007820002AFDD11EABCDE90223444B0193AF
:100AF0000223009363684349434804F093FF9DF841
:100B00007820002AFDD11EABCDE902233F4B019393
:100B1000022300933E493F48322304F083FF9DF8AF
:100B20007820002AFDD11EABCDE902233A4B019378
:100B30000223009339493A484FF4FA7304F072FFE4
:100B40009DF87820002AFDD1364937481EAB04F0C5
:100B500007F89DF87820002AFDD1344934481EABAF
:100B600003F0FEFF9DF87820002AFDD1314932487C
:100B70001EAB03F0F5FF9DF87820002AFDD11EABD7
:100B80002E492F4803F0ECFF9DF87830002BFDD163
:100B9000FFF7FEFEFFF7D8FEFFF7B2FEFFF758FEA5
:100BA000FFF77AFE1EA802F079FB9DF87830002B43
:100BB000FDD122B070BD00BFB19F0000DC27002036
:100BC00050AA0000BA9F0000D39F0000F42C002020
:100BD000F09F000094220020FD9F00005C34002064
:100BE0000AA00000102F00200D02000018A0000035
:100BF0002C3400202D02000026A00000D821002067
:100C0000ED01000030A00000A4390020C90100005F
:100C10003DA00000082200206106000048A000005E
:100C20003822002053A000006822002064A00000A9
:100C30008C34002075A00000E82E002084A0000065
:100C4000B0210020074A084952F8203052F82020ED
:100C500051F82000A3EB920398422CBF0020012002
:100C6000704700BFD8390020E8390020F0B54FF0B8
:100C700080401E4C1E4F1F4E85B000F005FD002326
:100C800023702378032B06D94FF0804005B0BDE8D0
:100C9000F04000F0E3BC2378174DF95C4FF0804042
:100CA00000F0C2FC0021012369626A4631700A200B
:100CB0006B6004F007FD02236B606A6A23780F49BA
:100CC000DBB241F8232023780D49DBB251F8233001
:100CD0009A4282BF2378DBB241F82320012333708C
:100CE00023780133DBB22370CBE700BFF839002053
:100CF000ACA00000F939002000840140E839002050
:100D0000D839002030B5164D0FCD87B06C460FC4D2
:100D100095E8030084E803001248012100F06AFD11
:100D20001148012100F066FD1048012100F062FD2C
:100D300001214FF48A4000F05DFD0D4B0D4A1A6011
:100D40004FF6FF72DA610C4A1A670C4B0C4A1A65AF
:100D500069464FF0804000F01FFC07B030BD00BF77
:100D600094A00000404105000012040000A204000D
:100D7000008401400000010A0100002A00600E40CA
:100D80000003100013B54FF00111052001F0FEFE25
:100D9000042211460023052001F0BAFF4FF0011193
:100DA000052001F0F3FE052100230422084601F08E
:100DB000AFFF4FF00111052001F0E8FE00230122F2
:100DC0000621052001F0A4FF4FF00111052001F0DC
:100DD000DDFE002301220721052001F099FF0124F7
:100DE000062223461146CDE90044052001F0F2FE1B
:100DF0000722CDE9004423461146052001F0EAFE12
:100E000002B010BD08B5FFF76BFD024B4022C3F8DE
:100E1000242408BD00A0004008B5FFF761FD024B87
:100E20008022C3F8242408BD00A0004008B506F0C5
:100E300093F9064B4FF480621A604FF480221A60D7
:100E4000FFF7CAFD06F095F9002008BD00E100E0BB
:100E50007047000008B50421112001F0ABF80948E3
:100E6000012100F0C7FC0848022101F0A3F807485F
:100E7000022101F09FF80648022101F09BF80020B2
:100E800008BD00BF30253E0002001E000300200008
:100E90000500240008B5224B01225A64214BD3F8E7
:100EA000FC20214B120E12D14AF6E851C3F89011E2
:100EB000D3F8981141F00401C3F89811C3F89021B8
:100EC000D3F8642142F40052C3F8642101E0012AFE
:100ED000F6D0164A136A23F4441343F488131362BA
:100EE000A2F58052D2F8A43143F4F843C2F8A431F9
:100EF00005F012FE00F040F805F0ACFD05F0CEFD67
:100F000005F0F6FDFFF7A6FF05F0BAFD00F028F8A2
:100F100006F0ECFE02F030F9BDE8084002F03EB900
:100F200000000E400081E00F00300E4000400E40F7
:100F300002F058B900F004B805F0B8BE7047704729
:100F4000014800F0DFB900BFB0A0000008B50422DE
:100F500001230F21032001F0DBFE002008BD00006B
:100F600008B50448012100F045FCBDE80840FFF742
:100F70006FBF00BF00350A000148012100F03ABCF4
:100F800000350A002DE9F0411A4E044688461746FE
:100F90000FCE86B06D460FC596E8030085E80300C6
:100FA00015482568012100F025FC6068012100F04A
:100FB00021FC617B207B0023042201F0A9FE617AE1
:100FC000207A0023042201F0A3FE28466946CDF8CA
:100FD0000880ADF8107001F0DDFF237CA27B1B06BA
:100FE00043EA0223AB6700200A236B6706B0BDE823
:100FF000F08100BFC8A0000000350A0070B5066887
:101000000C468D18AC4201D1002070BD14F8011BB4
:10101000304602F019F8F5E7026813699B06FCD523
:101020007047000013B5044605F040FF247B002301
:101030000122CDE900326400034AB0FBF4F1034819
:1010400005F096FE02B010BD51100000FC390020E2
:10105000024B4FF40052C3F8A820704700A0004094
:1010600073B50F4B0F4E4FF48045C3F89C500446A8
:10107000407B06F081F8042302220DF10601304680
:10108000ADF80630FFF7BAFF3046FFF7C5FFA07B8B
:1010900006F072F8044B0020C3F89C5002B070BDFB
:1010A00000A000460C10002000A0004438B5044603
:1010B00001211248124D00F09DFBA1681148002249
:1010C000FFF760FF002304220E21032001F020FE21
:1010D000002304220D21032001F01AFE94E80F00E2
:1010E00085E80F00084B012220461A70FFF79AFF8F
:1010F0002046FFF7B5FF002038BD00BF00350A00CD
:10110000183A00200C100020143A00202DE9F74F67
:101110000688DFF8A4B0984603795E43254B144651
:101120004FF48042C3F89C200134A4B20546407BB2
:101130000F4606F021F8230243F001031E48ADF8E4
:10114000063002220DF106010134FFF757FF240299
:10115000F610A4B24FF0000908F1FF3AC1450ED1D4
:101160001548FFF759FFA87B06F006F8134B4FF41C
:1011700080420020C3F89C2003B0BDE8F08F3946C0
:1011800032465846FFF73AFFCA4514BF44F0FF0302
:101190004FF6FF7302220DF10601584604F58074E4
:1011A000ADF806303744FFF729FF09F10109A4B271
:1011B000D4E700BF00A000460C10002000A00044AF
:1011C000034B04481B78002B08BF0020704700BF6A
:1011D000143A0020183A00201FB5054B0FCB6C467F
:1011E00084E80F002046FFF761FF04B010BD00BF88
:1011F000E0A00000FEE7000008B500F069F8064B2B
:101200000649074A8B4201D3FEF7A4FF52F8040BAC
:1012100043F8040BF6E700BF001000204011002047
:1012200010B1000000487047005A6202104AD2F81C
:10123000943003F00703023B032B13D8DFE803F0DD
:101240000C14020E0B4B1B68D2F80001C0F30420F3
:101250000130B3FBF0F07047074BF4E7074B1B6816
:101260005B08F1E7054BEEE74FF40043ECE700BF06
:1012700000400E402C1000202410002028100020D8
:1012800008B5FFF7D3FF054BD3F80831C3F30823A4
:101290000133B0FBF3F0024B186008BD00400E4074
:1012A00020100020014B1868704700BF2410002058
:1012B000054B1860054BD3F8943003F00703022B5D
:1012C00001D1FFF7DDBF70472410002000400E4021
:1012D000044B054A9A60D3F8882042F47002C3F8A0
:1012E0008820704700ED00E0000000004FF400404F
:1012F00070474FF47A707047014B1868704700BF11
:101300002C100020D0E900031847000038B50D4626
:10131000044618B3012824D0022825D0032826D05B
:1013200004280ED0052825D0831F012B09D90828B1
:1013300023D0092823D00A2803D10723EB40DB0759
:1013400004D410484FF4797100F0B4F930200E4BFA
:101350000121444301FA05F51D5138BD40F2FF3328
:10136000ECE74FF6C073E9E740F6FF73E6E74FF4AA
:101370007F43E3E74FF6FF73E0E70F23DEE74FF429
:101380004043DBE7089F00000CA0004438B50D4641
:10139000044618B3012824D0022825D0032826D0DB
:1013A00004280ED0052825D0831F012B09D9082831
:1013B00023D0092823D00A2803D10723EB40DB07D9
:1013C00004D4104840F2134100F074F930200E4B61
:1013D0000121444301FA05F51D5138BD40F2FF33A8
:1013E000ECE74FF6C073E9E740F6FF73E6E74FF42A
:1013F0007F43E3E74FF6FF73E0E70F23DEE74FF4A9
:101400004043DBE7089F00000CA0004610B5012117
:101410000446094800F0EEF90848012100F0EAF915
:10142000A37820786178B3FA83F35B09042201F092
:101430006FFC002010BD00BF4041050000350A00D0
:101440000346007859789B780BB9FFF75FBFFFF729
:101450009DBF0346007859789B780BB9FFF796BF7C
:10146000FFF754BF38B5047845782CB3012C26D04B
:10147000022C27D0032C28D0042C0ED0052C27D0EA
:10148000A31F012B09D9082C25D0092C25D00A2C03
:1014900003D10723EB40DB0704D4114840F22E416F
:1014A00000F008F93022544304F18044012304F58C
:1014B0002044AB40A36138BD40F2FF33EAE74FF66A
:1014C000C073E7E740F6FF73E4E74FF47F43E1E7DB
:1014D0004FF6FF73DEE70F23DCE74FF44043D9E715
:1014E000089F000070B504784578064654B3012C77
:1014F0002BD0022C2CD0032C2DD0042C0ED0052C5C
:101500002CD0A31F012B09D9082C2AD0092C2AD0B2
:101510000A2C03D10723EB40DB0704D4134840F225
:10152000FE3100F0C7F830235C43114B234405EB38
:10153000C305AD00B3782868C0B213B9B0FA80F023
:10154000400970BD40F2FF33E5E74FF6C073E2E7B4
:1015500040F6FF73DFE74FF47F43DCE74FF6FF739E
:10156000D9E70F23D7E74FF44043D4E7089F0000A3
:101570000CA0100270B505460E46144600F0ACFEF5
:10158000296881EA040202EA06044C402C60BDE8A6
:10159000704000F0A5BE0000B0F1804F38B50446A1
:1015A0000D4606D01D4B984203D01D48A22100F0E5
:1015B00081F82B693F2B03D91948B62100F07AF83E
:1015C000EB683F2B03D91648B72100F073F86B681E
:1015D0003F2B03D91248B82100F06CF86B682A78C9
:1015E0001B0643EAC27343F400432360EA682B7A84
:1015F00043EA0243A3622A696B7A43EA0243E36245
:10160000AA7A084B43EA0273636004F1424404F58A
:10161000801464012B7D236038BD00BF00040040AE
:10162000F0A0000000FD0004B0F1804F13B50A46A1
:10163000044608D0074B984205D001910648F52191
:1016400000F038F8019AFF21201D02B0BDE81040DB
:10165000FFF790BF00040040F0A00000B0F1804F01
:1016600010B5044607D0064B984204D0054840F216
:101670001B1100F01FF8236823F00103236010BD45
:1016800000040040F0A00000B0F1804F10B5044607
:1016900007D0064B984204D005484FF49C7100F0E7
:1016A00009F8236843F00103236010BD00040040E3
:1016B000F0A00000FEE700000C4B984210D90C4B44
:1016C000984210D9022201230A490B640A49D1F831
:1016D000003123F0807343EA0263C1F800317047A0
:1016E00000221346F0E70122FBE700BF0048E801B3
:1016F0000090D0030000C84300400E4038B5114BA5
:101700005B68114B00221C46C9B21D798D4202D183
:101710001D68854212D20132052A03F10803F4D173
:101720000A4841F29E31FFF7C5FF032205494B6885
:1017300023F0407343EA02634B6038BD04EBC202FE
:101740005279F3E700000E404CA2000054A10000C3
:101750001F2810B5044604D9034840F22F11FFF7A3
:10176000A9FF0120A04010BDB7A1000038B5074C6B
:1017700041F67133256C2364FFF754FD0021FFF718
:10178000BDFF0DB10023236438BD00BF00000E4033
:10179000044BDB6B5B0604D4034AD2F8C830002B41
:1017A000FBD1704700300E400000C64308B5FFF77C
:1017B000EFFF024B5868C0F3014008BD00300E40F7
:1017C000044BD3F84421D20703D4D3F8402110426C
:1017D000FBD1704700400E4038B5054C41F67133DF
:1017E000256C2364FFF78AFF0DB10023236438BD05
:1017F00000000E4038B5C0F30323013B092B24D869
:10180000DFE803F02A2D2323051619231C20154C8D
:101810000023C0F3043513B11846FFF7D1FF04F1DC
:10182000424404F5801405EBC404A400216038BDD3
:101830000D4C0123EDE70D4C1023EAE70C4C4FF45F
:101840008033E6E70B4C0023E3E7BDE838400A4865
:1018500041F63B11FFF72EBF084C0023D9E7084C97
:101860000023D6E7B0400E40E0400E40E8400E4076
:10187000F0400E4050410E4054A1000000400E4088
:10188000C0400E4008B5C0F30313013B092B60D8DC
:10189000DFE803F0050B0F195F5F1F233C532E4B4E
:1018A000D3F80001C0F3042008BD2B4BD3F814017A
:1018B000F8E7294BD3F80001C0F300600130FFF7CF
:1018C00047FF0138F0E7244BD3F80C01C0F30820A0
:1018D000EAE7214BD3F80801F8E7204B984209D0FA
:1018E0001F4B98420CD041F6DF211E48FFF7E2FE65
:1018F0000020D9E7184BD3F8200100F00F00DEE7F5
:10190000154BD3F82001C0F30110D8E7164B9842CD
:1019100008D003F5B01303F58053984206D041F682
:101920000331E2E70C4BD3F82801ECE70A4BD3F87C
:101930002801C0F301200430C1E70C4B984205D1C7
:10194000054BD3F8300100F00300ADE741F612314A
:10195000CBE741F63731C8E700400E40800616005D
:1019600080162E0054A1000090171A00A009140040
:1019700008B5FFF787FF013008BD000000F00F0039
:10198000013808B5072844D8DFE800F0040F1943F0
:10199000232D4335264BD3F8943003F00703023B45
:1019A000052B3DD8234AD05C08BD214BD3F88030AD
:1019B00003F00703013B032B34D81F4AF3E71C4B0A
:1019C000D3F8843003F00703013B032B2AD81B4ACA
:1019D000E9E7174BD3F8883003F00703013B032BEB
:1019E00020D8174ADFE7124B1B6F13F0010F0CBF13
:1019F00007200920D8E70E4BD3F85C3103F0300301
:101A0000202B11D0302B11D0102B14BF0120072018
:101A1000CAE70C4841F68B61FFF74CFE0020C3E794
:101A20000520C1E70120BFE70420BDE70820BBE790
:101A300000400E401DA2000023A2000027A20000CB
:101A400023A2000054A1000038B52C4B9842054653
:101A50000AD02B4B984207D02A4B984204D02A48F0
:101A600041F29E41FFF726FE2846FFF787FF234BF2
:101A70009D42044611D0224B9D4212D0214B9D42E3
:101A800013D1224BD3F8804004F00704042C2DD846
:101A9000DFE804F02A11151D19001C4BD3F884400F
:101AA000F2E71A4BD3F88840EEE7174841F2CD41F0
:101AB000FFF700FEEAE7BDE83840FFF717BCBDE8D6
:101AC0003840FFF719BCBDE83840FFF712BCFFF7FC
:101AD000ADFB0E4B0446D3F80001C0F300600130AB
:101AE000FFF736FEB4FBF0F4204638BD064841F25D
:101AF0001F51FFF7DFFD0024F6E700BF03002000C1
:101B00000500240002001E0054A1000000400E4009
:101B100038B500F47813B3F5B01F05467FD02ED842
:101B2000B3F5402F69D011D8B3F5802F54D006D823
:101B300043B1B3F5003F5AD041F66B211AE0B3F53B
:101B4000202FF9D1BDE83840FFF770BBB3F5801FF7
:101B500000F0A280B3F5A01F57D0B3F5602FEBD1F2
:101B60005B48FFF70BFF072800F096800928E9D0B3
:101B70004FF493515748FFF79DFD002036E0B3F531
:101B8000381F5AD013D8B3F5001F5FD00AD8B3F569
:101B9000D01F5DD0B3F5F01FCED14F48BDE838401F
:101BA000FFF752BFB3F5101FC6D14C48F6E7B3F5A7
:101BB000481F57D0B3F5781F00F08280B3F5401F5F
:101BC000BAD14748FFF740FF464B0446D3F82801F7
:101BD000C0F3012004302BE0FFF728FB414BD3F882
:101BE0000C31C3F308230133B0FBF3F038BDFFF72A
:101BF0001DFB3C4BD3F80831F3E7FFF717FB394BDC
:101C0000D3F81431C3F30423EDE73448FFF71CFF86
:101C1000344BD3F8303103F00303D840E6E72E48C5
:101C2000FFF712FF2F4B0446D3F8200100F00F00FE
:101C3000FFF78EFDB4FBF0F0D8E72748FFF704FF6D
:101C4000284BD3F82031C3F30113E6E72448A5E776
:101C50002348FFF7F9FE234B0446D3F82801C0F3CD
:101C60000110E5E72048FFF789FE0138072824D84E
:101C700001A353F820F000BF7B1B0000BB1C000039
:101C8000BB1C00009F1C0000BB1C0000BB1C000014
:101C9000991C0000A71C0000144B1868A6E7BDE8BB
:101CA0003840FFF7FFBAFFF7C1FA0E4BD3F8003107
:101CB000C3F3042303FB000098E741F2972159E79F
:101CC000FFF7B4FA04462846FFF752FEB2E700BF1A
:101CD00006000E0054A1000002001E0005002400B2
:101CE0000300200000400E40B800320030100020F9
:101CF000014B1880704700BF34100020013838B500
:101D00000C46032864D8DFE800F002441A2FB1F52E
:101D1000007F04D3324842F28961FFF7CBFC314A9D
:101D2000C4F30804D2F86838002BFBD12E4A136A9A
:101D300023F4FF7323F001032343136238BD7F298B
:101D400004D9274842F29661FFF7B4FC254A04F013
:101D50007F01D2F86038002BFBD1234B1C6924F0A3
:101D60007F040C431C61E9E77F2904D91C4842F237
:101D7000B161FFF79FFC1B4A04F07F01D2F8643881
:101D8000002BFBD1184B9C6924F07F040C439C6111
:101D9000D4E7154DD5F890305B0704D5104842F2D2
:101DA000C161FFF787FC6B6A23F0300343F0100337
:101DB0006B62C4F3C311CB1C2A6B0C490F2B01EAD5
:101DC000020128BF0F23214341EA03712963B5E7CC
:101DD000BDE83840024842F2DB61FFF76BBC00BF50
:101DE00054A100000020C84300400E4000F8FF0F3F
:101DF000022810B50C4604D0144842F2F361FFF7F4
:101E000059FC134B5B6A13F0300F1BD0202C16D0FB
:101E1000302C17D0B4B10D4842F20E71FFF74AFCD6
:101E20000C4B0B4AD2F8901033EA0101FAD15B0255
:101E30004ABFD2F8A0000120C0F3802010BD4FF4AB
:101E40000003EEE74FF44003EBE700BF54A10000AE
:101E500000400E40FF33E107022808B50CD129B13C
:101E6000094B4FF48060C3F8A80059664AB1BDE839
:101E700008400220FFF7BCBF044842F24471FFF75C
:101E800019FC012008BD00BF00400E4054A1000015
:101E900004282DE9F04704460F4691461FD83D4BD4
:101EA0003D4A13F800A03D4B13F80080F1B93C4BBC
:101EB00033F810301366012303FA08F8D2F8903093
:101EC00013EA080FFAD1B9F1000F5AD00125324AAE
:101ED00005FA0AF5D2F890302B42FBD151E0BDE86B
:101EE000F047304842F2D851FFF7E4BB2E4B0228AE
:101EF00033F8106047D1536A13F0300F43D12B4BA6
:101F0000DB6B5A0504D4274842F2E751FFF7D2FBB6
:101F1000214A536ADB0705D5536A23F0300343F0A7
:101F200010035362224D1C4BA8441E664FEA8808DA
:101F3000D8F80030002BFBD0B9F1000F21D0554468
:101F4000AD002B68002BFCD0022C1AD1CFB1124F60
:101F5000796A11F0010118D0012220212046FFF7F3
:101F60007BFFD7F89C40012200210220FFF790FF61
:101F7000C4F30A010220FFF7C1FE3E662B68002B66
:101F8000FCD0BDE8F0870027CCE72046FFF730FF04
:101F9000E7E700BF2BA2000000400E4030A2000087
:101FA00040A2000054A1000036A2000000300E4004
:101FB0008004F210112838B50C460FD000F00F0045
:101FC0000138072800F2EB80DFE810F024006600FB
:101FD0009A00E9007D00B400E900C200042912D192
:101FE000FFF760F90546A8B10021284600F082FA03
:101FF000023C0A2C45D8DFE804F04A473137444414
:1020000044443D0F4D00052904D1664B1D68664BC5
:102010009D42E9D80025EBE7032005240122114663
:10202000FFF736FFFFF7A2FB0DB1FFF7B1FB5F4BE8
:102030005C67FFF725F90446FFF7F8F8FFF73CFB6C
:10204000FFF7B4FB01462046FFF7C6FB002D5DD12C
:1020500028460121BDE8384000F04CBA5448FFF74B
:102060002BFB02200446D9E75148FFF725FB01244A
:102070000320D3E741F64C71BDE838404D48FFF7E7
:1020800019BB41F65171F7E701200324C6E7002090
:102090000424C3E70724C5E7062933D14548464D44
:1020A00041F69071FFF706FB42484FF4FD51FFF7F0
:1020B00001FBFFF7BBF8FFF7FFFA404B0122C3F823
:1020C0000826032321E006293D4DEDD0013C092CD3
:1020D0002BD801A353F824F0312100000F21000078
:1020E0001D2100002B2100002B210000B320000047
:1020F0002B2100002B2100002B21000009210000D2
:10210000304DE3E72C4DE1E704232B6038BD01227D
:1021100011460020FFF7BCFE0223F6E7012211461C
:102120001046FFF7B5FE0123EFE741F6CB71A3E7B9
:102130000023EAE7072904D0092906D042F2550115
:102140009AE71A4B00221A67E0E7184B0122FAE7D8
:102150004C1E072C1ED8DFE804F0201D1D161D1D87
:102160000F0403221149D1F85C3123F0300343EA14
:102170000213C1F85C31C9E7012211460420FFF7C0
:1021800087FE0122EEE7012211460220FFF780FEC2
:102190000222E7E742F2B3016EE70022E2E742F2F1
:1021A0008A1169E728100020002D310100400E40FF
:1021B0000148E80154A1000080400E400010C843CF
:1021C00088400E4084400E4010B504461120FFF7B1
:1021D000D5FB042804D1274842F27341FFF76AFA7D
:1021E000012200210220FFF753FE63781BB9A37878
:1021F0000BB9E37823B11F4842F2AF41FFF75AFA17
:10220000237C012B04D11B4842F2B641FFF752FA5E
:10221000194A217C536A23F00103022908BF43F0C5
:1022200001035362154B2178C3F8A014637AA18887
:1022300043EAC123D362136BA07A217A03F07F6350
:102240000343E08843EAC02343EAC11303310F2963
:1022500028BF0F2143EA01731363A37B617B1B013A
:1022600043EA0133E17B0B43217B43EA01435363A0
:1022700010BD00BF54A1000000400E400000C84344
:1022800070B505461120FFF779FB022804D10F48ED
:1022900042F23151FFF70EFA0D4E0E4BB26B2C7815
:1022A00013401C436B7844EAC324AB7844EA0364CC
:1022B000EB7844EA0324B36BA34205D0002101224A
:1022C0000846FFF7E5FDB46370BD00BF54A10000F0
:1022D00000400E4080E4FFF8EFF3108072B67047C4
:1022E00000B962B67047EFF31180602383F3118861
:1022F000704780F311887047034B5868C0F308009B
:10230000003818BF0120704700ED00E0EFF31083A4
:10231000DB0706D4EFF311805F2894BF0020012073
:102320007047012070470000034BD86B80F04000DD
:10233000C0F38010704700BF00300E4038B542EA4D
:102340000323B3F5007F05460C463ED019D8B3F5FC
:10235000807F36D00AD883B3012B21D01F4840F6A6
:102360008E11FFF7A7F9002213461FE040F2011279
:102370009342F3D11A4BD3F824321A0EC3F3074316
:1023800014E0B3F5407F24D040F20132934210D0E4
:1023900040F201229342E1D1114BD3F8283202E0FE
:1023A0000F4BD3F82432C3F30722DBB22B60226039
:1023B00038BD0B4BD3F82832DFE7094BD3F81C327A
:1023C000F1E7074BD3F81C32D7E7054BD3F820329F
:1023D000E9E7034BD3F82032CFE700BF74A2000037
:1023E0000081E00F08B5FFF79FFF20B1024AD2F845
:1023F000C830002BFBD108BD0000C6431A4B022891
:1024000010B5D3F830320C4612D0032813D001286F
:1024100014BFDBB2C3F307231B0323F47042ECB9F0
:102420005AB140F61D111148FFF744F9002010BDC4
:10243000C3F30743F0E71B0EEEE70D49CA6E22F423
:1024400070421343CB660120F1E70949D1F8EC2033
:1024500022F470421343C1F8EC30F4E7002AF4D0C0
:1024600040F62911DFE700BF0081E00F74A20000F1
:1024700000300E40F8B504460F46FFF755FF78B31D
:10248000FFF7B0FF174B5B68C3F301439C4227D0B3
:10249000154BD3F80061FEF7C9FE022C05460FD19B
:1024A000124BC6F3042606FB00069E4204D91048D0
:1024B00040F23161FFF7FEF802212846FFF78CF960
:1024C000C4F1020210239340064A13610FB1FFF7D3
:1024D00089FF2CB921462846BDE8F840FFF77CB9B2
:1024E000F8BD00BF00300E4000400E40002D31010D
:1024F00074A2000013B50246FFF716FFC8B152B927
:102500000D4B0191D3F80041FEF790FEC4F3042275
:10251000019902FB0002094B1B7843B1084B9A4218
:1025200005D8022002B0BDE81040FFF7A3BF00208D
:10253000F8E702B010BD00BF00400E402E3A002068
:10254000002D31010378134A002B437870B514BF76
:1025500004260026002B8378946914BF02250025E9
:10256000002B037924F03F0443EA0403C47814BF2A
:1025700008210021012C08BF43F0010333432B4302
:102580000B4393611368417923F4403343EA0143D9
:10259000136070BD00300E40224B4AF6E85210B571
:1025A000596B5A639A6FD207FCD41B6C13F0030368
:1025B0001EBF1D4A0124C2F8B44A834204D110B997
:1025C000194BC3F8B40A10BD032B00D09BB9431EAE
:1025D000012B10D8134A4FF40023D362936FDB070B
:1025E000FCD4136C23F0030343F0010313640D4A7E
:1025F000536A1C03FCD50B4B9A6FD207FCD41A6CA0
:1026000022F0030202431A649A6F12F00102FBD116
:102610000038054C18BF01200129C4F8B40A08BFCE
:102620005A63D0E700300E400000C6432DE9F04F5A
:10263000A0F5E16389B00024B3F5966FCDE90244BB
:10264000CDE90444CDE9064406468A46934605D9B9
:1026500040F6EE215548FFF72DF8A3E0B0F5E16F05
:10266000534B8CBF0122002249D1D3F81832C3F357
:102670000721DBB2079104934FF416754FF4966768
:1026800048E0BBF1000F0ED0D9F85C2022F4FE42E6
:1026900022F00202B6F5E16F42EA012218BF0220E1
:1026A0000243C9F85C20BAF1000F26D02046002171
:1026B000FFF7A4FE044610B940F64B31CAE70121EA
:1026C0004046FFF79BFE044610B940F65331C1E780
:1026D000384A536EBD4238BF3D4623F4FF73E72DA1
:1026E00023F0010328BFE725B6F5E16F18BF43F0DB
:1026F000010343EA4503536654E0012452E0D3F852
:102700001832190EC3F30743079104934FF49665EB
:102710004FF4E167DFF89C90D9F84C400192C4F384
:102720000174234605A902A8FFF708FED9F8EC308A
:10273000019AC3F30128434606A903A8FFF7FEFD4B
:10274000049BF01B079FF91A4143B1FBF5F299185E
:102750002CBF012300238F421ED3EBB9069A039F9F
:10276000D31B4343B3FBF5F3FF182CBF0123002316
:10277000BA4211D383B9059B029AA3EB020C00FB6A
:102780000CF0B0FBF5F555192CBF01200020AB4231
:1027900002D300283FF475AF044840F63C31FEF701
:1027A00089FF0024204609B0BDE8F08F74A2000024
:1027B0000081E00F00300E40334A08B5136FD16C32
:1027C00011F0010F03F0060344D0002B42D0132870
:1027D00057D9143813288CBF102308232A49013BEA
:1027E000CA6C180322F47F4240EA03231343CB64EC
:1027F000264BCA6C1B88C2F303222833013202EB3A
:10280000820003EB5303B3FBF0F3C86C013B072BCF
:1028100028BF072320F0EE6040EA036343F48013EF
:10282000CB641B4BB3F90030002B12DB03F1280003
:10283000C0F34E030344500800EB4202B3FBF2F234
:102840000B6D072A28BF072223F0700343EA021208
:102850000A6508BDD16C01F00101194304D10928B2
:102860000FD90A380928B6E7D26CD20702D50BB9BE
:102870002728B0E7074840F69131FEF71BFF0023F9
:10288000ACE70423AAE700BF00300E402A3A00203C
:102890002C3A002074A200000C4BD3F8803910B5FC
:1028A000044633B9012804D9094840F6AF31FEF790
:1028B00001FF084A136F23F0070323431367064BF6
:1028C000BDE810401888FFF777BF00BF0000C6437F
:1028D00074A2000000300E40283A002038B55A4B50
:1028E00002229A639B6B03F00F039342044607D0C6
:1028F000564840F64B21FEF7DDFE0025284638BD40
:102900000389C82B04D9514840F65521FEF7D2FE61
:10291000A28823899A4204D94C4840F65621FEF7F2
:10292000C9FEB4F90C30C82B04DD484840F65721E5
:10293000FEF7C0FE6378012B55D1A388C82B04D9BC
:1029400040F65B214148FEF7B5FEE28842F2107383
:102950009A4204D93D4840F66821FEF7ABFEE38871
:102960004A2B48D9B3F5FA7F47D340F6C3129342B6
:1029700094BF4FF000524FF040523349B4F90C006D
:10298000CB6C23F0405323F001030028A8BF43F091
:1029900001031343CB64D1F8EC30A28843F44073B5
:1029A000C1F8EC302A4B1A80CB6E43F08073CB66B3
:1029B000284BD3F8800900B10420FFF76DFF264BA8
:1029C00021891980254BB4F90C20A0881A80FFF7C3
:1029D000F3FEA37BA3B1012B22D01C4840F6CE010D
:1029E000FEF768FE0FE0022BAFD1A3880A2BACD90B
:1029F0004FF42661A6E70022BFE74FF08052BCE704
:102A0000114B174A9A65012260881146FFF70EFEA6
:102A1000054640B90D4840F69F21FEF74BFE6DE795
:102A2000094B104AEEE7084AD36B43F48063D36343
:102A30006078FFF7B1FDA37AA3F12002534253411E
:102A4000044AC2F8943759E700300E4074A20000DF
:102A5000283A00200000C6432A3A00202C3A0020E1
:102A600077402057372110B738B50D46044618B3C4
:102A7000012824D0022825D0032826D004280ED0EF
:102A8000052825D0831F012B09D9082823D0092820
:102A900023D00A2803D10723EB40DB0704D41048D6
:102AA00040F21341FEF706FE30200E4B0121444355
:102AB00001FA05F51D5138BD40F2FF33ECE74FF642
:102AC000C073E9E740F6FF73E6E74FF47F43E3E7BF
:102AD0004FF6FF73E0E70F23DEE74FF44043DBE7F9
:102AE000089F00000CA0004638B50D46044618B3F8
:102AF000012824D0022825D0032826D004280ED06F
:102B0000052825D0831F012B09D9082823D009289F
:102B100023D00A2803D10723EB40DB0704D4104855
:102B20004FF47971FEF7C6FD30200E4B012144436E
:102B300001FA05F51D5138BD40F2FF33ECE74FF6C1
:102B4000C073E9E740F6FF73E6E74FF47F43E3E73E
:102B50004FF6FF73E0E70F23DEE74FF44043DBE778
:102B6000089F00000CA0004470B505460E461446B0
:102B7000FFF7B2FB296881EA040202EA06044C402E
:102B80002C60BDE87040FFF7ABBB0000032838B5F0
:102B900004460D4607D9042808D0052803D0A0F123
:102BA0000803022B02D835F0011303D008487D2119
:102BB000FEF780FD3020604300F180402A464FF050
:102BC0000111BDE8384000F52040FFF7CDBF00BF40
:102BD000D7A200002DE9F0410E4615461F460446D7
:102BE00000285FD0012860D0022861D0032862D07D
:102BF00004280ED0052861D0831F012B09D908288D
:102C00005FD009285FD00A2803D10720F040C3070E
:102C100003D43748BF21FEF74DFD86EA050333F0A4
:102C2000030303D03248C121FEF744FD072D06F00F
:102C300003064FF00F0149D84FEA85082D4804FAE2
:102C400008F201FA08F1FFF78FFF03212A4806FA7C
:102C500008F201FA08F1FFF787FF1F2D03D9274873
:102C60009121FEF727FD264C2C44A4001F2D276040
:102C700003D922489121FEF71DFD9DF81830C4F8B4
:102C80008030204A0123AB401F2DC2F8243403D9E1
:102C90001A489121FEF70EFD9DF81C30C4F8003350
:102CA000BDE8F08140F2FF30B0E74FF6C070ADE70D
:102CB00040F6FF70AAE74FF47F40A7E74FF6FF709A
:102CC000A4E70F20A2E74FF440409FE7A5F10808D2
:102CD0004FEA88080C4804FA08F201FA08F1FFF7F5
:102CE00043FF0321094806FA08F201FA08F1B2E7A6
:102CF000D7A2000000A4004008A400403BA30000AD
:102D00008020851000A0004004A400400CA40040D6
:102D1000F8B50D4616461F460446D8B301283CD0E8
:102D200002283DD003283ED004280ED005283DD0EF
:102D3000831F012B09D908283BD009283BD00A283A
:102D400003D10723EB40DB0704D4274840F21D11D1
:102D5000FEF7B0FC26B1294620467FB3FFF784FE7C
:102D60003020604300F18040072D00F5204028D836
:102D70004368AA000F21914023EA010306FA02F2F8
:102D80001343436076BB294620463FB3BDE8F84075
:102D9000FFF76ABE40F2FF33D4E74FF6C073D1E7C6
:102DA00040F6FF73CEE74FF47F43CBE74FF6FF7358
:102DB000C8E70F23C6E74FF44043C3E7FFF794FE8D
:102DC000CEE7A5F1080382689B000F21994022EA13
:102DD000010206FA03F313438360D3E7BDE8F8402A
:102DE000FFF782BEF8BD00BFD7A20000022838B5A9
:102DF00004460D4603D911484C21FEF75BFC6B7964
:102E00001F2B03D90D484F21FEF754FCAB786A788D
:102E10009B0143EA82032A781343EA7843EA0213C8
:102E20002A7943EAC2236A7943EA0233AA7904344D
:102E300043EA42432401024A135138BD9EA30000D5
:102E400000200440014B1860704700BF000084421E
:102E5000427801790378002A827870B514BF04267D
:102E60000026002AC27814BF10250025002A4279C6
:102E70004FEA023242EA012242EA0302837914BF96
:102E800020240024002BC37942EA034343EA0603CB
:102E9000027A43EA050314BF4FF4004100212343A3
:102EA000002A14BF4FF4003200220B431343014A9F
:102EB000136070BD0020044070B506460C461546F0
:102EC00022B90D484FF42271FEF7F4FB1CB90B48F0
:102ED000FEF71EFE04460A4B6D00013CB4FBF5F400
:102EE00013EA04234FEA042504D0034840F2A52145
:102EF000FEF7E0FB756170BD02A4000040410500D3
:102F0000070080FF38B51E4B1E4D984204460ED078
:102F1000A8420CD003F50063984208D003F5806303
:102F2000984204D0184840F22E41FEF7C3FB40F609
:102F3000AA63E36041F20502002323606260134A42
:102F4000A3606361E364A26423666367A367E367C6
:102F50000B4B9C4209D0AC4207D003F500639C4266
:102F600003D003F580639C4201D100232365002335
:102F7000AC42A36502D0064A944200D1E36538BD55
:102F8000000001400004014002A40000F9FF01001C
:102F9000000C014038B52A4B984204460D4610D02B
:102FA00003F5806398420CD003F58063984208D003
:102FB00003F58063984204D022484FF45671FEF71F
:102FC00079FB2046FFF79EFFA97B2A8A2368002908
:102FD00042F0010214BF4FF48061002113430B4300
:102FE0002A7D23602368002A14BF4FF0005200227C
:102FF00013432360AB7C1BB1EB7C43F08003A365E0
:103000002B7B43F480536360D5E901122046FFF720
:1030100053FF6B7B0BB11023E3606B7D1BB1236807
:1030200043F480332360AB7DEA7D1B07120503F078
:10303000E04302F4E002134323662B78E36038BDDB
:103040000000014002A4000003695B06FCD5416357
:10305000704700002DE9F047374FDDE90884064648
:10306000154699468A4641B9082323704FF4D9631F
:10307000A360324B6760E360FEE75AB1531E134210
:1030800008D00823237040F2CB63A3602B4B67600A
:10309000E360FEE7FFF727F9002D08BF04254D4543
:1030A00038BF4D46D6F808E06B1E13EA0E0FC5F187
:1030B000000202EA0E0208BF0025154409F1FF33A1
:1030C000AA4413EA0A0FC9F1000202EA0A0208BF81
:1030D0004FF0000902EB090372680132A2EB0E0106
:1030E000A3EB0E0E7145844615491AD2B8F1000FB4
:1030F00002D09B1AC8F80030162540F22273C4E9AA
:103100000231257067606046FFF7F3F840F2D7633D
:10311000A3600A4B25706760E36000252846BDE880
:10312000F087B360002323704FF4E563C4E90231F4
:103130006760FFF7DEF8F1E767A40000F6A400007F
:10314000DEA4000030B50C4685B011461D461BB903
:10315000039200F019F803990648019500230093A3
:1031600004220123002C18BF2046FFF773FF05B08F
:1031700030BD00BF38100020024B00221A6002F060
:10318000A1BD00BF305E0020FEE702F0B3BD00002D
:10319000014B1860704700BF305E00201FB5104B18
:1031A0001B78012B07D1FFF7A7F8B0B94FF0FF301C
:1031B00005B05DF804FB684600F06CF99DF800105E
:1031C0000029F3D101206A4600F0F2FD9DF80000CD
:1031D000003818BF01204042EAE76FF00500E7E73A
:1031E000DC6200201FB5FFF787F848B9074B1B7852
:1031F000012B02D0684600F051F84FF0FF3001E09B
:103200006FF0050005B05DF804FB00BFDC62002034
:10321000704700002DE9F041044608B9FFF7B4FFFC
:10322000FFF76AF8194E1A4D074638B1202323706C
:1032300040F21933C4E902356660FEE7154B1B788E
:10324000012B08D002232370666040F21D33C4E9CD
:103250000235BDE8F081DFF8408098F80030F92BA6
:1032600005D91E232370666040F22233EFE7FFF793
:103270003AF898F80030013388F80030FFF739F851
:103280002770666040F22D33E1E700BF10A5000013
:1032900018A60000DC620020DD62002070B5044644
:1032A00008B9FFF771FF264B1E78012E09D01323B2
:1032B0002370244B636040F2F633A360224BE3603B
:1032C000FEE7224B1B88022B09D8092323701D4BD4
:1032D000636040F20143A3601B4BE360FEE71C4DBB
:1032E0002B784BB11F232370164B636040F20443CD
:1032F000A360154BE360FEE7FFF708F848B11F2312
:103300002370104B636040F20743A3600E4BE360F1
:10331000FEE701F053FA0F4B0F4A18700F4B2E7057
:1033200018700C2358430E4B1B5813600D4A136042
:1033300001F0F2FC02F004FDBDE87040FFF724BF8D
:10334000BE5F002010A50000EDA50000F86300207E
:10335000DC620020D35F0020EC630020D25F0020FD
:10336000DC5F0020E863002008B501F027FAA0F137
:1033700040035842584108BD30B14368C1F8E830B5
:103380008368DB68C361704791F83030022B03D04B
:10339000072B05D0034B00E0034BC1F8E830704722
:1033A000024BFAE793A5000083A500008AA5000060
:1033B000044BC1F8E83018B1826802B1D368C36128
:1033C000704700BF93A500000023C0E900330381CC
:1033D0007047036810B533B901220281C1E909338E
:1033E000016041601CE0028991F8334001320281A2
:1033F00093F83320A2420CD85B6A002BF8D14B62C1
:1034000043688B625962ECE7C1E909325162996203
:1034100006E09A6A002AF7D1C1E90932996201608F
:1034200010BDC36A5BB19A68526A4AB9C3E9022205
:103430001A8A013A1A820023C0E90933C36270472D
:10344000D0E9092111B991629A60F1E74A620AB99B
:10345000D960EDE79162EBE738B5C56AAB685B6AA6
:103460004BB1FFF7DEFFC562014605F10800BDE87C
:103470003840FFF7AEBF38BD054B40220021013A6E
:10348000C3E90011198103F10C03F8D1704700BFA3
:10349000DC5F0020F8B5044608B9FFF775FE964DCD
:1034A0006A68D2B12B68954E4BB92346296B944874
:1034B0009200FFF747FE306023780BB1F8BD336010
:1034C000904B32681A60904A6B6813608F49904A3B
:1034D0009B0013600A6813440B602A89B2B123462B
:1034E000296B8C481201FFF72DFE8B4B1860237857
:1034F000002BE3D1894B8A4A18602B8913808349BA
:10350000884A1B0113600A6813440B606A69002A29
:1035100027D02B69844E002B62D12346296B834828
:103520009200FFF70FFE30602378002BC6D1804B4E
:103530002A7E1A707F4BEA691A607F4B32681A60E4
:103540006B69EA6864215A43B2FBF1F27B490A6075
:103550007B4A6E4913607B4A9B0013600A681344E0
:103560000B606A6A002A28D02B6A774E002B39D16B
:103570002346296B75489200FFF7E4FD30602378FD
:10358000002B9BD1724B95F828201A70714B326832
:103590001A606B6AEA6864215A43B2FBF1F26E4921
:1035A0000A606E4AE96A13606D4A9B0013606D4AB7
:1035B000116056490A6813440B606B4E6B6B3360A5
:1035C00002F06AFC03F072FB054668B10123237028
:1035D000664B63604FF4D773A360654BE3606DE7A0
:1035E0003360A4E73360CDE703F060FC33689842B2
:1035F00009D2092323705D4B63604FF4D973A36034
:103600005B4BE360FEE703F051FC3368594F98428F
:1036100040F0D8803D603268B2F57A7F07D9002348
:103620000020012105F0C4F84FF47A754543524B50
:10363000524A1D6000231370514A1370514A13609F
:10364000514A1360514A1370514A1370514A20462F
:10365000137002F025F80A23B0FBF3F04E4B18600C
:103660002578002D7FF42AAF274A136853B12549E6
:10367000086838B10146013B41F8045BFBD1116891
:1036800001F078FD454B00251D7001F08FF8FFF724
:10369000F3FE434B1D60434B1D80214B1B88002BC9
:1036A00040F09C80404A00231360404A1380404A07
:1036B0001360404A1380404A1360404A20461380FA
:1036C00001F0D4FC2378002B7FF4F8AE204601F003
:1036D000EFFA2378002B7FF4F1AE204602F028FAAF
:1036E0002378002B7FF4EAAE00F018FCFFF790FD82
:1036F000334B01221A70E1E64C100020385E0020A6
:1037000095A500003C5E0020405E0020345E002055
:10371000445E0020A8A50000485E00204C5E00200A
:10372000505E0020545E0020605E0020BAA50000BC
:10373000585E00205C5E0020645E0020685E002011
:103740006C5E0020705E0020805E0020D3A500002B
:10375000785E0020845E0020885E00208C5E002061
:10376000905E00207C5E0020745E002010A50000AA
:1037700024A60000985E0020945E0020DC620020F9
:10378000DD620020E8630020EC630020D25F0020AF
:10379000D35F0020E4620020E0620020FA63002092
:1037A000B85F0020BC5F0020CC5F0020D05F00200D
:1037B000D45F0020D85F0020E8620020EC62002087
:1037C000BE5F002003F072FB2B4602460121002061
:1037D00004F0EEFF3368584338601CE7204600F0E1
:1037E000E9FC2378002B3FF45DAF67E690F83330B7
:1037F0000B490C22534330B5CA58CC1832B90125B5
:103800002581C0E90422C850606030BD258901359A
:1038100025810024026144615061C850F5E700BF72
:10382000DC5F002090F833200B490C235A4330B55D
:103830008C588B1834B901251D81C0E90444885087
:10384000586030BD1A8901321A81002202615A681B
:1038500042611061F4E700BFDC5F002010B5044650
:1038600090F8330000F0BAFF084B94F833201B782F
:103870009A42204606D1FFF7D5FF2046BDE810400A
:1038800004F051BAFFF7B2FFF7E700BFD25F0020A4
:1038900038B50C4691F8321007290546049807D828
:1038A0000239052906D8DFE801F0060605052525B9
:1038B000FF293AD138BD6267A4F87830606415B149
:1038C0002046FFF7AEFD21462846FFF771FD94F82C
:1038D0003230032B06D104F1540003F021FA08B171
:1038E000FFF752FC2046FFF7B9FF0023238684F838
:1038F0003230DFE76267A4F87830606415B12046A3
:10390000FFF78FFD21462846FFF752FD94F832302D
:10391000072B06D104F1540003F002FA08B1FFF7B7
:1039200033FC002323860423E1E7BDE83840FFF79A
:103930002BBCD0E90032934210B50FD01C69002196
:10394000A24215BF6161C3E90412C3E90412C2E9CE
:10395000043116BF136102600460436010BD0000B3
:1039600070B50446D4E9043590F83300124A0C21AE
:10397000BDB973B94143551853502B816B6000F0AA
:1039800043FF0023C4E904332046BDE8704004F03F
:10399000E0B9484316183189013931815D6113500E
:1039A000EFE701FB00221189013911812B610BB96D
:1039B0005560E6E75D61E4E7DC5F002013B504468F
:1039C00070B1084B1B78012B0AD10023CDE90033DD
:1039D000054A016F0346054803F000FA044B1C60DA
:1039E00002B010BDE4620020913C0000A05E002007
:1039F0009C5E0020F8B50446A8B1114B1B78012B42
:103A000011D1C56E0F4E7DB90F4B1F6803F04EFAF2
:103A100032682B46511E0D461946E7FB00512846D9
:103A200004F0C6FE2067F8BD03F040FA32680023B8
:103A3000511E0E461946E5FB00613046F0E700BF17
:103A4000E4620020745E0020E06200202DE9F7436C
:103A50005E4B1B78012B00D0FEE75D4B93F8008096
:103A6000B8F1000F40F09680FEF73DFC594F5A4CDC
:103A700097F80090594D064600F0A0FE40280346F6
:103A8000387000F08A800C20DFF85C814343B9F184
:103A9000400F58F80330236003D101F02FFAAFF341
:103AA000008022682B68DFF844919A4218D10020E8
:103AB00001F04CFB012802D0286802F00BFA99F8BB
:103AC00000303BB12068036F0BB9FFF793FF20680C
:103AD000FFF774FF304603B0BDE8F043FEF709BCC2
:103AE00099F800301BB3DFF80891D9F800301B6F4C
:103AF000EBB13B4801A903F095F930B9D9F8003092
:103B0000019A37481A6703F00BF9D9F800301A6F99
:103B10006AB993F8330000EB400008EB8000FFF730
:103B200008FF3B780C22534358F803302360226887
:103B3000D2F8BC300133C2F8BC302A4A13680133D2
:103B400013603B78402B33D02B682268934215D00A
:103B5000A3B102F0CFF82B68D3F8C43098421FD33A
:103B600002F0C8F82B68D3F8C430C01A2A68D2F81B
:103B7000C830C2F8C0001844C2F8C800246802F077
:103B8000B9F8C4F8C40002F01AF93046FEF7B1FBE8
:103B9000BFF36F8F03B0BDE8F083C4F80080CCE7BB
:103BA00002F0A8F82B68D3F8C420D2431044DDE714
:103BB00001F09CF92C681CB102F09CF8C4F8C40018
:103BC00003F050FFAFF30080DDE700BFDC620020B0
:103BD000DD620020D35F0020EC630020E86300205A
:103BE000A05E0020F0630020DC5F0020E462002083
:103BF0009C5E00202DE9F041044608B9FFF7C4FAA5
:103C0000FEF77AFB1E4F1F4E38B12023237040F27F
:103C10004533C4E902366760FEE71B4B1B78012B76
:103C200008D002232370676040F24933C4E90236AA
:103C3000BDE8F081DFF8548098F800302BB91F23DD
:103C40002370676040F24E33F0E7FEF74CFB98F8C4
:103C50000050013DEDB288F800503DB1FEF749FB40
:103C60002D232370676040F25633DFE7FEF741FBF8
:103C7000FFF7ECFE257067604FF45873D6E700BF7E
:103C800010A500000AA60000DC620020DD62002012
:103C900038B50E4B1B78012B0D4616D1FEF723FBD2
:103CA00000232B670A4B1B6893F8333004460948FE
:103CB00003EB430300EB8300FFF73BFE2046FEF7D8
:103CC00018FBBDE83840FFF7C1BE38BDE4620020F4
:103CD0009C5E0020DC5F0020F8B50C46FEF703FB7D
:103CE00094F83230013B0746062B48D8DFE803F052
:103CF000544704475B47040094F83030042B08BF56
:103D0000E36A4FF0000608BF5D6A6667A4F8786052
:103D100018BF354601F0EEFF60642046FFF781FBD7
:103D200094F83230032B31D1FFF798FD84F83260DC
:103D30004FF44073238615B395F8333095F834204B
:103D40009A421CD094F833209A4218D1284600F0A9
:103D50001DFC95F83430834228BF0346D9B295F84C
:103D600033308B420BD0284601F042FB284603F04B
:103D7000A5FB95F8332001462E2003F04DFD384673
:103D8000FEF7B7FABDE8F840FFF760BE072B04BFA7
:103D9000042384F83230CBE7002384F83230204605
:103DA000FFF75CFDEBE7042384F83230E7E700001F
:103DB0002DE9F04105460E4614460AB9FFF7E4F92D
:103DC000002323701E4B636040F27D33A3601D4BC4
:103DD000E360FEF788FADFF880800746E6B1C8F8AE
:103DE0000060194B012D1A781FD0012A0FD1174CF2
:103DF00017482168002570311D7003F013F808B1D1
:103E000023681D67124802F08BFF002323603846A9
:103E1000BDE8F041FEF76DBA204601F041FC0A23EF
:103E2000B0FBF3F0C8F80000DBE7002AEFD1094C43
:103E30001D702068FFF7DEFD2068FFF7BFFDE6E795
:103E400010A50000F5A50000E46200209C5E0020A3
:103E5000A05E0020E8630020E0620020F7B5044681
:103E60000D4611B303F022F8114B1A680026571EB5
:103E700046F1FF31E5FB00713346384604F098FC0B
:103E8000CDE9006601460B4A234604F1540002F0D6
:103E9000A5FF08B1FFF778F90323204684F83230F4
:103EA00003B0BDE8F040FFF75BBD0223F5E700BFBC
:103EB000745E0020D93C000037B5144D0B46114606
:103EC0002A6882F83030002382F83130104A1278A4
:103ED00004463AB10F4A104812680191136702F084
:103EE0001FFF01992868FFF7B9FF64B1296804F141
:103EF0000800CC62FFF76DFA2968204603B0BDE8E0
:103F00003040FFF739BA2B68DC62F5E7E863002040
:103F1000E46200209C5E0020A05E0020774B1B78AE
:103F200082B0DBB28DF80530754B1B68DBB28DF8C3
:103F30000730744B1B78DBB28DF80530724B1B7861
:103F4000DBB28DF80530714B1B68DBB28DF80730A2
:103F50006F4B1B6ADBB28DF807306E4B1B78DBB200
:103F60008DF805306C4B1B78DBB28DF805306B4B50
:103F70001B88DBB28DF80630694B1B88DBB28DF8ED
:103F80000630684B1B78DBB28DF80530664B1B881A
:103F9000DBB28DF80630654B1B88DBB28DF806303E
:103FA000634B1B88DBB28DF80630624B93F82830E8
:103FB000DBB28DF80730604B1B78DBB28DF8053033
:103FC0005E4B1B88DBB28DF806305D4B1B88DBB285
:103FD0008DF806305B4B1B88DBB28DF806305A4BF0
:103FE0001B88DBB28DF80630584B1B88DBB28DF88E
:103FF0000630574B1B88DBB28DF80630554B5B8D76
:10400000DBB28DF80730544B1B78DBB28DF80530EE
:10401000524B1B88DBB28DF80630514B1B78DBB25C
:104020008DF806304F4B1B6ADBB28DF807304E4BD4
:104030001B78DBB28DF805304C4B1B88DBB28DF85A
:1040400006304B4B1B88DBB28DF80630494B1B68A2
:10405000DBB28DF80730484B1B78DBB28DF80630A9
:10406000464B1B78DBB28DF80530454B1B78DBB235
:104070008DF80530434B1B78DBB28DF80530424B91
:104080001B78DBB28DF80530404B1B78DBB28DF826
:1040900005303F4B1B78DBB28DF805303D4B1B885C
:1040A000DBB28DF806303C4B1B78DBB28DF8053067
:1040B0003A4B1B88DBB28DF80630394B1B88DBB2DC
:1040C0008DF80630374B1B78DBB28DF80530364B58
:1040D0001B88DBB28DF80630344B9B8CDBB28DF83D
:1040E0000730334B1B88DBB28DF806309DF8053066
:1040F0009DF806309DF8073002B070478C10002004
:104100008810002084100020B85E0020901000204D
:10411000BC5E002094100020E45E00209610002079
:10412000981000209A100020A01000209C10002061
:104130009E100020E85E0020A2100020A4100020A5
:10414000A6100020A8100020AA100020AC1000200B
:10415000AE100020185F0020B0100020B210002028
:10416000BC100020485F0020BD100020BE100020C1
:10417000B4100020B8100020C2100020C010002091
:10418000C1100020C6100020C7100020C910002058
:10419000C8100020CA100020CC100020C41000203D
:1041A000CE100020D0100020D2100020705F002020
:1041B000D4100020154BF0B51C68154B1E88002547
:1041C000721E04F1100192B22B46AFB2BA4213D85C
:1041D000110104EB0212635053601381D3600D4A46
:1041E0001381D3809680146003700B4B43605D2372
:1041F00083600A4BC360F0BD41E9041321F8083C19
:1042000041F8043C01351031DFE700BF4C5E00206F
:10421000505E0020C05F00202BA600009DA600007D
:10422000428910B582B1094B01681C680C60416875
:104230001960D988891AD9809988114499800023F6
:10424000C0E9003343818381104610BDC05F002068
:1042500038B504460D461022002104F071FC25817A
:1042600038BD00002DE9F74F0C9C06468A461746DC
:104270001D460CB9FEF788FFFEF73EF848B1202333
:104280002370864B636040F23313A360844BE3607A
:10429000FEE74EB90A232370804B63604FF49B7393
:1042A000A3607F4BE360FEE7C7F30E034BB1082327
:1042B00023707A4B636040F23913A360784BE3605C
:1042C000FEE73268774B9A4209D00C232370734B78
:1042D000636040F23D13A360714BE360FEE73FB2C1
:1042E000002F0CDBFEF712F848B11F2323706B4B35
:1042F00063604FF4A073A360694BE360FEE76A4B11
:1043000093F80090B9F1010F1CD1FDF7ECFF96F87E
:104310002830DFF89CB18046F3B9DBF800307362D7
:1043200086F828900DB1F26A2A609A6B3262404694
:104330009E63FDF7DEFF00232370584B63604FF44C
:10434000AA7305E002232370544B636040F24513C7
:10435000A360534BE36014E0D6F82490DBF8002010
:10436000914521D1FF2BDFF834914D4F0CD1FDF752
:10437000C0FF1E232370C4F8049040F25D13C4E90B
:10438000023703B0BDE8F08F013386F828300DB155
:10439000F36A2B604046FDF7ACFF23232370C4F87B
:1043A000049040F26913EAE7002F0BDAFDF7A1FF52
:1043B0000DB100232B601D232370384B63604FF435
:1043C000BB73C5E7394B1B785BB1FDF792FF0DB1AD
:1043D00000232B602D232370304B63604FF4C17397
:1043E000B6E792F8331099F833308B420BD9484630
:1043F00000F0FEFF484603F061F899F833200146CB
:104400002D2003F009FA524604213046FFF754FDEF
:104410004046FDF76EFFFFF719FBFDF764FFDBF881
:10442000003093F83120032A32D8DFE802F002137B
:10443000271D0DB15B6C2B6000232370174B63604D
:104440004FF4D073A360164BE36003B0BDE8F04FA8
:10445000FDF74FBF0DB15B6C2B60212323700F4B19
:1044600063604FF4D573EDE70DB100232B60222379
:1044700023700A4B63604FF4DA73E3E70DB15B6CB2
:104480002B6031232370054B63604FF4DF73D9E752
:104490000190FEF779FE0198D7E700BFACA60000B7
:1044A0002CA700004D555458DC620020DD6200202E
:1044B000E8630020054B064AC3610023436113688B
:1044C00083610BB9106070475861FBE793A500004A
:1044D000CC5F00202DE9F04705460F4614460AB987
:1044E000FEF752FEFDF708FFDFF88090DFF88080CE
:1044F000064638B1202323705223C4E90238C4F899
:104500000490FEE73DB90A2323705523C4E902381D
:10451000C4F80490FEE7FDF7E6FE302231468246FD
:10452000284604F00DFB0F4B05F10800C5E90037E4
:10453000FEF74AFF2846FFF7BDFF0B4A13880133F9
:10454000138029463A46292003F072FC5046FDF7B5
:10455000D0FE6C232670C4E90238C4F80490BDE88C
:10456000F08700BF4D555458D05F0020ACA6000026
:1045700038A70000836B00F138028B42186A01D122
:104580001060704703F120020346F6E7836B3F207B
:1045900003B970479A6822B192F83320904228BF3D
:1045A00010461B6AF4E700002DE9F04F054685B080
:1045B0008B4614460AB9FEF7E7FDFDF79DFEDFF8CE
:1045C0009481604F40B12023237040F25723C4E907
:1045D0000237C4F80480FEE745B90A23237040F28D
:1045E0005A23C4E90237C4F80480FEE7CBF30E0374
:1045F00043B10823237040F25D23C4E90237C4F8B5
:104600000480FEE72A68504B9A4208D00C2323709E
:1046100040F26123C4E90237C4F80480FEE74B4B43
:104620001B78012B0AD002232370C4F8048040F2C7
:104630006523C4E9023705B0BDE8F08FDFF818A1A3
:10464000FDF751FE6A6ADAF800309A42814608D0D6
:10465000FDF74FFE1B232370C4F804804FF41B7337
:10466000E7E701F047FB95F828300290013BDBB209
:10467000E86285F828304BB14846FDF73AFE23231F
:104680002370C4F8048040F27D23D2E7DAF80000FA
:104690002946FFF76FFFAE685EB96E6285F8286045
:1046A0004846FDF726FE2670C4F8048040F28A23AF
:1046B000BFE7DAF8001091F8333091F834600393D3
:1046C000B34220D00846FFF761FFB04228BF304612
:1046D000039BC6B2B34216D20846FFF741F9DAF897
:1046E000000080F8336002F0E9FE324601462E20D9
:1046F00003F092F8304600F071F8DAF80000FFF7A6
:1047000091F8134B1E70A9686962012385F828305F
:104710008B6B2B62029B8D63009300231A46284605
:10472000FFF7B6F84846FDF7E4FD1BF4004F01D152
:10473000FFF78CF900232370C4F8048040F2AD2306
:1047400077E700BF20A700004D555458DC620020D9
:10475000D25F0020ACA60000E86300202DE9F34101
:10476000846B0546012714B902B0BDE8F081D4F886
:10477000208001F0BFFA2146E06206462846FFF796
:10478000F9FEA16821B984F8281061624446EAE77D
:1047900084F828708B6B2362002365621A468C6351
:1047A00020460096FFF774F8F0E70000024B002265
:1047B000C3E90022704700BFA05F002008B5064B88
:1047C000186828B9586801F0AFFA2030C0B208BDA7
:1047D00001F0AAFAFAE700BFA05F00201F28094AEB
:1047E00007D84FF0004323FA00F013680343136027
:1047F00070470123C0F13F0003FA00F053681843EB
:1048000050607047A05F00201F280A4B08D84FF067
:10481000004222FA00F01A6822EA00021A60704789
:104820000122C0F13F0002FA00F05A6822EA0002B9
:104830005A607047A05F00202DE9F3470A9C0746A5
:10484000894616461D460CB9FEF79EFC0FFA86FAFD
:10485000BAF1000F0ADABFB90A2323706A4B63600A
:104860004FF49373A360694BE360FEE7FDF744FDEB
:104870000028F0D020232370634B63604FF49173C2
:10488000A360624BE360FEE7C6F30E064EB1082359
:1048900023705D4B636040F22913A3605B4BE360C0
:1048A000FEE73A685A4B9A4209D00C232370564BC4
:1048B000636040F22D13A360544BE360FEE7BAF14E
:1048C000000F0CDBFDF722FD48B11F2323704E4B78
:1048D00063604FF49873A3604C4BE360FEE74D4B6D
:1048E0001B78012B17D1FDF7FEFC3E6A804606B30C
:1048F000013E3E620DB17B6A2B6040463E6AFDF789
:10490000F8FC00232370404B636040F24313A36024
:104910003E4BE36009E0022323703B4B636040F2AF
:104920003513A360394BE3600026304602B0BDE882
:10493000F087BAF1000F0CDA05B12E6040463E6AEE
:10494000FDF7D7FC1D2323702F4B636040F25113FA
:10495000DDE7314B1B785BB105B12E604046FDF7BA
:10496000C8FC2D232370284B636040F25D13CEE713
:104970004A4606213846FFF79FFA4046FDF7B9FC44
:10498000FFF764F8FDF7AFFC244B1B6893F8312068
:10499000032A31D8DFE802F00212261C0DB15B6C4D
:1049A0002B6000232370184B63604FF4BA73A3602D
:1049B000164BE3603E6AFDF79CFCB6E70DB15B6CFD
:1049C0002B6021232370104B63604FF4BF73EEE71D
:1049D0000DB100232B60222323700B4B63604FF437
:1049E000C473E4E70DB15B6C2B6031232370064B7D
:1049F00063604FF4C973DAE70190FDF77AFCFEF7C4
:104A0000C3FB0198D6E700BF46A70000C2A700007D
:104A100053454D41DC620020DD620020E863002048
:104A20002DE9F3470646884614460AB9FEF7ACFB63
:104A30004EB90A2323703E4B636040F22623A360E5
:104A40003C4BE360FEE747F6FF5518EA050509D041
:104A500008232370364B636040F22923A360354B53
:104A6000E360FEE73268344B9A4209D00C2323708E
:104A70002F4B636040F22F23A3602E4BE360FEE7D1
:104A80002E4B1B78012B09D002232370284B636027
:104A900040F23323A360274BE36038E001F02AF9AA
:104AA0008146FDF720FCB7680546F7B108F4007AA7
:104AB000002339461A467F6ACDF800903046FEF74B
:104AC000E7FEBAF1000F01D0002FF1D12846FDF723
:104AD00010FC18F4004F01D1FEF7B8FF144B6360CF
:104AE0000025257040F26523D4E7356ADFF840A041
:104AF000DFF840806B1C0ED1FDF7FBFB1E232370FB
:104B00004FF41173C4E90238C4F804A03D462846A6
:104B100002B0BDE8F0870135C6E90859FDF7E9FBA9
:104B200040F24F23C4E902382770C4F804A0EEE72E
:104B300046A70000B8A7000053454D41DC620020A5
:104B4000054B064AC36100234361136883610BB9B7
:104B5000106070475861FBE793A50000E8620020F1
:104B60002DE9F84F05460F4693461C460BB9FEF754
:104B70000BFBFDF7C1FBDFF88490DFF8848006466D
:104B800038B1202323705823C4E90238C4F80490B4
:104B9000FEE73DB90A2323705B23C4E90238C4F859
:104BA0000490FEE7FDF79FFB282231468246284607
:104BB00003F0C6FF0F4B2B6005F10800C5F820B0CD
:104BC0006F60FEF701FC2846FFF7BAFF0A4A138818
:104BD0000133138029463A462F2003F029F9504625
:104BE000FDF787FB73232670C4E90238C4F80490EC
:104BF000BDE8F88F53454D41EC62002046A7000008
:104C0000CCA70000F8B5064608B9FEF7BDFAFDF7D7
:104C10006AFB1F4B00251D801E4B1D601E4B1D6037
:104C20001E4B1D81FDF765FBFDF75DFB1C4B1C68F2
:104C3000FDF75FFB74B9FDF756FB1A4B1D68FDF7D6
:104C400058FB05BB184B7360A423B3603570174B3A
:104C5000F360F8BDFDF747FBC4E93255C4F8905046
:104C6000C4F8D450C4F8BC50A4F8B650A4F8B85056
:104C7000074601F03FF8A4F88850C4F8C400D4F8FF
:104C8000E4403846D4E7FDF72EFBAC85AD69D6E7A6
:104C9000F2620020E463002028650020C05F00204D
:104CA000F4630020D45F0020D8A700005EA80000B5
:104CB00000B5104A104900231370104A8BB01370CE
:104CC0000322CDE90632CDE904330D4A089012687B
:104CD00003920C4A0C48126802920C4A1268019224
:104CE0000B4A127800920B4A00F04EFA0BB05DF8B6
:104CF00004FB00BFF46200204BA80000EE6200201D
:104D00006C5E0020685E0020F8620020645E002077
:104D1000585E0020294D000008B500F0EBFF014B64
:104D2000186008BDB45F00202DE9F04F85B06846DB
:104D3000FFF768FF684600F0B3FC9DF800300546B9
:104D40000BB1FEF721FA5C4B18684FF00008A8423F
:104D5000C24642F2107728BF0A20B5FBF0F500F0FA
:104D6000C9FF564E814600F0C5FF3368984267D3AD
:104D700000F0C0FF3468041BFDF7B5FA504BD3F8C0
:104D800000B0C3F800A0FDF7B4FA4E4B9C425DD9C9
:104D90004D4B9C425ED94D4B9C425FD34C4B9C4249
:104DA00095BF4FF47A7038460A2601260BFB06F3AE
:104DB000B4FBF0F4B3FBF4F39BB2BB42454A28BF0B
:104DC0003B461380444AFB1A9BB21380434A118826
:104DD000994203D2B8F1000F00D01380DFF808B178
:104DE000FDF781FADBF80080FDF783FAB8F1000FD8
:104DF00037D1FDF778FADBF80080FDF77AFAB8F1E1
:104E0000000F3BD1364B1A78012A04D1684683F84B
:104E10000080FFF7F7FE01F069F8FFF77DFF00F073
:104E200069FF304B1A68A0EB0900824238BF186056
:104E30006A460021284600F045FC4FF001088EE745
:104E400000F058FF3368DB431C1895E7012042F25D
:104E50001076ABE70A204FF47A76A7E7642006467F
:104E6000A4E7FDF740FAD8F8C830C8E932A3FDF747
:104E700040FAFDF738FAD8F8E480B5E7D8F8CC3036
:104E8000B8F8B8207343B3FBF4F39BB2BB4228BF1E
:104E90003B469A4238BFA8F8B830A8F8B63008F1B7
:104EA000D80208F1DC0140466B4600F041F8FDF7FE
:104EB0001AFAD8F8E480A0E75C5E0020B45F002016
:104EC000B05F00207F1A0600FF083D00005A620212
:104ED000FF83D717A85F0020F0620020F262002055
:104EE000EE620020E4630020F463002008B500F0C7
:104EF00001FF014B186008BDAC5F002010B50A4CE3
:104F000000F0F8FE2368984208D300F0F3FE23680F
:104F1000C01A064A13681844106010BD00F0EAFE7B
:104F20002368DB431844F4E7AC5F0020B05F002047
:104F30002DE9F04105460F4616461C460BB9FEF713
:104F400023F9FDF7D9F948B1202323702F4B636073
:104F500040F2BC63A3602E4BE360FEE74FB90A2327
:104F600023702A4B636040F2BF63A360284BE36069
:104F7000FEE74EB90A232370244B636040F2C163FD
:104F8000A360234BE360FEE7FDF7ADF90DB9214BBC
:104F90001D68D5F80080B8F1000F10D1FDF7A9F910
:104FA0000823C7F80080C6F800802370174B6360A1
:104FB00040F2CC63A360164BE360BDE8F081B5F826
:104FC000408018F001080CD1FDF793F90723C7F8CA
:104FD0000080C6F8008023700C4B636040F2D463FD
:104FE000E8E7FDF786F9AA6900231C3252F8041F8E
:104FF00051B13B60EA6BD31A336000232370034B3B
:10500000636040F2EF63D5E70133EFE76AA8000081
:1050100006A90000E8630020064A0023C0F8E0303B
:105020001368C0F8E4300BB910607047C3F8E000B3
:10503000FAE700BFF4630020D0E9382342B90A49F7
:105040000B600BB1C3F8E0200023C0F8E4307047D8
:10505000C2F8E43013B9C0F8E0307047C3F8E0207C
:105060000023C0F8E430F6E7F4630020074A002389
:105070001360074A1380074A13600370064B4360AE
:1050800040F621038360054BC3607047F463002042
:10509000F8630020F06300206AA80000E3A8000085
:1050A00038B5EC220446002103F04AFD1D4BE360B5
:1050B0000025002104F17C00FFF7CAF8C4E923555C
:1050C000C4E92B55C4E92555C4E93455C4E936551E
:1050D000C4E91B55C4E92F55C4F8A050A4F8A85042
:1050E000C4F8A450C4F89C50A564E56384F8B45097
:1050F000A4F84050256584F84C50A4F8B650A4F8A4
:10510000B85000F0F7FD4FF080432363402384F84C
:105110003430054BA563C4E93105C4E93855C4F8FA
:10512000E83038BDDDA8000093A50000064A031F43
:105130001C3053F8041F914203D18342F9D101205E
:1051400070470020704700BF4523CDAB08B9084B1E
:105150001868026883699A4207D3C16B03EB810028
:10516000824202D21846FFF7E1BF0020704700BF1D
:10517000E8630020034A031F1C3043F8042F8342D6
:10518000FBD170474523CDAB2DE9F04F89B0DDE968
:10519000136A05939DF848300493BDF85830069380
:1051A000DDE917931A9C0793BDF86430159F0392AD
:1051B0000546884602930CB9FDF7E6FFFDF79CF81B
:1051C000834A844B834630B16260F022C4E90223F3
:1051D00020212170FEE735B96260F322C4E9022381
:1051E0000A212170FEE7039931B96260F622C4E911
:1051F00002230A212170FEE736B96260F922C4E970
:1052000002230A212170FEE773490968B94206D9D1
:105210006260FC22C4E9022308212170FEE75745A1
:1052200006D86260FF22C4E9022308212170FEE74C
:1052300004993F2907D962604FF48172C4E90223BF
:1052400008212170FEE7654906980988814207D246
:1052500062604FF48372C4E9022308212170FEE7E3
:105260002846FFF71DFF5B4B594AE360029B6260D3
:1052700040F20B12A2609A0784F800B040F08A80D6
:10528000029B059903982AF0070A06EB8A0ACDE9E2
:1052900000733246534600F02DFE864283460AD9FB
:1052A000322323704A4B63604FF49473A360494BDD
:1052B000E360FDF769FF39463046FFF75BFF039B6C
:1052C000EB61059B2B62049B454CC5F80C8085F86F
:1052D000333085F83430C5F800B0C5F808A0C5F8FB
:1052E0006C90B9F1000F62D13E4BD3F800A001F0F1
:1052F000DDFD2268511E0C4649464B46EAFB004143
:10530000204603F055FA079B6B60029BA5F84030DE
:1053100005F17C040023C5E925330699C5F89C30C6
:105320002867AE612046EF63FEF792FF284600F043
:10533000DEFD284602F0A8FBEB6B95F83320E96808
:1053400000932846AB6902F027FD424629462620F5
:1053500002F06EFD42462146232002F069FDFCF773
:10536000C2FF044695F83300FFF738FA2846FEF7E7
:1053700059FA2846FFF750FE1B4A13880133138061
:105380001A4B1B78012B20461BD009B0BDE8F04F0B
:10539000FCF7AFBF029B9B077FF572AF00231A4655
:1053A00002E046F823200133BB42FAD168E701F05E
:1053B0007DFD22680023511E0C461946E9FB004181
:1053C0009EE7FCF796FF09B0BDE8F04FFEF73EBB45
:1053D0006AA80000F9A800000CA50000505E00209B
:1053E000745E0020E0620020F8630020DC62002090
:1053F00070B504460D4694F83230072B08D8013BAF
:10540000062B0BD8DFE803F01F22221F1F222200E9
:10541000FF2B1AD0BDE87040FDF7B6BE2046FEF760
:105420009FFA284684F83350FFF7D8F92D4B1B68B4
:10543000A342204603D1BDE87040FEF7D7B9BDE8CE
:105440007040FEF7EFB984F8335070BD94F83030F7
:1054500094F8336084F83350013B072BDAD801A26B
:1054600052F823F0855400004B54000015540000FE
:105470008F54000085540000855400004B540000F8
:10548000855400002046BDE87040FDF7E5BF20468A
:10549000FDF7E2FFE36A5C6AB54294F833300AD262
:1054A000AB42D2D9204602F009F82A4601462D2007
:1054B00002F0B2F99FE7B3429DD12046FFF766F8AC
:1054C00094F8342094F83330904228BF1046C5B287
:1054D000AB42BAD0204601F0F1FF2A4601462E2009
:1054E000E6E700BFE86300202DE9F04104460D46E1
:1054F00009B9FDF749FEFCF7FFFE48B120232B70E8
:105500005B4B6B604FF4DB73AB605A4BEB60FEE7B9
:10551000594B1B78012B0AD002232B70544B6B6024
:105520004FF4DD73AB60534BEB60BDE8F0812CB9F9
:10553000FCF7D9FE514B1C68FCF7DBFEFCF7D3FEF1
:1055400094F83230072B804608D8013B062B0DD843
:10555000DFE803F04935350F49353500FF2B7DD0A5
:10556000FCF7C7FEBDE8F041FDF70EBE2046FEF792
:10557000F7F9A36B13B12046FFF7F0F804F17C00B4
:10558000FEF74EFE204600F0B3FC2046FFF754FD28
:105590003B4A1388013B1380FF2384F83230404696
:1055A000FCF7A7FE00232B70314B6B6040F23323D6
:1055B000AB60304BEB60BDE8F041FEF747BA94F8C2
:1055C0003030082B47D8DFE803F0080508461705F8
:1055D000050805002046FDF724FF94F8323003F05B
:1055E000FB03032BC5D104F1540001F099FB002803
:1055F000BFD0FDF7C9FDBCE7E36A5E6A204696F8B6
:105600003370FDF70EFF96F8333096F834209A4247
:105610000CD094F833209A4208D13046FEF7B6FFFA
:1056200096F83410814228BF0146CFB2002384F897
:10563000303096F83330BB42CFD039463046FFF792
:10564000D7FE304601F03AFF96F8332001462E206F
:1056500002F0E2F8C1E7FDF797FDBEE7FCF749FE6F
:105660001F232B70024B6B6040F209235AE700BFE7
:105670006AA80000EFA80000DC620020E8630020B8
:10568000F86300201FB5054B186800F032FC69462E
:105690000020FFF729FF05B05DF804FBE863002058
:1056A00000230370044B436041238360034BC360BA
:1056B000034B1868704700BF13A9000090A90000B1
:1056C000745E00202DE9F04F054685B088461446EB
:1056D0000AB9FDF759FDFCF70FFE6C4F6C4E30B167
:1056E000202323707023C4E902366760FEE7FCF7CD
:1056F0000DFE30B11F2323707323C4E902366760A7
:10570000FEE7644B93F80090B9F1010F08D0022333
:10571000237067607723C4E9023605B0BDE8F08FD7
:105720005D4B93F800A0BAF1000F04D02D23237035
:1057300067607C23EFE7B8F1000F2FD0B8F1020FBC
:105740002CD0B8F1080F00F0968008232370812335
:10575000C4E902366760FEE701F09CFB4F4B196815
:10576000A0FB0181029101F0A1FB53460246029980
:10577000404603F01DF84A4B1B6893F84C20CAB111
:105780001A6D15441D652D1A25EAE575454A1168FF
:1057900021B11A6D91429CBF521A1A65002D49D051
:1057A000404B1B685BB1AB4209D81E232370676076
:1057B000A923B0E72844186583F84C90E6E701F088
:1057C00075FB364B02901A680392FCF78CFD039A26
:1057D0000299DFF8CCA04FF000098046CC46501E5D
:1057E000E5FB010C4B46614602F0E2FFDAF800B03F
:1057F0002D4A0146CDE900995B460BF1540001F0BA
:10580000EDFA012530B14046FCF773FD2570676065
:10581000B92380E7DAF8000080F83250FEF7A0F8EC
:105820004046FCF766FDFEF711F900232370676020
:10583000D22370E7FCF757FD1C4B1D491A784FF037
:105840000C0C02EB42030CFB02F201EB020C01EB2D
:1058500083038958DCF804209142054606D1FCF701
:1058600048FD002323706760C82354E71846FEF7FD
:1058700060F82846D5E7002D7FF46EAF8623C4E993
:10588000023684F800806760FEE700BF13A90000BD
:1058900086A90000DC620020DD620020745E00202A
:1058A000E8630020985E0020D93C0000D25F002011
:1058B000DC5F002000B589B004AB002200930448EF
:1058C00003AB1146FEF7CEFC09B05DF804FB00BF48
:1058D000086400201FB504486A460021FEF764FEF4
:1058E00005B05DF804FB00BF0864002070B50546F4
:1058F0000C4609B9FDF748FCFCF7FEFC48B1202333
:1059000023703C4B636040F2C913A3603A4BE360E1
:10591000FEE74DB90A232370364B63604FF4E673FC
:10592000A360354BE360FEE72A68344B9A4209D006
:105930000C2323702F4B636040F2CF13A3602E4BD8
:10594000E360FEE72E4B1E78012E0BD0022323705E
:10595000284B636040F2D313A360274BE3600646F5
:10596000304670BDFFF7A6FF95F82630032B3CD8D4
:10597000DFE803F030120212EB6903B92B6AAB6166
:10598000002323701B4B636040F2E113A3601A4BAA
:10599000E360FFF79FFFE3E7022385F82630EB691A
:1059A00003B92B6A1749AB610B68174A2B6153B9CE
:1059B0006B610D6001231380002323700D4B636026
:1059C00040F2FD13E2E7002068615D6113880D601D
:1059D0000133F0E713222270064A626040F202228D
:1059E000A260054AE2601E46D3E7FDF7CDFB002624
:1059F000CFE700BFA4A9000037AA0000544D5220F1
:105A0000DC6200200464002000640020044A0023BB
:105A100083621368C3620BB9106070479862FBE73A
:105A2000FC6300202DE9F74F0F9CBDF830900191E9
:105A3000054690469A460CB9FDF7A6FBFCF75CFCC0
:105A4000364F374E30B17723C4E902362022227018
:105A50006760FEE735B97A23C4E902360A2222706C
:105A60006760FEE7B9F1010F15D0B9F1020F1CD143
:105A7000BAF1000F06D17F23C4E902360822227052
:105A80006760FEE70D9BBBB98223C4E902360A2298
:105A900022706760FEE7B8F1000F0DD18623C4E9DC
:105AA0000236082222706760FEE78A23C4E90236C4
:105AB000082222706760FEE7DFF870B09BF80020D4
:105AC000012A01D1FFF7F6FE30220021284603F01B
:105AD00037F80122019B85F82620124A12492A60D4
