:1000000000100020E5170000E1170000E1170000D4
:10001000E1170000E1170000E1170000E117000000
:10002000E1170000E1170000E1170000E1170000F0
:10003000E1170000E1170000DF620000E117000097
:10004000E1170000E1170000E1170000E1170000D0
:10005000E1170000E1170000E1170000E1170000C0
:10006000E1170000E1170000F1130000E1170000A4
:10007000E1170000E1170000E1170000E1170000A0
:10008000E1170000E117000005140000E11700006F
:10009000E1170000E1170000E1170000E117000080
:1000A000E1170000E1170000E1170000E117000070
:1000B000E1170000E1170000ED730000E1170000F8
:1000C000E1170000E1170000E1170000E117000050
:1000D000E1170000E1170000E1170000E117000040
:1000E000E1170000E1170000E1170000E117000030
:1000F000E1170000E1170000E1170000E117000020
:10010000E1170000E1170000E117000010B5054CF1
:10011000237833B9044B13B10448AFF300800123B3
:10012000237010BDA81C00200000000030C7000094
:1001300008B5034B1BB103490348AFF3008008BD6A
:1001400000000000AC1C002030C70000A3F5803A7E
:10015000704700BF174B002B08BF134B9D46FFF79E
:10016000F5FF00218B460F461348144A121A08F077
:100170005FFE0E4B002B00D098470D4B002B00D09C
:1001800098470020002104000D000D48002802D0EF
:100190000C48AFF3008008F011FE2000290001F0A8
:1001A0003BF908F0F7FD00BF000008000000000068
:1001B000000000000010002050110020B08C002032
:1001C0000000000000000000034A136923F004034C
:1001D000136130BFF9E700BF00ED00E00000000050
:1001E0002DE9F04FA64C2DED068BE36B0AEE103A8D
:1001F000BFB0A44F002202AB01930092A368114646
:10020000104605F05DFE9DF80850002DFDD1D7F891
:100210000080B8F1010FEDD19B4E9C4806F094FA96
:1002200033682269A16999489A1A521A294606F038
:10023000FAFB33682269A16994489A1A521A414616
:1002400006F0F1FB33689148DFF8408219462A46F0
:1002500006F0E9FB33688D48013B19462A4606F053
:10026000E2FB6269316822955300CDE9235323698B
:10027000CB1A1421CDE93131CDE92751CDE92B51EC
:1002800030912321CDE93351CDE93751A3F10A0152
:10029000CDE93915F968521A5200CDE93B320F20E9
:1002A000A2694FF0050CCDE929C0581FCDE92535CD
:1002B000CDE92D352F904FF0020E19201344CDE9D2
:1002C00035E022AF3D9339464046013506F0D8FC73
:1002D000072D07F11007F6D1DFF8B8B1E36BDBF8B3
:1002E00008206A4803EBD373A2EB630102EB6303BC
:1002F0000893336806911A1F06A90792099306F01E
:10030000BFFC4FF0FF35DBF808005F4E08F094F8B3
:1003100041EC180B1AEE100A08F08EF88046206D9A
:10032000894608F089F854A3D3E9002308F0EEF8D1
:10033000574B002208F014FA09F0D2FD41EC190BDA
:10034000206D376808F078F84BA3D3E9002308F054
:10035000DDF84F4B002208F003FA09F011FE0B46BE
:10036000DBF80810024605EB010A4046494608F052
:10037000CDF808F065FB043F53EC192B07444946C0
:10038000404608F0C3F853EC182B07F009FF8046ED
:100390002846894608F050F802460B464046494632
:1003A00007F0FEFE08F04CFB3368043B0146009367
:1003B000364853463A46013506F080FB032DA2D15C
:1003C000344FDFF8C88000253B68022B4FD1236AE9
:1003D00003EBD3735B10D7E90212404606F055FADF
:1003E00001350A2D07F12807EED1264A33685668F1
:1003F000E26D96FBF2F26FF0130672431F320B921E
:1004000020220D92A3F10F02A3F110075E1FA3F1AA
:100410000D00A3F10801CDE90F52063B23221693EC
:10042000CDE91D202223CDE91127CDE919270E970B
:100430004FF00B0C1B93154F1C960523CDE913565B
:10044000CDE9175621950A900C91CDF854C0209112
:100450001F930AAE002531463846013506F010FCE0
:10046000062D06F11006F6D106F024F9C1E6032B9D
:10047000B6D1A36DAFE700BF6E861BF0F92109402E
:1004800060360020FC300020081000204831002099
:1004900000806640C436002080B51D4C002788B01F
:1004A0003D4604AECDE900761A4B25700022114678
:1004B0005B6865701046A570E57005F001FD9DF85C
:1004C00010100029FDD10B460A46134800960391EF
:1004D00004F0CEF900F0C0FE0399084600F0A8FE33
:1004E0002070012000F0A4FE6070022000F0A0FE49
:1004F000A070032000F09CFE0399E070324606488D
:1005000004F058FB9DF81030002BFDD1C9E700BF67
:10051000F03D002060360020983D00204FF6FF732C
:10052000C340DB0710B5044604D4064840F213412B
:1005300001F0C6FB044B012000FA04F4C3F8FC40B0
:1005400010BD00BFF0B4000000A000462DE9F04748
:10055000224DDFF8989086B04FF0000A4FF0000867
:10056000002202AB1046009211460193322305F09F
:10057000A7FCE86807F060FF194B064658690F466C
:1005800007F05AFF42464B4607F0C0FF02460B46B3
:100590003046394608F040FA0028E1D001340A22FA
:1005A00094FBF2F302FB13434BB12B7C3BB9BAF142
:1005B000000F0DD00B4A2021C2F8FC109A460A4BBE
:1005C0001B6814225343A342CAD101232B74C7E7EB
:1005D0000520FFF7A3FF4FF0010AF0E7FC300020F1
:1005E0006036002000A00044001000200000E03F22
:1005F0004FF6FF73C340DB0710B5044604D405482B
:1006000040F2B53101F05CFB034B23449B001868BA
:1006100010BD00BFF0B4000060088510BFB5DFF862
:10062000AC80284F0026002302AD1A4619460095DB
:10063000404604F007FC9DF80830002BFDD11A4617
:1006400019460095384604F013F99DF80830002B40
:10065000FDD11D4C0720FFF7CBFF6378984215D0E2
:100660000123E3700720FFF7C3FFC0B10620FFF7A7
:10067000BFFFA0B1267066702A460021384604F0FC
:1006800099FA9DF80830002BFDD1CCE70620FFF742
:10069000AFFF237898421CBF0123A370E2E7072035
:1006A000FFF7A6FF10B101236370E5E70620FFF70F
:1006B0009FFF0028DED0012304202370FFF72EFFC8
:1006C000DAE700BFDC2B0020D82B0020B02B002065
:1006D000BFB5154E154C164D02AF002232230197BF
:1006E00000921146104605F0EBFB9DF80830002BF8
:1006F000FDD12268AB6801322260002BEDD0316E53
:1007000093FBF1F30A21C3F101034B4392FBF3F195
:1007100003FB11231BB90420FFF700FFDCE7054BA7
:100720001022C3F8FC20D7E760360020F830002004
:10073000FC30002000A000441C4B70B50446186833
:10074000322564269623C4E90230C4E9005607F036
:1007500073FE174B002207F0D9FE08F071F903224F
:100760001523C4E9052300210723C4E90713022246
:100770000A23C4E909322061E3624FF47A7041F23E
:1007800088331022C4E90C03C4E90F2363641E22DA
:100790001423C4E91232EB22C4E914250522C4E96A
:1007A0001625A6632366204670BD00BF08100020F2
:1007B0000000E83F00B58FB00AAB08930122002388
:1007C000CDE906320A214FF48072CDE903211922C6
:1007D0000292064A0192152200920549054A0648EE
:1007E000059304F0D7FF0FB05DF804FBAC38002090
:1007F00054B50000E1080000AC3C002000000000FF
:100800002DE9F843044608F0C1FB2B4D0646E86885
:1008100007F012FE24A3D3E900238046894607F09F
:1008200075FE08F00DF996FBF0F303FB106007F07E
:1008300003FE1FA3D3E9002306460F464046494660
:1008400007F064FE02460B463046394607F0A6FC28
:1008500008F0F6F8194B9E68064408F097FB184913
:100860004FF47A6390FBF3F202FB13032A690868E2
:10087000022103F57A732160002196FBF3F6C4E9A7
:100880000212524292FBF3F2434303EBD373A2EB07
:100890006303C4E905302B6B2661C4E9071161626B
:1008A0006360BDE8F88300BF9A9999999999C93F07
:1008B0009A9999999999B93F60360020C4360020D9
:1008C000041000200023C0E90233C0E90433C0E96A
:1008D0000633C0E90833036043607047000000003E
:1008E0002DE9F04FA44EA54CF5B02422002107A815
:1008F00008F09EFAF36D089307AD0FCD0FC40FCD2E
:100900000FC42B6844F820399D4B0A250022013D75
:10091000C3E90022C3E90222C3E90422C3E9062293
:10092000C3E9082203F12803F1D1F36894490122B5
:1009300003EBD3731341C1E902352260B36B8E4CD4
:100940000A604B60A846DFF83492D9F80030012BDA
:100950000DF10C0A40F094810022CDF804A0009221
:1009600023681146104605F0ABFA9AF80030002BC8
:10097000FDD11A4619468348CDF800A003F078FF50
:100980009AF80030002BFDD1DFF8F4B19E4610AE8E
:100990000BEB0E0CBCE80F000EEB06070FC7BCE814
:1009A0000F000FC79CE803000EF1280EBEF5C87FAC
:1009B00087E80300ECD173485246002104F0FAF8AE
:1009C000002333621A4619466F48CDF800A003F0A1
:1009D0004FFF6E4B1A781AB95978002900F05F81E1
:1009E000D97861B9997851B95978002900F06382B2
:1009F000636B326A03EBD373A2EB630333620023AE
:100A00001A4619466248CDF800A003F031FF9AF863
:100A10000030002BFDD15F4A92F800A0BAF1000F20
:100A20005CD1B8F1000F59D0D9F80820002A55DD63
:100A3000282000FB03F156F80180B8F1000F40F0C8
:100A40003F81771803237350B368BB60F368206D50
:100A5000C7F81C80C7E90338236E92FBF3F2C7E99D
:100A6000058803FB02F907F0E7FC41A3D3E9002363
:100A700007F04CFD484BDFF804B1002207F070FE90
:100A800009F02EFA07F0DCFF226EDBF8083093FB4A
:100A9000F2F309FB00F03862206D02FB03F907F066
:100AA000CBFC33A3D3E9002307F030FD3A4B0022FF
:100AB00007F056FE09F064FA07F0C2FF636D3A6A68
:100AC0007B60336ACBF8088013443362DBF8203054
:100AD00009FB00F001337862CBF820302D494B78C8
:100AE000002B40F0F28003AF29483A46002104F081
:100AF00061F83B78002BFDD1204A5368BAF1000F12
:100B000000F01981002B07DD9168206E814203DA25
:100B100001319160013B5360E669012E00F01681BE
:100B2000022E00F03D81002E40F050810DF1400872
:100B30004FF0280909FB06F353F80830022B0FD0B9
:100B4000092E0AD1002309FB03F058F80020002ADF
:100B500040F0F7804044FFF753FE01360A2EE9D1FA
:100B6000DFF81CB0DFF8349010A80A2618E000BFA8
:100B70006E861BF0F921094060360020FC30002011
:100B8000C43600207C380020983D0020F03D002035
:100B9000DC2B0020D82B00200080664004100020B1
:100BA000D0F800C0ACF10203012B00F23C81416A95
:100BB0004268036A93FBF2F391FBF2F2D9F800105A
:100BC00083610A444FF47A7E216891FBFEFE4169FD
:100BD000C2610EFB0212016942610EFB03138168C0
:100BE000036103FB0E18C168C0F8088002FB0E1EEB
:100BF000BCF1020F4FF00002C0E90822C0F80CE07F
:100C000040F0FF8008F1FF32622A00F2E080BEF17E
:100C1000090F00F3DC80FFF755FEAE4B03221A608C
:100C2000013E00F128000BF1280BB9D13346AA4848
:100C300000973246314603F01BFE3B78002BFDD176
:100C4000DFF89C8210AB06EB030EBEE80F0008EB4A
:100C5000060CACE80F00BEE80F00ACE80F009EE801
:100C600003002836B6F5C87F8CE80300EAD19A481D
:100C70003A46002103F09EFF3B78002BFDD10CE0AB
:100C800000231A4619469548CDF800A004F0DAF87A
:100C90009AF80030002BFDD1C246D04653E69A7830
:100CA000002A00F00B81336A626B1344A6E6336AB4
:100CB000626B9B1AA2E63369002BF8DCF3D19EE647
:100CC00001330A2B7FF4B5AE08E7824FE26C7B68F4
:100CD0009342FFF608AFC97800293FF404AF9B1A8E
:100CE0007B60BB6910AE0133BB614FF00A08B146AF
:100CF0003368032B19D1D9F80830B068D9F80C2023
:100D0000C01AF3689A1A524300FB002007F094FBC4
:100D100009F080F907F094FEA36C834205DB3046AE
:100D2000FFF7D0FDFB690133FB61B8F1010806F163
:100D30002806DDD1D7E6E16D9942FFF6EDAE01332D
:100D4000E9E601330A2B7FF4FEAE06E7E26A95FB83
:100D5000F2F302FB135303B101350023184610AE22
:100D600056F823100A33022908BF0130642BF7D14B
:100D7000A36A83427FF7F4AE95FBF2F302FB1352B2
:100D8000002A3FF4EDAE4FF00A08336813B930463D
:100D9000FFF736FDB8F1010806F12806F5D1DFE6C8
:100DA000626A95FBF2F302FB13530BB10135D7E6F0
:100DB00010AE4FF00A08336813B93046FFF720FD34
:100DC000B8F1010806F12806F5D1EFE7FEE7226A3F
:100DD00002EBD2724FEA620C1EEB620202D5FFF701
:100DE00071FD1DE7E268C44494457FF719AF5B428B
:100DF000036198FBF2F302FB1388A2EB0802826006
:100E00000EE7B8F1000F51DC23699E45E7DBDBF804
:100E10000C20E3689A4249DC2E4AFFF753FDD36861
:100E20000133D360FCE6BCF1010F7FF4F9AE4268F8
:100E3000036A93FBF2F34FF47A7C226892FBFCFC8A
:100E4000026983610CFB0323626C0361934201DD41
:100E5000026102E052429342FADB83680269D4F8ED
:100E60000CE002FB0C3C00230362E36BC0F808C0FB
:100E700003EBD3781CEB68080BD5524202610CEBF4
:100E8000030292FBFEF30EFB13230CEB4303836080
:100E9000C6E6F0457FF7C4AE52426344026193FB5D
:100EA000FEF20EFB1233ACEB4303F0E7BEF1000F92
:100EB0003FF7B6AE93E7002A7FF4F9AEDB78002B5C
:100EC0003FF4F9AE636B326A03EBD37302EB630357
:100ED00094E500BFFC3000207C3800202031002049
:100EE000C436002000B58FB00AAB0893012200235E
:100EF000CDE906320A214FF48072CDE9032119228F
:100F00000292064A0192152200920549054A0648B6
:100F1000059304F03FFC0FB05DF804FBC41C0020F7
:100F200062B50000E1010000C420002000B58FB0D0
:100F30000AAB089301220023CDE906320A214FF4BF
:100F40008072CDE9032119220292064A01921522EC
:100F500000920549054A0648059304F01BFC0FB0B2
:100F60005DF804FBD821002074B50000D106000014
:100F7000D825002000B58FB00AAB089301220023CA
:100F8000CDE906320A214FF48072CDE903211922FE
:100F90000292064A0192152200920549054A064826
:100FA000059304F0F7FB0FB05DF804FBC4260020A6
:100FB00080B500004D050000C42A00201FB506487A
:100FC0006A464FF4007104F031F89DF80030002BB0
:100FD000FDD105B05DF804FBB02B002000B58FB04B
:100FE0000AAB089301220023CDE906320A214FF40F
:100FF0008072CDE9032119220292064A019215223C
:1010000000920549054A0648059304F0C3FB0FB05A
:101010005DF804FB0C2C00208CB500001D060000C0
:101020000C30002000B58FB00AAB089301220023DA
:10103000CDE906320A214FF48072CDE9032119224D
:101040000292064A0192142200920549054A064876
:10105000059304F09FFB0FB05DF804FBF43D002006
:1010600099B5000099040000F441002000B58FB04C
:101070000AAB089301220023CDE906320A214FF47E
:101080008072CDE903210749074805931922CDE96C
:10109000002102920549064A04F07CFB0FB05DF87E
:1010A00004FB00BF7431002074350020A6B5000099
:1010B000C901000010B59EB000F05AF900F018F90F
:1010C00000F03AFA20B1464840F2792100F0F8FDEC
:1010D000002005F0C5FA20B1414840F27D2100F022
:1010E000EFFD404805F084FB20B13D4840F28121EE
:1010F00000F0E6FD3B4C00236FF07F422046C4E940
:10110000012305F021FB3849204605F004FE05F0D7
:10111000D1FA6846FFF710FB64226946334807F0AE
:1011200079FE334933481AAA03F0DAFC9DF8683097
:10113000002BFDD1304931481AAA03F0D1FC9DF8AB
:101140006830002BFDD11AAA2D492E4803F0C8FCA7
:101150009DF86820002AFDD12B492C481AAB04F0D9
:1011600005F89DF86820002AFDD1294929481AABC5
:1011700003F0FCFF9DF86820002AFDD1264927488E
:101180001AAB03F0F3FF9DF86820002AFDD1244933
:1011900024481AAB03F0EAFF9DF86820002AFDD12D
:1011A0001AAB2149214803F0E1FF9DF86830002B7C
:1011B000FDD1FFF75BFFFFF735FFFFF70FFFFFF7ED
:1011C000B5FEFFF7D7FEFFF7F5FAFFF78BFE1AA87B
:1011D00002F06AFB9DF86830002BFDD11EB010BDF7
:1011E000B1B500004831002074BF00006036002017
:1011F000BAB50000DC2B0020C7B50000983D0020E8
:10120000D4B500007C380020E2B50000B02B0020EF
:10121000F3B50000C83D002004B60000543800209B
:1012200013B60000B021002021B6000020310020BC
:10123000074A084952F8203052F8202051F820007F
:10124000A3EB920398422CBF00200120704700BFFF
:10125000E0420020F0420020F0B54FF080401E4CEC
:101260001E4F1F4E85B000F015FD0023237023781C
:10127000032B06D94FF0804005B0BDE8F04000F0E8
:10128000F3BC2378174DF95C4FF0804000F0D2FC9E
:101290000021012369626A4631700A206B6004F004
:1012A00017FD02236B606A6A23780F49DBB241F8AD
:1012B000232023780D49DBB251F823309A4282BFB4
:1012C0002378DBB241F823200123337023780133E4
:1012D000DBB22370CBE700BF004300204CB6000018
:1012E0000143002000840140F0420020E042002041
:1012F00030B5164D0FCD87B06C460FC495E803008E
:1013000084E803001248012100F07AFD1148012110
:1013100000F076FD1048012100F072FD01214FF42C
:101320008A4000F06DFD0D4B0D4A1A604FF6FF72BA
:10133000DA610C4A1A670C4B0C4A1A6569464FF081
:10134000804000F02FFC07B030BD00BF34B6000075
:10135000404105000012040000A204000084014086
:101360000000010A0100002A00600E400003100086
:1013700013B54FF00111052001F00EFF04221146B4
:101380000023052001F0CAFF4FF00111052001F0F4
:1013900003FF052100230422084601F0BFFF4FF0A0
:1013A0000111052001F0F8FE00230122062105208D
:1013B00001F0B4FF4FF00111052001F0EDFE002314
:1013C00001220721052001F0A9FF0124062223465E
:1013D0001146CDE90044052001F002FF0722CDE9C6
:1013E000004423461146052001F0FAFE02B010BD6C
:1013F00008B5FFF7E3FD024B4022C3F8242408BDE3
:1014000000A0004008B5FFF7D9FD024B8022C3F8C9
:10141000242408BD00A0004008B506F00BF8064BD8
:101420004FF480621A604FF480221A60FFF742FE88
:1014300006F00DF8002008BD00E100E07047000054
:1014400008B50421112001F0BBF80948012100F082
:10145000D7FC0848022101F0B3F80748022101F047
:10146000AFF80648022101F0ABF8002008BD00BF2C
:1014700030253E0002001E0003002000050024006D
:1014800008B5224B01225A64214BD3F8FC20214B92
:10149000120E12D14AF6E851C3F89011D3F8981100
:1014A00041F00401C3F89811C3F89021D3F86421E6
:1014B00042F40052C3F8642101E0012AF6D0164A32
:1014C000136A23F4441343F488131362A2F5805281
:1014D000D2F8A43143F4F843C2F8A43105F08AFCF1
:1014E00000F040F805F024FC05F046FC05F06EFC29
:1014F000FFF7A6FF05F032FC00F028F806F066FDC5
:1015000002F040F9BDE8084002F04EB900000E407C
:101510000081E00F00300E4000400E4002F068B93C
:1015200000F004B805F030BD70477047014800F086
:10153000EFB900BF50B6000008B5042201230F2107
:10154000032001F0EBFE002008BD000008B50448B0
:10155000012100F055FCBDE80840FFF76FBF00BF58
:1015600000350A000148012100F04ABC00350A009C
:101570002DE9F0411A4E0446884617460FCE86B034
:101580006D460FC596E8030085E8030015482568F9
:10159000012100F035FC6068012100F031FC617B25
:1015A000207B0023042201F0B9FE617A207A002317
:1015B000042201F0B3FE28466946CDF80880ADF854
:1015C000107001F0EDFF237CA27B1B0643EA02238F
:1015D000AB6700200A236B6706B0BDE8F08100BF4F
:1015E00068B6000000350A0070B506680C468D1814
:1015F000AC4201D1002070BD14F8011B304602F04E
:1016000029F8F5E7026813699B06FCD570470000CE
:1016100013B5044605F0B8FD247B00230122CDE973
:1016200000326400034AB0FBF4F1034805F00EFDFC
:1016300002B010BD3D16000004430020024B4FF4E1
:101640000052C3F8A820704700A0004073B50F4BAC
:101650000F4E4FF48045C3F89C500446407B05F084
:10166000F9FE042302220DF106013046ADF80630E2
:10167000FFF7BAFF3046FFF7C5FFA07B05F0EAFE93
:10168000044B0020C3F89C5002B070BD00A000467F
:101690001010002000A0004438B504460121124873
:1016A000124D00F0ADFBA16811480022FFF760FF6A
:1016B000002304220E21032001F030FE0023042227
:1016C0000D21032001F02AFE94E80F0085E80F00A9
:1016D000084B012220461A70FFF79AFF2046FFF7B9
:1016E000B5FF002038BD00BF00350A0020430020B0
:1016F000101000201C4300202DE9F74F0688DFF86A
:10170000A4B0984603795E43254B14464FF48042BB
:10171000C3F89C200134A4B20546407B0F4605F077
:1017200099FE230243F001031E48ADF80630022261
:101730000DF106010134FFF757FF2402F610A4B2A1
:101740004FF0000908F1FF3AC1450ED11548FFF7E7
:1017500059FFA87B05F07EFE134B4FF4804200201A
:10176000C3F89C2003B0BDE8F08F39463246584696
:10177000FFF73AFFCA4514BF44F0FF034FF6FF736B
:1017800002220DF10601584604F58074ADF80630CA
:101790003744FFF729FF09F10109A4B2D4E700BFDC
:1017A00000A000461010002000A00044034B044895
:1017B0001B78002B08BF0020704700BF1C4300208F
:1017C000204300201FB5054B0FCB6C4684E80F006B
:1017D0002046FFF761FF04B010BD00BF80B60000D7
:1017E000FEE7000008B500F069F8064B0649074A15
:1017F0008B4201D3FEF7AEFC52F8040B43F8040B06
:10180000F6E700BF001000205011002038C700008C
:1018100000487047005A6202104AD2F8943003F030
:101820000703023B032B13D8DFE803F00C14020E6E
:101830000B4B1B68D2F80001C0F304200130B3FB4E
:10184000F0F07047074BF4E7074B1B685B08F1E7C4
:10185000054BEEE74FF40043ECE700BF00400E40BD
:1018600030100020281000202C10002008B5FFF7B1
:10187000D3FF054BD3F80831C3F308230133B0FB82
:10188000F3F0024B186008BD00400E402410002009
:10189000014B1868704700BF28100020054B1860E6
:1018A000054BD3F8943003F00703022B01D1FFF767
:1018B000DDBF70472810002000400E40044B054A51
:1018C0009A60D3F8882042F47002C3F888207047E9
:1018D00000ED00E0000000004FF4004070474FF4BE
:1018E0007A707047014B1868704700BF30100020B5
:1018F00005490A681318054883428CBF4FF0FF3230
:101900000B601046704700BF341000200000042018
:10191000D0E900031847000038B50D46044618B357
:10192000012824D0022825D0032826D004280ED050
:10193000052825D0831F012B09D9082823D0092881
:1019400023D00A2803D10723EB40DB0704D4104837
:101950004FF4797100F0B4F930200E4B012144436B
:1019600001FA05F51D5138BD40F2FF33ECE74FF6A3
:10197000C073E9E740F6FF73E6E74FF47F43E3E720
:101980004FF6FF73E0E70F23DEE74FF44043DBE75A
:10199000F0B400000CA0004438B50D46044618B35E
:1019A000012824D0022825D0032826D004280ED0D0
:1019B000052825D0831F012B09D9082823D0092801
:1019C00023D00A2803D10723EB40DB0704D41048B7
:1019D00040F2134100F074F930200E4B01214443D2
:1019E00001FA05F51D5138BD40F2FF33ECE74FF623
:1019F000C073E9E740F6FF73E6E74FF47F43E3E7A0
:101A00004FF6FF73E0E70F23DEE74FF44043DBE7D9
:101A1000F0B400000CA0004610B5012104460948AE
:101A200000F0EEF90848012100F0EAF9A3782078E7
:101A30006178B3FA83F35B09042201F06FFC0020A4
:101A400010BD00BF4041050000350A000346007884
:101A500059789B780BB9FFF75FBFFFF79DBF03462F
:101A6000007859789B780BB9FFF796BFFFF754BF02
:101A700038B5047845782CB3012C26D0022C27D019
:101A8000032C28D0042C0ED0052C27D0A31F012B0B
:101A900009D9082C25D0092C25D00A2C03D10723DD
:101AA000EB40DB0704D4114840F22E4100F008F966
:101AB0003022544304F18044012304F52044AB4018
:101AC000A36138BD40F2FF33EAE74FF6C073E7E7A2
:101AD00040F6FF73E4E74FF47F43E1E74FF6FF730F
:101AE000DEE70F23DCE74FF44043D9E7F0B4000012
:101AF00070B504784578064654B3012C2BD0022CDF
:101B00002CD0032C2DD0042C0ED0052C2CD0A31FB0
:101B1000012B09D9082C2AD0092C2AD00A2C03D150
:101B20000723EB40DB0704D4134840F2FE3100F0FA
:101B3000C7F830235C43114B234405EBC305AD00CC
:101B4000B3782868C0B213B9B0FA80F0400970BD0C
:101B500040F2FF33E5E74FF6C073E2E740F6FF736C
:101B6000DFE74FF47F43DCE74FF6FF73D9E70F233E
:101B7000D7E74FF44043D4E7F0B400000CA01002C4
:101B800070B505460E46144600F0ACFE296881EAA1
:101B9000040202EA06044C402C60BDE8704000F0EC
:101BA000A5BE0000B0F1804F38B504460D4606D002
:101BB0001D4B984203D01D48A22100F081F82B69EB
:101BC0003F2B03D91948B62100F07AF8EB683F2B78
:101BD00003D91648B72100F073F86B683F2B03D97F
:101BE0001248B82100F06CF86B682A781B0643EAAB
:101BF000C27343F400432360EA682B7A43EA02434A
:101C0000A3622A696B7A43EA0243E362AA7A084B29
:101C100043EA0273636004F1424404F580146401F2
:101C20002B7D236038BD00BF0004004090B600004B
:101C300000FD0004B0F1804F13B50A46044608D0F9
:101C4000074B984205D001910648F52100F038F87D
:101C5000019AFF21201D02B0BDE81040FFF790BFA0
:101C60000004004090B60000B0F1804F10B504466B
:101C700007D0064B984204D0054840F21B1100F0F3
:101C80001FF8236823F00103236010BD0004004007
:101C900090B60000B0F1804F10B5044607D0064B57
:101CA000984204D005484FF49C7100F009F823686D
:101CB00043F00103236010BD0004004090B6000013
:101CC000FEE700000C4B984210D90C4B984210D9FB
:101CD000022201230A490B640A49D1F8003123F09A
:101CE000807343EA0263C1F8003170470022134653
:101CF000F0E70122FBE700BF0048E8010090D003B5
:101D00000000C84300400E4038B5114B5B68114BD2
:101D100000221C46C9B21D798D4202D11D68854240
:101D200012D20132052A03F10803F4D10A4841F224
:101D30009E31FFF7C5FF032205494B6823F040732E
:101D400043EA02634B6038BD04EBC2025279F3E709
:101D500000000E40ECB70000F4B600001F2810B5DC
:101D6000044604D9034840F22F11FFF7A9FF0120D0
:101D7000A04010BD57B7000038B5074C41F671338D
:101D8000256C2364FFF744FD0021FFF7BDFF0DB173
:101D90000023236438BD00BF00000E40044BDB6B02
:101DA0005B0604D4034AD2F8C830002BFBD170473D
:101DB00000300E400000C64308B5FFF7EFFF024BAE
:101DC0005868C0F3014008BD00300E40044BD3F802
:101DD0004421D20703D4D3F840211042FBD17047ED
:101DE00000400E4038B5054C41F67133256C236434
:101DF000FFF78AFF0DB10023236438BD00000E40B9
:101E000038B5C0F30323013B092B24D8DFE803F0E6
:101E10002A2D2323051619231C20154C0023C0F35B
:101E2000043513B11846FFF7D1FF04F1424404F51D
:101E3000801405EBC404A400216038BD0D4C0123BF
:101E4000EDE70D4C1023EAE70C4C4FF48033E6E746
:101E50000B4C0023E3E7BDE838400A4841F63B114C
:101E6000FFF72EBF084C0023D9E7084C0023D6E724
:101E7000B0400E40E0400E40E8400E40F0400E40C2
:101E800050410E40F4B6000000400E40C0400E40ED
:101E900008B5C0F30313013B092B60D8DFE803F05A
:101EA000050B0F195F5F1F233C532E4BD3F8000126
:101EB000C0F3042008BD2B4BD3F81401F8E7294BDD
:101EC000D3F80001C0F300600130FFF747FF01388D
:101ED000F0E7244BD3F80C01C0F30820EAE7214BCC
:101EE000D3F80801F8E7204B984209D01F4B9842DD
:101EF0000CD041F6DF211E48FFF7E2FE0020D9E7B3
:101F0000184BD3F8200100F00F00DEE7154BD3F893
:101F10002001C0F30110D8E7164B984208D003F512
:101F2000B01303F58053984206D041F60331E2E73F
:101F30000C4BD3F82801ECE70A4BD3F82801C0F387
:101F400001200430C1E70C4B984205D1054BD3F872
:101F5000300100F00300ADE741F61231CBE741F666
:101F60003731C8E700400E408006160080162E006C
:101F7000F4B6000090171A00A009140008B5FFF786
:101F800087FF013008BD000000F00F00013808B5E0
:101F9000072844D8DFE800F0040F1943232D433508
:101FA000264BD3F8943003F00703023B052B3DD8B2
:101FB000234AD05C08BD214BD3F8803003F00703DF
:101FC000013B032B34D81F4AF3E71C4BD3F8843072
:101FD00003F00703013B032B2AD81B4AE9E7174B01
:101FE000D3F8883003F00703013B032B20D8174AAE
:101FF000DFE7124B1B6F13F0010F0CBF0720092006
:10200000D8E70E4BD3F85C3103F03003202B11D00E
:10201000302B11D0102B14BF01200720CAE70C4829
:1020200041F68B61FFF74CFE0020C3E70520C1E7B6
:102030000120BFE70420BDE70820BBE700400E40B9
:10204000BDB70000C3B70000C7B70000C3B70000AA
:10205000F4B6000038B52C4B984205460AD02B4BFD
:10206000984207D02A4B984204D02A4841F29E4118
:10207000FFF726FE2846FFF787FF234B9D420446C5
:1020800011D0224B9D4212D0214B9D4213D1224BA5
:10209000D3F8804004F00704042C2DD8DFE804F0C6
:1020A0002A11151D19001C4BD3F88440F2E71A4B76
:1020B000D3F88840EEE7174841F2CD41FFF700FE24
:1020C000EAE7BDE83840FFF707BCBDE83840FFF756
:1020D00009BCBDE83840FFF702BCFFF79DFB0E4B83
:1020E0000446D3F80001C0F300600130FFF736FE6C
:1020F000B4FBF0F4204638BD064841F21F51FFF70B
:10210000DFFD0024F6E700BF0300200005002400E7
:1021100002001E00F4B6000000400E4038B500F486
:102120007813B3F5B01F05467FD02ED8B3F5402FF6
:1021300069D011D8B3F5802F54D006D843B1B3F588
:10214000003F5AD041F66B211AE0B3F5202FF9D1A8
:10215000BDE83840FFF760BBB3F5801F00F0A280F8
:10216000B3F5A01F57D0B3F5602FEBD15B48FFF755
:102170000BFF072800F096800928E9D04FF493510F
:102180005748FFF79DFD002036E0B3F5381F5AD0C1
:1021900013D8B3F5001F5FD00AD8B3F5D01F5DD0B8
:1021A000B3F5F01FCED14F48BDE83840FFF752BF1E
:1021B000B3F5101FC6D14C48F6E7B3F5481F57D00A
:1021C000B3F5781F00F08280B3F5401FBAD14748BD
:1021D000FFF740FF464B0446D3F82801C0F3012027
:1021E00004302BE0FFF718FB414BD3F80C31C3F35D
:1021F00008230133B0FBF3F038BDFFF70DFB3C4B78
:10220000D3F80831F3E7FFF707FB394BD3F8143164
:10221000C3F30423EDE73448FFF71CFF344BD3F836
:10222000303103F00303D840E6E72E48FFF712FFF2
:102230002F4B0446D3F8200100F00F00FFF78EFD6E
:10224000B4FBF0F0D8E72748FFF704FF284BD3F89A
:102250002031C3F30113E6E72448A5E72348FFF73D
:10226000F9FE234B0446D3F82801C0F30110E5E73B
:102270002048FFF789FE0138072824D801A353F826
:1022800020F000BF87210000C7220000C722000005
:10229000AB220000C7220000C7220000A5220000D8
:1022A000B3220000144B1868A6E7BDE83840FFF7DA
:1022B000EFBAFFF7B1FA0E4BD3F80031C3F30423A2
:1022C00003FB000098E741F2972159E7FFF7A4FAD2
:1022D00004462846FFF752FEB2E700BF06000E0094
:1022E000F4B6000002001E000500240003002000D8
:1022F00000400E40B800320038100020014B18801A
:10230000704700BF3C100020013838B50C46032848
:1023100064D8DFE800F002441A2FB1F5007F04D33F
:10232000324842F28961FFF7CBFC314AC4F308041A
:10233000D2F86838002BFBD12E4A136A23F4FF73BE
:1023400023F001032343136238BD7F2904D92748B2
:1023500042F29661FFF7B4FC254A04F07F01D2F8FF
:102360006038002BFBD1234B1C6924F07F040C4305
:102370001C61E9E77F2904D91C4842F2B161FFF7EB
:102380009FFC1B4A04F07F01D2F86438002BFBD17C
:10239000184B9C6924F07F040C439C61D4E7154DD5
:1023A000D5F890305B0704D5104842F2C161FFF7C1
:1023B00087FC6B6A23F0300343F010036B62C4F3B5
:1023C000C311CB1C2A6B0C490F2B01EA020128BF59
:1023D0000F23214341EA03712963B5E7BDE8384083
:1023E000024842F2DB61FFF76BBC00BFF4B60000AD
:1023F0000020C84300400E4000F8FF0F022810B52F
:102400000C4604D0144842F2F361FFF759FC134B19
:102410005B6A13F0300F1BD0202C16D0302C17D055
:10242000B4B10D4842F20E71FFF74AFC0C4B0B4A57
:10243000D2F8901033EA0101FAD15B024ABFD2F818
:10244000A0000120C0F3802010BD4FF40003EEE790
:102450004FF44003EBE700BFF4B6000000400E402D
:10246000FF33E107022808B50CD129B1094B4FF41D
:102470008060C3F8A80059664AB1BDE80840022050
:10248000FFF7BCBF044842F24471FFF719FC01207A
:1024900008BD00BF00400E40F4B6000004282DE93E
:1024A000F04704460F4691461FD83D4B3D4A13F86E
:1024B00000A03D4B13F80080F1B93C4B33F81030CD
:1024C0001366012303FA08F8D2F8903013EA080FD4
:1024D000FAD1B9F1000F5AD00125324A05FA0AF5AE
:1024E000D2F890302B42FBD151E0BDE8F0473048A4
:1024F00042F2D851FFF7E4BB2E4B022833F81060AC
:1025000047D1536A13F0300F43D12B4BDB6B5A0585
:1025100004D4274842F2E751FFF7D2FB214A536A1D
:10252000DB0705D5536A23F0300343F010035362F1
:10253000224D1C4BA8441E664FEA8808D8F800308C
:10254000002BFBD0B9F1000F21D05544AD002B6812
:10255000002BFCD0022C1AD1CFB1124F796A11F0A6
:10256000010118D0012220212046FFF77BFFD7F878
:102570009C40012200210220FFF790FFC4F30A01D2
:102580000220FFF7C1FE3E662B68002BFCD0BDE8A1
:10259000F0870027CCE72046FFF730FFE7E700BFD2
:1025A000CBB7000000400E40D0B70000E0B70000FD
:1025B000F4B60000D6B7000000300E408004F210E0
:1025C000112838B50C460FD000F00F00013807284D
:1025D00000F2EB80DFE810F0240066009A00E900CA
:1025E0007D00B400E900C200042912D1FFF750F9C0
:1025F0000546A8B10021284600F082FA023C0A2CC8
:1026000045D8DFE804F04A473137444444443D0F9D
:102610004D00052904D1664B1D68664B9D42E9D8E3
:102620000025EBE70320052401221146FFF736FFC2
:10263000FFF7A2FB0DB1FFF7B1FB5F4B5C67FFF744
:1026400015F90446FFF7E8F8FFF73CFBFFF7B4FB8A
:1026500001462046FFF7C6FB002D5DD1284601212B
:10266000BDE8384000F04CBA5448FFF72BFB02207D
:102670000446D9E75148FFF725FB01240320D3E79F
:1026800041F64C71BDE838404D48FFF719BB41F6A3
:102690005171F7E701200324C6E700200424C3E7B3
:1026A0000724C5E7062933D14548464D41F69071C8
:1026B000FFF706FB42484FF4FD51FFF701FBFFF720
:1026C000ABF8FFF7FFFA404B0122C3F808260323BB
:1026D00021E006293D4DEDD0013C092C2BD801A36A
:1026E00053F824F03D2700001B2700002927000095
:1026F0003727000037270000BF26000037270000DB
:10270000372700003727000015270000304DE3E78A
:102710002C4DE1E704232B6038BD01221146002037
:10272000FFF7BCFE0223F6E7012211461046FFF731
:10273000B5FE0123EFE741F6CB71A3E70023EAE7FB
:10274000072904D0092906D042F255019AE71A4B0D
:1027500000221A67E0E7184B0122FAE74C1E072C0B
:102760001ED8DFE804F0201D1D161D1D0F040322D6
:102770001149D1F85C3123F0300343EA0213C1F868
:102780005C31C9E7012211460420FFF787FE0122D0
:10279000EEE7012211460220FFF780FE0222E7E762
:1027A00042F2B3016EE70022E2E742F28A1169E7E2
:1027B0002C100020002D310100400E400148E8019E
:1027C000F4B6000080400E400010C84388400E4020
:1027D00084400E4010B504461120FFF7D5FB0428B5
:1027E00004D1274842F27341FFF76AFA012200211F
:1027F0000220FFF753FE63781BB9A3780BB9E37887
:1028000023B11F4842F2AF41FFF75AFA237C012B54
:1028100004D11B4842F2B641FFF752FA194A217C13
:10282000536A23F00103022908BF43F001035362F6
:10283000154B2178C3F8A014637AA18843EAC12319
:10284000D362136BA07A217A03F07F630343E0889D
:1028500043EAC02343EAC11303310F2928BF0F21E4
:1028600043EA01731363A37B617B1B0143EA0133DA
:10287000E17B0B43217B43EA0143536310BD00BF5F
:10288000F4B6000000400E400000C84370B5054695
:102890001120FFF779FB022804D10F4842F2315191
:1028A000FFF70EFA0D4E0E4BB26B2C7813401C4303
:1028B0006B7844EAC324AB7844EA0364EB7844EAD7
:1028C0000324B36BA34205D0002101220846FFF781
:1028D000E5FDB46370BD00BFF4B6000000400E40DB
:1028E00080E4FFF8EFF3108072B6704700B962B66B
:1028F0007047EFF31180602383F31188704780F3F2
:1029000011887047034B5868C0F30800003818BF9F
:102910000120704700ED00E0EFF31083DB0706D4E1
:10292000EFF311805F2894BF002001207047012041
:1029300070470000034BD86B80F04000C0F380105C
:10294000704700BF00300E4038B542EA0323B3F5AC
:10295000007F05460C463ED019D8B3F5807F36D0AF
:102960000AD883B3012B21D01F4840F68E11FFF700
:10297000A7F9002213461FE040F201129342F3D15F
:102980001A4BD3F824321A0EC3F3074314E0B3F5FD
:10299000407F24D040F20132934210D040F2012215
:1029A0009342E1D1114BD3F8283202E00F4BD3F818
:1029B0002432C3F30722DBB22B60226038BD0B4BFD
:1029C000D3F82832DFE7094BD3F81C32F1E7074B85
:1029D000D3F81C32D7E7054BD3F82032E9E7034B95
:1029E000D3F82032CFE700BF14B800000081E00F19
:1029F00008B5FFF79FFF20B1024AD2F8C830002B7C
:102A0000FBD108BD0000C6431A4B022810B5D3F80D
:102A100030320C4612D0032813D0012814BFDBB289
:102A2000C3F307231B0323F47042ECB95AB140F6F9
:102A30001D111148FFF744F9002010BDC3F30743EF
:102A4000F0E71B0EEEE70D49CA6E22F47042134305
:102A5000CB660120F1E70949D1F8EC2022F470425D
:102A60001343C1F8EC30F4E7002AF4D040F6291102
:102A7000DFE700BF0081E00F14B8000000300E4017
:102A8000F8B504460F46FFF755FF78B3FFF7B0FFE0
:102A9000174B5B68C3F301439C4227D0154BD3F817
:102AA0000061FEF7B9FE022C05460FD1124BC6F3AA
:102AB000042606FB00069E4204D9104840F231610C
:102AC000FFF7FEF802212846FFF78CF9C4F1020255
:102AD00010239340064A13610FB1FFF789FF2CB909
:102AE00021462846BDE8F840FFF77CB9F8BD00BF95
:102AF00000300E4000400E40002D310114B800009F
:102B000013B50246FFF716FFC8B152B90D4B01913C
:102B1000D3F80041FEF780FEC4F30422019902FBC2
:102B20000002094B1B7843B1084B9A4205D802209A
:102B300002B0BDE81040FFF7A3BF0020F8E702B0E5
:102B400010BD00BF00400E4036430020002D310173
:102B50000378134A002B437870B514BF042600266F
:102B6000002B8378946914BF02250025002B03797C
:102B700024F03F0443EA0403C47814BF0821002171
:102B8000012C08BF43F0010333432B430B439361F4
:102B90001368417923F4403343EA0143136070BD65
:102BA00000300E40224B4AF6E85210B5596B5A637A
:102BB0009A6FD207FCD41B6C13F003031EBF1D4A8F
:102BC0000124C2F8B44A834204D110B9194BC3F8A6
:102BD000B40A10BD032B00D09BB9431E012B10D8A3
:102BE000134A4FF40023D362936FDB07FCD4136CBA
:102BF00023F0030343F0010313640D4A536A1C03DB
:102C0000FCD50B4B9A6FD207FCD41A6C22F003024E
:102C100002431A649A6F12F00102FBD10038054C8E
:102C200018BF01200129C4F8B40A08BF5A63D0E7CD
:102C300000300E400000C6432DE9F04FA0F5E163DF
:102C400089B00024B3F5966FCDE90244CDE9044480
:102C5000CDE9064406468A46934605D940F6EE215C
:102C60005548FFF72DF8A3E0B0F5E16F534B8CBF4B
:102C70000122002249D1D3F81832C3F30721DBB275
:102C8000079104934FF416754FF4966748E0BBF133
:102C9000000F0ED0D9F85C2022F4FE4222F002028E
:102CA000B6F5E16F42EA012218BF02200243C9F8DB
:102CB0005C20BAF1000F26D020460021FFF7A4FEC9
:102CC000044610B940F64B31CAE701214046FFF7F0
:102CD0009BFE044610B940F65331C1E7384A536EA3
:102CE000BD4238BF3D4623F4FF73E72D23F00103B7
:102CF00028BFE725B6F5E16F18BF43F0010343EAAB
:102D00004503536654E0012452E0D3F81832190EFB
:102D1000C3F30743079104934FF496654FF4E167BB
:102D2000DFF89C90D9F84C400192C4F3017423461B
:102D300005A902A8FFF708FED9F8EC30019AC3F301
:102D40000128434606A903A8FFF7FEFD049BF01BDC
:102D5000079FF91A4143B1FBF5F299182CBF0123E3
:102D600000238F421ED3EBB9069A039FD31B434324
:102D7000B3FBF5F3FF182CBF01230023BA4211D394
:102D800083B9059B029AA3EB020C00FB0CF0B0FB8D
:102D9000F5F555192CBF01200020AB4202D30028C5
:102DA0003FF475AF044840F63C31FEF789FF00243C
:102DB000204609B0BDE8F08F14B800000081E00F94
:102DC00000300E40334A08B5136FD16C11F0010F7B
:102DD00003F0060344D0002B42D0132857D91438EF
:102DE00013288CBF102308232A49013BCA6C1803FF
:102DF00022F47F4240EA03231343CB64264BCA6C80
:102E00001B88C2F303222833013202EB820003EB5A
:102E10005303B3FBF0F3C86C013B072B28BF072318
:102E200020F0EE6040EA036343F48013CB641B4B55
:102E3000B3F90030002B12DB03F12800C0F34E037E
:102E40000344500800EB4202B3FBF2F20B6D072A79
:102E500028BF072223F0700343EA02120A6508BD67
:102E6000D16C01F00101194304D109280FD90A38A6
:102E70000928B6E7D26CD20702D50BB92728B0E7EC
:102E8000074840F69131FEF71BFF0023ACE704230F
:102E9000AAE700BF00300E40324300203443002038
:102EA00014B800000C4BD3F8803910B5044633B980
:102EB000012804D9094840F6AF31FEF701FF084A5E
:102EC000136F23F0070323431367064BBDE810403D
:102ED0001888FFF777BF00BF0000C64314B8000092
:102EE00000300E403043002038B55A4B02229A631E
:102EF0009B6B03F00F039342044607D0564840F6FD
:102F00004B21FEF7DDFE0025284638BD0389C82B7E
:102F100004D9514840F65521FEF7D2FEA2882389F4
:102F20009A4204D94C4840F65621FEF7C9FEB4F93E
:102F30000C30C82B04DD484840F65721FEF7C0FE90
:102F40006378012B55D1A388C82B04D940F65B21A7
:102F50004148FEF7B5FEE28842F210739A4204D966
:102F60003D4840F66821FEF7ABFEE3884A2B48D97E
:102F7000B3F5FA7F47D340F6C312934294BF4FF0A4
:102F800000524FF040523349B4F90C00CB6C23F09F
:102F9000405323F001030028A8BF43F0010313436B
:102FA000CB64D1F8EC30A28843F44073C1F8EC3024
:102FB0002A4B1A80CB6E43F08073CB66284BD3F834
:102FC000800900B10420FFF76DFF264B218919808D
:102FD000254BB4F90C20A0881A80FFF7F3FEA37BE1
:102FE000A3B1012B22D01C4840F6CE01FEF768FEAB
:102FF0000FE0022BAFD1A3880A2BACD94FF4266186
:10300000A6E70022BFE74FF08052BCE7114B174AFA
:103010009A65012260881146FFF70EFE054640B909
:103020000D4840F69F21FEF74BFE6DE7094B104A15
:10303000EEE7084AD36B43F48063D3636078FFF70D
:10304000B1FDA37AA3F1200253425341044AC2F8CE
:10305000943759E700300E4014B800003043002088
:103060000000C643324300203443002077402057FD
:10307000372110B738B50D46044618B3012824D0BF
:10308000022825D0032826D004280ED0052825D0D4
:10309000831F012B09D9082823D0092823D00A2807
:1030A00003D10723EB40DB0704D4104840F213415F
:1030B000FEF706FE30200E4B0121444301FA05F5D0
:1030C0001D5138BD40F2FF33ECE74FF6C073E9E71E
:1030D00040F6FF73E6E74FF47F43E3E74FF6FF73F5
:1030E000E0E70F23DEE74FF44043DBE7F0B40000F6
:1030F0000CA0004638B50D46044618B3012824D06C
:10310000022825D0032826D004280ED0052825D053
:10311000831F012B09D9082823D0092823D00A2886
:1031200003D10723EB40DB0704D410484FF4797137
:10313000FEF7C6FD30200E4B0121444301FA05F590
:103140001D5138BD40F2FF33ECE74FF6C073E9E79D
:1031500040F6FF73E6E74FF47F43E3E74FF6FF7374
:10316000E0E70F23DEE74FF44043DBE7F0B4000075
:103170000CA0004470B505460E461446FFF7B2FB9E
:10318000296881EA040202EA06044C402C60BDE88A
:103190007040FFF7ABBB0000032838B504460D466E
:1031A00007D9042808D0052803D0A0F10803022B72
:1031B00002D835F0011303D008487D21FEF780FDC9
:1031C0003020604300F180402A464FF00111BDE8F5
:1031D000384000F52040FFF7CDBF00BF77B80000B2
:1031E0002DE9F0410E4615461F46044600285FD0E3
:1031F000012860D0022861D0032862D004280ED0B4
:10320000052861D0831F012B09D908285FD0092820
:103210005FD00A2803D10720F040C30703D4374802
:10322000BF21FEF74DFD86EA050333F0030303D00B
:103230003248C121FEF744FD072D06F003064FF08A
:103240000F0149D84FEA85082D4804FA08F201FA1F
:1032500008F1FFF78FFF03212A4806FA08F201FA66
:1032600008F1FFF787FF1F2D03D927489121FEF7AB
:1032700027FD264C2C44A4001F2D276003D922488B
:103280009121FEF71DFD9DF81830C4F88030204ACA
:103290000123AB401F2DC2F8243403D91A489121D1
:1032A000FEF70EFD9DF81C30C4F80033BDE8F08138
:1032B00040F2FF30B0E74FF6C070ADE740F6FF7068
:1032C000AAE74FF47F40A7E74FF6FF70A4E70F206F
:1032D000A2E74FF440409FE7A5F108084FEA8808AD
:1032E0000C4804FA08F201FA08F1FFF743FF032142
:1032F000094806FA08F201FA08F1B2E777B80000C7
:1033000000A4004008A40040DBB800008020851025
:1033100000A0004004A400400CA40040F8B50D46F5
:1033200016461F460446D8B301283CD002283DD09B
:1033300003283ED004280ED005283DD0831F012B42
:1033400009D908283BD009283BD00A2803D10723F4
:10335000EB40DB0704D4274840F21D11FEF7B0FC18
:1033600026B1294620467FB3FFF784FE3020604314
:1033700000F18040072D00F5204028D84368AA00BE
:103380000F21914023EA010306FA02F2134343603E
:1033900076BB294620463FB3BDE8F840FFF76ABE3A
:1033A00040F2FF33D4E74FF6C073D1E740F6FF7326
:1033B000CEE74FF47F43CBE74FF6FF73C8E70F2309
:1033C000C6E74FF44043C3E7FFF794FECEE7A5F10D
:1033D000080382689B000F21994022EA010206FA45
:1033E00003F313438360D3E7BDE8F840FFF782BEE1
:1033F000F8BD00BF77B80000022838B504460D4676
:1034000003D911484C21FEF75BFC6B791F2B03D9C4
:103410000D484F21FEF754FCAB786A789B0143EAD4
:1034200082032A781343EA7843EA02132A7943EAAB
:10343000C2236A7943EA0233AA79043443EA424355
:103440002401024A135138BD3EB900000020044057
:10345000014B1860704700BF000084424278017938
:103460000378002A827870B514BF04260026002A4B
:10347000C27814BF10250025002A42794FEA023293
:1034800042EA012242EA0302837914BF2024002485
:10349000002BC37942EA034343EA0603027A43EA74
:1034A000050314BF4FF4004100212343002A14BF39
:1034B0004FF4003200220B431343014A136070BDE6
:1034C0000020044070B506460C46154622B90D484A
:1034D0004FF42271FEF7F4FB1CB90B48FEF71EFEF9
:1034E00004460A4B6D00013CB4FBF5F413EA0423D7
:1034F0004FEA042504D0034840F2A521FEF7E0FB83
:10350000756170BDA2B9000040410500070080FF51
:1035100038B51E4B1E4D984204460ED0A8420CD022
:1035200003F50063984208D003F58063984204D005
:10353000184840F22E41FEF7C3FB40F6AA63E36051
:1035400041F20502002323606260134AA3606361B5
:10355000E364A26423666367A367E3670B4B9C4243
:1035600009D0AC4207D003F500639C4203D003F5B9
:1035700080639C4201D1002323650023AC42A365F4
:1035800002D0064A944200D1E36538BD00000140F4
:1035900000040140A2B90000F9FF0100000C014045
:1035A00038B52A4B984204460D4610D003F5806387
:1035B00098420CD003F58063984208D003F58063ED
:1035C000984204D022484FF45671FEF779FB20460A
:1035D000FFF79EFFA97B2A8A2368002942F0010297
:1035E00014BF4FF48061002113430B432A7D2360F5
:1035F0002368002A14BF4FF00052002213432360B7
:10360000AB7C1BB1EB7C43F08003A3652B7B43F4C5
:1036100080536360D5E901122046FFF753FF6B7BAF
:103620000BB11023E3606B7D1BB1236843F480333F
:103630002360AB7DEA7D1B07120503F0E04302F433
:10364000E002134323662B78E36038BD000001409D
:10365000A2B9000003695B06FCD541637047000016
:103660002DE9F047374FDDE90884064615469946AF
:103670008A4641B9082323704FF4D963A360324BC3
:103680006760E360FEE75AB1531E134208D0082377
:10369000237040F2CB63A3602B4B6760E360FEE7CF
:1036A000FFF727F9002D08BF04254D4538BF4D46CB
:1036B000D6F808E06B1E13EA0E0FC5F1000202EA0D
:1036C0000E0208BF0025154409F1FF33AA4413EA8E
:1036D0000A0FC9F1000202EA0A0208BF4FF000090E
:1036E00002EB090372680132A2EB0E01A3EB0E0E8E
:1036F0007145844615491AD2B8F1000F02D09B1AC1
:10370000C8F80030162540F22273C4E90231257052
:1037100067606046FFF7F3F840F2D763A3600A4B97
:1037200025706760E36000252846BDE8F087B36038
:10373000002323704FF4E563C4E902316760FFF7AB
:10374000DEF8F1E707BA000096BA00007EBA000082
:1037500030B50C4685B011461D461BB9039200F0EA
:1037600019F80399064801950023009304220123C8
:10377000002C18BF2046FFF773FF05B030BD00BF17
:1037800040100020024B00221A6002F021BD00BF51
:1037900038670020FEE702F033BD0000014B1860DF
:1037A000704700BF386700201FB5104B1B78012BF6
:1037B00007D1FFF7A7F8B0B94FF0FF3005B05DF8BB
:1037C00004FB684600F06CF99DF800100029F3D165
:1037D00001206A4600F0F2FD9DF80000003818BF95
:1037E00001204042EAE76FF00500E7E7E46B0020C4
:1037F0001FB5FFF787F848B9074B1B78012B02D09C
:10380000684600F051F84FF0FF3001E06FF005001E
:1038100005B05DF804FB00BFE46B002070470000BA
:103820002DE9F041044608B9FFF7B4FFFFF76AF845
:10383000194E1A4D074638B12023237040F2193330
:10384000C4E902356660FEE7154B1B78012B08D0F2
:1038500002232370666040F21D33C4E90235BDE8DF
:10386000F081DFF8408098F80030F92B05D91E234D
:103870002370666040F22233EFE7FFF73AF898F8DA
:103880000030013388F80030FFF739F827706660A0
:1038900040F22D33E1E700BFB0BA0000B6BB000034
:1038A000E46B0020E56B002070B5044608B9FFF713
:1038B00071FF264B1E78012E09D013232370244B51
:1038C000636040F2F633A360224BE360FEE7224BD5
:1038D0001B88022B09D8092323701D4B636040F21B
:1038E0000143A3601B4BE360FEE71C4D2B784BB1FB
:1038F0001F232370164B636040F20443A360154BF3
:10390000E360FEE7FFF708F848B11F232370104B70
:10391000636040F20743A3600E4BE360FEE701F0F3
:1039200053FA0F4B0F4A18700F4B2E7018700C2360
:1039300058430E4B1B5813600D4A136001F0F2FC04
:1039400002F084FCBDE87040FFF724BFC668002089
:10395000B0BA00008BBB0000006D0020E46B0020BB
:10396000DB680020F46C0020DA680020E4680020A6
:10397000F06C002008B501F027FAA0F1400358428E
:10398000584108BD30B14368C1F8E8308368DB684E
:10399000C361704791F83030022B03D0072B05D05C
:1039A000034B00E0034BC1F8E8307047024BFAE7E5
:1039B000C8C4000023BB00002ABB0000044BC1F8B0
:1039C000E83018B1826802B1D368C361704700BFA4
:1039D000C8C400000023C0E90033038170470368B6
:1039E00010B533B901220281C1E909330160416098
:1039F0001CE0028991F833400132028193F83320B0
:103A0000A2420CD85B6A002BF8D14B6243688B62F0
:103A10005962ECE7C1E909325162996206E09A6A9B
:103A2000002AF7D1C1E909329962016010BDC36A69
:103A30005BB19A68526A4AB9C3E902221A8A013A0A
:103A40001A820023C0E90933C3627047D0E9092113
:103A500011B991629A60F1E74A620AB9D960EDE75B
:103A60009162EBE738B5C56AAB685B6A4BB1FFF7AB
:103A7000DEFFC562014605F10800BDE83840FFF7EA
:103A8000AEBF38BD054B40220021013AC3E9001109
:103A9000198103F10C03F8D1704700BFE4680020DE
:103AA000F8B5044608B9FFF775FE964D6A68D2B1BD
:103AB0002B68954E4BB92346296B94489200FFF72B
:103AC00047FE306023780BB1F8BD3360904B32680D
:103AD0001A60904A6B6813608F49904A9B0013608C
:103AE0000A6813440B602A89B2B12346296B8C48BB
:103AF0001201FFF72DFE8B4B18602378002BE3D1CA
:103B0000894B8A4A18602B8913808349884A1B0194
:103B100013600A6813440B606A69002A27D02B6976
:103B2000844E002B62D12346296B83489200FFF715
:103B30000FFE30602378002BC6D1804B2A7E1A708E
:103B40007F4BEA691A607F4B32681A606B69EA68DA
:103B500064215A43B2FBF1F27B490A607B4A6E4909
:103B600013607B4A9B0013600A6813440B606A6A07
:103B7000002A28D02B6A774E002B39D12346296B97
:103B800075489200FFF7E4FD30602378002B9BD14D
:103B9000724B95F828201A70714B32681A606B6A64
:103BA000EA6864215A43B2FBF1F26E490A606E4A38
:103BB000E96A13606D4A9B0013606D4A11605649B3
:103BC0000A6813440B606B4E6B6B336002F0EAFBC8
:103BD00003F0DAF9054668B101232370664B636090
:103BE0004FF4D773A360654BE3606DE73360A4E7E0
:103BF0003360CDE703F0C8FA3368984209D209234D
:103C000023705D4B63604FF4D973A3605B4BE3603B
:103C1000FEE703F0B9FA3368594F984240F0D88074
:103C20003D603268B2F57A7F07D900230020012178
:103C300004F02EFF4FF47A754543524B524A1D60F3
:103C400000231370514A1370514A1360514A136094
:103C5000514A1370514A1370514A2046137002F0B2
:103C600025F80A23B0FBF3F04E4B18602578002DA1
:103C70007FF42AAF274A136853B12549086838B141
:103C80000146013B41F8045BFBD1116801F078FD6E
:103C9000454B00251D7001F08FF8FFF7F3FE434BF5
:103CA0001D60434B1D80214B1B88002B40F09C80E6
:103CB000404A00231360404A1380404A1360404A40
:103CC0001380404A1360404A2046138001F0D4FC20
:103CD0002378002B7FF4F8AE204601F0EFFA23782A
:103CE000002B7FF4F1AE204602F0A8F92378002BD8
:103CF0007FF4EAAE00F018FCFFF790FD334B012291
:103D00001A70E1E6541000204067002033BB000029
:103D100044670020486700203C6700204C67002073
:103D200046BB000050670020546700205867002001
:103D30005C6700206867002058BB000060670020B7
:103D4000646700206C6700207067002074670020A3
:103D5000786700208867002071BB00008067002022
:103D60008C670020906700209467002098670020EF
:103D7000846700207C670020B0BA0000C2BB00004E
:103D8000A06700209C670020E46B0020E56B00200A
:103D9000F06C0020F46C0020DA680020DB68002062
:103DA000EC6B0020E86B0020026D0020C068002052
:103DB000C4680020D4680020D8680020DC68002097
:103DC000E0680020F06B0020F46B0020C668002043
:103DD00003F0DAF92B4602460121002004F058FED8
:103DE0003368584338601CE7204600F0E9FC23782C
:103DF000002B3FF45DAF67E690F833300B490C229F
:103E0000534330B5CA58CC1832B901252581C0E9D1
:103E10000422C850606030BD258901352581002409
:103E2000026144615061C850F5E700BFE4680020BA
:103E300090F833200B490C235A4330B58C588B181B
:103E400034B901251D81C0E904448850586030BD53
:103E50001A8901321A81002202615A684261106196
:103E6000F4E700BFE468002010B5044690F8330082
:103E700000F0BAFF084B94F833201B789A42204692
:103E800006D1FFF7D5FF2046BDE8104004F0BBB8CF
:103E9000FFF7B2FFF7E700BFDA68002038B50C463D
:103EA00091F8321007290546049807D802390529E8
:103EB00006D8DFE801F0060605052525FF293AD1D9
:103EC00038BD6267A4F87830606415B12046FFF70A
:103ED000AEFD21462846FFF771FD94F83230032BE2
:103EE00006D104F1540003F089F808B1FFF752FC41
:103EF0002046FFF7B9FF0023238684F83230DFE73E
:103F00006267A4F87830606415B12046FFF78FFD32
:103F100021462846FFF752FD94F83230072B06D190
:103F200004F1540003F06AF808B1FFF733FC0023F2
:103F300023860423E1E7BDE83840FFF72BBCD0E936
:103F40000032934210B50FD01C690021A24215BF68
:103F50006161C3E90412C3E90412C2E9043116BF66
:103F6000136102600460436010BD000070B5044638
:103F7000D4E9043590F83300124A0C21BDB973B965
:103F80004143551853502B816B6000F043FF0023D1
:103F9000C4E904332046BDE8704004F04AB8484301
:103FA00016183189013931815D611350EFE701FB4A
:103FB00000221189013911812B610BB95560E6E7A7
:103FC0005D61E4E7E468002013B5044670B1084B76
:103FD0001B78012B0AD10023CDE90033054A016F7C
:103FE0000346054803F068F8044B1C6002B010BD9E
:103FF000EC6B00209D420000A8670020A467002011
:10400000F8B50446A8B1114B1B78012B11D1C56E30
:104010000F4E7DB90F4B1F6803F0B6F832682B4680
:10402000511E0D461946E7FB0051284604F030FDAD
:104030002067F8BD03F0A8F832680023511E0E4631
:104040001946E5FB00613046F0E700BFEC6B00204D
:104050007C670020E86B00202DE9F7435E4B1B785E
:10406000012B00D0FEE75D4B93F80080B8F1000F04
:1040700040F09680FEF73DFC594F5A4C97F800905F
:10408000594D064600F0A0FE40280346387000F067
:104090008A800C20DFF85C814343B9F1400F58F867
:1040A0000330236003D101F02FFAAFF300802268C0
:1040B0002B68DFF844919A4218D1002001F04CFBA4
:1040C000012802D0286802F08BF999F800303BB142
:1040D0002068036F0BB9FFF793FF2068FFF774FFA9
:1040E000304603B0BDE8F043FEF709BC99F8003054
:1040F0001BB3DFF80891D9F800301B6FEBB13B48D8
:1041000001A902F0FDFF30B9D9F80030019A374813
:104110001A6702F073FFD9F800301A6F6AB993F882
:10412000330000EB400008EB8000FFF708FF3B780E
:104130000C22534358F8033023602268D2F8BC3075
:104140000133C2F8BC302A4A1368013313603B784C
:10415000402B33D02B682268934215D0A3B102F0D4
:104160004FF82B68D3F8C43098421FD302F048F8B8
:104170002B68D3F8C430C01A2A68D2F8C830C2F805
:10418000C0001844C2F8C800246802F039F8C4F826
:10419000C40002F09AF83046FEF7B1FBBFF36F8F10
:1041A00003B0BDE8F083C4F80080CCE702F028F843
:1041B0002B68D3F8C420D2431044DDE701F09CF90A
:1041C0002C681CB102F01CF8C4F8C40003F0BAFD5E
:1041D000AFF30080DDE700BFE46B0020E56B00205B
:1041E000DB680020F46C0020F06C0020A867002041
:1041F000F86C0020E4680020EC6B0020A46700202D
:104200002DE9F041044608B9FFF7C4FAFEF77AFB3E
:104210001E4F1F4E38B12023237040F24533C4E9AE
:1042200002366760FEE71B4B1B78012B08D0022388
:104230002370676040F24933C4E90236BDE8F0817B
:10424000DFF8548098F800302BB91F232370676083
:1042500040F24E33F0E7FEF74CFB98F80050013D7A
:10426000EDB288F800503DB1FEF749FB2D232370D5
:10427000676040F25633DFE7FEF741FBFFF7ECFEE5
:10428000257067604FF45873D6E700BFB0BA0000DE
:10429000A8BB0000E46B0020E56B002038B50E4B96
:1042A0001B78012B0D4616D1FEF723FB00232B674D
:1042B0000A4B1B6893F833300446094803EB430369
:1042C00000EB8300FFF73BFE2046FEF718FBBDE83E
:1042D0003840FFF7C1BE38BDEC6B0020A46700205A
:1042E000E4680020F8B50C46FEF703FB94F8323082
:1042F000013B0746062B48D8DFE803F05447044744
:104300005B47040094F83030042B08BFE36A4FF099
:10431000000608BF5D6A6667A4F8786018BF354676
:1043200001F06EFF60642046FFF781FB94F83230A5
:10433000032B31D1FFF798FD84F832604FF44073BE
:10434000238615B395F8333095F834209A421CD063
:1043500094F833209A4218D1284600F01DFC95F8B5
:104360003430834228BF0346D9B295F833308B42AC
:104370000BD0284601F042FB284603F00FFA95F8CF
:10438000332001462E2003F0B7FB3846FEF7B7FA7C
:10439000BDE8F840FFF760BE072B04BF042384F894
:1043A0003230CBE7002384F832302046FFF75CFD43
:1043B000EBE7042384F83230E7E700002DE9F04111
:1043C00005460E4614460AB9FFF7E4F900232370A8
:1043D0001E4B636040F27D33A3601D4BE360FEF72C
:1043E00088FADFF880800746E6B1C8F80060194B0C
:1043F000012D1A781FD0012A0FD1174C17482168B8
:10440000002570311D7002F07BFE08B123681D6726
:10441000124802F0F3FD002323603846BDE8F04166
:10442000FEF76DBA204601F041FC0A23B0FBF3F021
:10443000C8F80000DBE7002AEFD1094C1D702068A6
:10444000FFF7DEFD2068FFF7BFFDE6E7B0BA00002A
:1044500093BB0000EC6B0020A4670020A86700203D
:10446000F06C0020E86B0020F7B504460D4611B350
:1044700002F08AFE114B1A680026571E46F1FF31E2
:10448000E5FB00713346384604F002FBCDE90066D7
:1044900001460B4A234604F1540002F00DFE08B118
:1044A000FFF778F90323204684F8323003B0BDE8E3
:1044B000F040FFF75BBD0223F5E700BF7C670020FB
:1044C000E542000037B5144D0B4611462A6882F8C4
:1044D0003030002382F83130104A127804463AB165
:1044E0000F4A104812680191136702F087FD019985
:1044F0002868FFF7B9FF64B1296804F10800CC62AD
:10450000FFF76DFA2968204603B0BDE83040FFF799
:1045100039BA2B68DC62F5E7F06C0020EC6B002008
:10452000A4670020A8670020774B1B7882B0DBB21D
:104530008DF80530754B1B68DBB28DF80730744B76
:104540001B78DBB28DF80530724B1B78DBB28DF82F
:104550000530714B1B68DBB28DF807306F4B1B6A5F
:10456000DBB28DF807306E4B1B78DBB28DF805306F
:104570006C4B1B78DBB28DF805306B4B1B88DBB2C4
:104580008DF80630694B1B88DBB28DF80630684B1E
:104590001B78DBB28DF80530664B1B88DBB28DF8DB
:1045A0000630654B1B88DBB28DF80630634B1B88E9
:1045B000DBB28DF80630624B93F82830DBB28DF811
:1045C0000730604B1B78DBB28DF805305E4B1B88E3
:1045D000DBB28DF806305D4B1B88DBB28DF8063000
:1045E0005B4B1B88DBB28DF806305A4B1B88DBB265
:1045F0008DF80630584B1B88DBB28DF80630574BD0
:104600001B88DBB28DF80630554B5B8DDBB28DF825
:104610000730544B1B78DBB28DF80530524B1B88AA
:10462000DBB28DF80630514B1B78DBB28DF80630CB
:104630004F4B1B6ADBB28DF807304E4B1B78DBB259
:104640008DF805304C4B1B88DBB28DF806304B4B98
:104650001B88DBB28DF80630494B1B68DBB28DF846
:104660000730484B1B78DBB28DF80630464B1B7881
:10467000DBB28DF80530454B1B78DBB28DF8053089
:10468000434B1B78DBB28DF80530424B1B78DBB215
:104690008DF80530404B1B78DBB28DF805303F4B71
:1046A0001B78DBB28DF805303D4B1B88DBB28DF8F3
:1046B00006303C4B1B78DBB28DF805303A4B1B883B
:1046C000DBB28DF80630394B1B88DBB28DF8063033
:1046D000374B1B78DBB28DF80530364B1B88DBB2CD
:1046E0008DF80630344B9B8CDBB28DF80730334BA2
:1046F0001B88DBB28DF806309DF805309DF806303A
:104700009DF8073002B070479410002090100020F0
:104710008C100020C067002098100020C467002083
:104720009C100020EC6700209E100020A0100020AC
:10473000A2100020A8100020A4100020A610002025
:10474000F0670020AA100020AC100020AE1000205E
:10475000B0100020B2100020B4100020B6100020CD
:1047600020680020B8100020BA100020C4100020DB
:1047700050680020C5100020C6100020BC1000208A
:10478000C0100020CA100020C8100020C91000204E
:10479000CE100020CF100020D1100020D01000201B
:1047A000D2100020D4100020CC100020D610002001
:1047B000D8100020DA10002078680020DC100020DB
:1047C000154BF0B51C68154B1E880025721E04F1B0
:1047D000100192B22B46AFB2BA4213D8110104EBCA
:1047E0000212635053601381D3600D4A1381D3804A
:1047F0009680146003700B4B43605D2383600A4B0B
:10480000C360F0BD41E9041321F8083C41F8043CC1
:1048100001351031DFE700BF5467002058670020E2
:10482000C8680020C9BB00003BBC0000428910B52D
:1048300082B1094B01681C680C6041681960D98815
:10484000891AD9809988114499800023C0E90033DE
:1048500043818381104610BDC868002038B50446E6
:104860000D461022002104F0E3FA258138BD000036
:104870002DE9F74F0C9C06468A4617461D460CB993
:10488000FEF788FFFEF73EF848B120232370864BE1
:10489000636040F23313A360844BE360FEE74EB9DC
:1048A0000A232370804B63604FF49B73A3607F4B9C
:1048B000E360FEE7C7F30E034BB1082323707A4B86
:1048C000636040F23913A360784BE360FEE732681F
:1048D000774B9A4209D00C232370734B636040F2EC
:1048E0003D13A360714BE360FEE73FB2002F0CDB8A
:1048F000FEF712F848B11F2323706B4B63604FF42F
:10490000A073A360694BE360FEE76A4B93F80090E5
:10491000B9F1010F1CD1FDF7ECFF96F82830DFF854
:104920009CB18046F3B9DBF80030736286F82890BA
:104930000DB1F26A2A609A6B326240469E63FDF7BF
:10494000DEFF00232370584B63604FF4AA7305E029
:1049500002232370544B636040F24513A360534B12
:10496000E36014E0D6F82490DBF80020914521D1D3
:10497000FF2BDFF834914D4F0CD1FDF7C0FF1E2304
:104980002370C4F8049040F25D13C4E9023703B009
:10499000BDE8F08F013386F828300DB1F36A2B6043
:1049A0004046FDF7ACFF23232370C4F8049040F287
:1049B0006913EAE7002F0BDAFDF7A1FF0DB1002321
:1049C0002B601D232370384B63604FF4BB73C5E726
:1049D000394B1B785BB1FDF792FF0DB100232B60C3
:1049E0002D232370304B63604FF4C173B6E792F808
:1049F000331099F833308B420BD9484600F0FEFF54
:104A0000484602F0CBFE99F8332001462D2003F0F2
:104A100073F8524604213046FFF754FD4046FDF737
:104A20006EFFFFF719FBFDF764FFDBF8003093F82A
:104A30003120032A32D8DFE802F00213271D0DB11E
:104A40005B6C2B6000232370174B63604FF4D073B3
:104A5000A360164BE36003B0BDE8F04FFDF74FBF16
:104A60000DB15B6C2B60212323700F4B63604FF4FF
:104A7000D573EDE70DB100232B60222323700A4B81
:104A800063604FF4DA73E3E70DB15B6C2B603123A5
:104A90002370054B63604FF4DF73D9E70190FEF795
:104AA00079FE0198D7E700BF4ABC0000CABC0000ED
:104AB0004D555458E46B0020E56B0020F06C00204D
:104AC000054B064AC36100234361136883610BB938
:104AD000106070475861FBE7C8C40000D46800202C
:104AE0002DE9F04705460F4614460AB9FEF752FE77
:104AF000FDF708FFDFF88090DFF88080064638B1C8
:104B0000202323705223C4E90238C4F80490FEE73E
:104B10003DB90A2323705523C4E90238C4F8049030
:104B2000FEE7FDF7E6FE302231468246284604F0D5
:104B30007FF90F4B05F10800C5E90037FEF74AFF82
:104B40002846FFF7BDFF0B4A13880133138029461F
:104B50003A46292003F0DCFA5046FDF7D0FE6C23DC
:104B60002670C4E90238C4F80490BDE8F08700BF9D
:104B70004D555458D86800204ABC0000D6BC0000EF
:104B8000836B00F138028B42186A01D110607047C4
:104B900003F120020346F6E7836B3F2003B9704719
:104BA0009A6822B192F83320904228BF10461B6ABF
:104BB000F4E700002DE9F04F054685B08B4614461A
:104BC0000AB9FEF7E7FDFDF79DFEDFF89481604F1F
:104BD00040B12023237040F25723C4E90237C4F8C0
:104BE0000480FEE745B90A23237040F25A23C4E942
:104BF0000237C4F80480FEE7CBF30E0343B1082369
:104C0000237040F25D23C4E90237C4F80480FEE754
:104C10002A68504B9A4208D00C23237040F261233B
:104C2000C4E90237C4F80480FEE74B4B1B78012B24
:104C30000AD002232370C4F8048040F26523C4E93B
:104C4000023705B0BDE8F08FDFF818A1FDF751FE7F
:104C50006A6ADAF800309A42814608D0FDF74FFEC2
:104C60001B232370C4F804804FF41B73E7E701F0A3
:104C7000C7FA95F828300290013BDBB2E86285F86C
:104C800028304BB14846FDF73AFE23232370C4F881
:104C9000048040F27D23D2E7DAF800002946FFF7CE
:104CA0006FFFAE685EB96E6285F828604846FDF712
:104CB00026FE2670C4F8048040F28A23BFE7DAF8A3
:104CC000001091F8333091F834600393B34220D050
:104CD0000846FFF761FFB04228BF3046039BC6B2CB
:104CE000B34216D20846FFF741F9DAF8000080F81F
:104CF000336002F053FD324601462E2002F0FCFEE6
:104D0000304600F071F8DAF80000FFF791F8134B25
:104D10001E70A9686962012385F828308B6B2B62AD
:104D2000029B8D63009300231A462846FFF7B6F8CE
:104D30004846FDF7E4FD1BF4004F01D1FFF78CF965
:104D400000232370C4F8048040F2AD2377E700BF4E
:104D5000BEBC00004D555458E46B0020DA680020BA
:104D60004ABC0000F06C00202DE9F341846B05463D
:104D7000012714B902B0BDE8F081D4F8208001F019
:104D80003FFA2146E06206462846FFF7F9FEA16891
:104D900021B984F8281061624446EAE784F8287053
:104DA0008B6B2362002365621A468C632046009653
:104DB000FFF774F8F0E70000024B0022C3E900227D
:104DC000704700BFA868002008B5064B186828B9CE
:104DD000586801F02FFA2030C0B208BD01F02AFA5D
:104DE000FAE700BFA86800201F28094A07D84FF03B
:104DF000004323FA00F01368034313607047012354
:104E0000C0F13F0003FA00F0536818435060704748
:104E1000A86800201F280A4B08D84FF0004222FA49
:104E200000F01A6822EA00021A6070470122C0F1FD
:104E30003F0002FA00F05A6822EA00025A60704706
:104E4000A86800202DE9F3470A9C074689461646C4
:104E50001D460CB9FEF79EFC0FFA86FABAF1000F58
:104E60000ADABFB90A2323706A4B63604FF4937365
:104E7000A360694BE360FEE7FDF744FD0028F0D036
:104E800020232370634B63604FF49173A360624BE4
:104E9000E360FEE7C6F30E064EB1082323705D4BB8
:104EA000636040F22913A3605B4BE360FEE73A685E
:104EB0005A4B9A4209D00C232370564B636040F240
:104EC0002D13A360544BE360FEE7BAF1000F0CDB37
:104ED000FDF722FD48B11F2323704E4B63604FF452
:104EE0009873A3604C4BE360FEE74D4B1B78012B9E
:104EF00017D1FDF7FEFC3E6A804606B3013E3E62D6
:104F00000DB17B6A2B6040463E6AFDF7F8FC00233A
:104F10002370404B636040F24313A3603E4BE36059
:104F200009E0022323703B4B636040F23513A3601A
:104F3000394BE3600026304602B0BDE8F087BAF195
:104F4000000F0CDA05B12E6040463E6AFDF7D7FC33
:104F50001D2323702F4B636040F25113DDE7314B6B
:104F60001B785BB105B12E604046FDF7C8FC2D23D0
:104F70002370284B636040F25D13CEE74A4606215A
:104F80003846FFF79FFA4046FDF7B9FCFFF764F893
:104F9000FDF7AFFC244B1B6893F83120032A31D86E
:104FA000DFE802F00212261C0DB15B6C2B600023BF
:104FB0002370184B63604FF4BA73A360164BE36021
:104FC0003E6AFDF79CFCB6E70DB15B6C2B602123BC
:104FD0002370104B63604FF4BF73EEE70DB10023F5
:104FE0002B60222323700B4B63604FF4C473E4E700
:104FF0000DB15B6C2B6031232370064B63604FF463
:10500000C973DAE70190FDF77AFCFEF7C3FB01985C
:10501000D6E700BFE4BC000060BD000053454D4131
:10502000E46B0020E56B0020F06C00202DE9F347D5
:105030000646884614460AB9FEF7ACFB4EB90A2369
:1050400023703E4B636040F22623A3603C4BE36039
:10505000FEE747F6FF5518EA050509D00823237037
:10506000364B636040F22923A360354BE360FEE7D3
:105070003268344B9A4209D00C2323702F4B636063
:1050800040F22F23A3602E4BE360FEE72E4B1B78EC
:10509000012B09D002232370284B636040F2332395
:1050A000A360274BE36038E001F0AAF88146FDF7E2
:1050B00020FCB7680546F7B108F4007A00233946AA
:1050C0001A467F6ACDF800903046FEF7E7FEBAF147
:1050D000000F01D0002FF1D12846FDF710FC18F485
:1050E000004F01D1FEF7B8FF144B63600025257017
:1050F00040F26523D4E7356ADFF840A0DFF840804E
:105100006B1C0ED1FDF7FBFB1E2323704FF41173B4
:10511000C4E90238C4F804A03D46284602B0BDE800
:10512000F0870135C6E90859FDF7E9FB40F24F2346
:10513000C4E902382770C4F804A0EEE7E4BC00001C
:1051400056BD000053454D41E46B0020054B064A17
:10515000C36100234361136883610BB9106070471A
:105160005861FBE7C8C40000F06B00202DE9F84F40
:1051700005460F4693461C460BB9FEF70BFBFDF7A1
:10518000C1FBDFF88490DFF88480064638B1202325
:1051900023705823C4E90238C4F80490FEE73DB9EF
:1051A0000A2323705B23C4E90238C4F80490FEE7A5
:1051B000FDF79FFB282231468246284603F038FE41
:1051C0000F4B2B6005F10800C5F820B06F60FEF7AB
:1051D00001FC2846FFF7BAFF0A4A138801331380FF
:1051E00029463A462F2002F093FF5046FDF787FBF1
:1051F00073232670C4E90238C4F80490BDE8F88F20
:1052000053454D41F46B0020E4BC00006ABD000032
:10521000F8B5064608B9FEF7BDFAFDF76AFB1F4B65
:1052200000251D801E4B1D601E4B1D601E4B1D81E9
:10523000FDF765FBFDF75DFB1C4B1C68FDF75FFB95
:1052400074B9FDF756FB1A4B1D68FDF758FB05BBFB
:10525000184B7360A423B3603570174BF360F8BD2F
:10526000FDF747FBC4E93255C4F89050C4F8D45058
:10527000C4F8BC50A4F8B650A4F8B850074600F0E3
:10528000BFFFA4F88850C4F8C400D4F8E4403846FE
:10529000D4E7FDF72EFBAC85AD69D6E7FA6B0020AD
:1052A000EC6C00202C6E0020C8680020FC6C0020F4
:1052B000DC68002076BD0000FCBD000000B5104A8F
:1052C000104900231370104A8BB013700322CDE9EC
:1052D0000632CDE904330D4A0890126803920C4A55
:1052E0000C48126802920C4A126801920B4A12781A
:1052F00000920B4A00F04EFA0BB05DF804FB00BFC1
:10530000FC6B0020E9BD0000F66B002074670020F4
:1053100070670020006C00206C6700206067002030
:105320003553000008B500F06BFF014B186008BD55
:10533000BC6800202DE9F04F85B06846FFF768FF94
:10534000684600F0B3FC9DF8003005460BB1FEF74F
:1053500021FA5C4B18684FF00008A842C24642F29E
:10536000107728BF0A20B5FBF0F500F049FF564E34
:10537000814600F045FF3368984267D300F040FF54
:105380003468041BFDF7B5FA504BD3F800B0C3F8EE
:1053900000A0FDF7B4FA4E4B9C425DD94D4B9C42A8
:1053A0005ED94D4B9C425FD34C4B9C4295BF4FF412
:1053B0007A7038460A2601260BFB06F3B4FBF0F49C
:1053C000B3FBF4F39BB2BB42454A28BF3B46138074
:1053D000444AFB1A9BB21380434A1188994203D274
:1053E000B8F1000F00D01380DFF808B1FDF781FAA3
:1053F000DBF80080FDF783FAB8F1000F37D1FDF735
:1054000078FADBF80080FDF77AFAB8F1000F3BD1AB
:10541000364B1A78012A04D1684683F80080FFF7DA
:10542000F7FE00F0E9FFFFF77DFF00F0E9FE304BEB
:105430001A68A0EB0900824238BF18606A46002152
:10544000284600F045FC4FF001088EE700F0D8FE3A
:105450003368DB431C1895E7012042F21076ABE776
:105460000A204FF47A76A7E764200646A4E7FDF702
:1054700040FAD8F8C830C8E932A3FDF740FAFDF782
:1054800038FAD8F8E480B5E7D8F8CC30B8F8B820C6
:105490007343B3FBF4F39BB2BB4228BF3B469A4233
:1054A00038BFA8F8B830A8F8B63008F1D80208F12B
:1054B000DC0140466B4600F041F8FDF71AFAD8F8D7
:1054C000E480A0E764670020BC680020B868002082
:1054D0007F1A0600FF083D00005A6202FF83D717BB
:1054E000B0680020F86B0020FA6B0020F66B0020FB
:1054F000EC6C0020FC6C002008B500F081FE014B34
:10550000186008BDB468002010B50A4C00F078FEA1
:105510002368984208D300F073FE2368C01A064A35
:1055200013681844106010BD00F06AFE2368DB4366
:105530001844F4E7B4680020B86800202DE9F04171
:1055400005460F4616461C460BB9FEF723F9FDF734
:10555000D9F948B1202323702F4B636040F2BC631C
:10556000A3602E4BE360FEE74FB90A2323702A4B5A
:10557000636040F2BF63A360284BE360FEE74EB96F
:105580000A232370244B636040F2C163A360234B62
:10559000E360FEE7FDF7ADF90DB9214B1D68D5F8C5
:1055A0000080B8F1000F10D1FDF7A9F90823C7F862
:1055B0000080C6F800802370174B636040F2CC6314
:1055C000A360164BE360BDE8F081B5F8408018F0A9
:1055D00001080CD1FDF793F90723C7F80080C6F83E
:1055E000008023700C4B636040F2D463E8E7FDF762
:1055F00086F9AA6900231C3252F8041F51B13B609E
:10560000EA6BD31A336000232370034B636040F2CC
:10561000EF63D5E70133EFE708BE0000A4BE00004A
:10562000F06C0020064A0023C0F8E0301368C0F890
:10563000E4300BB910607047C3F8E000FAE700BF30
:10564000FC6C0020D0E9382342B90A490B600BB149
:10565000C3F8E0200023C0F8E4307047C2F8E4301B
:1056600013B9C0F8E0307047C3F8E0200023C0F859
:10567000E430F6E7FC6C0020074A00231360074A79
:105680001380074A13600370064B436040F6210302
:105690008360054BC3607047FC6C0020006D0020E8
:1056A000F86C002008BE000081BE000038B5EC2276
:1056B0000446002103F0BCFB1D4BE36000250021E4
:1056C00004F17C00FFF7CAF8C4E92355C4E92B555F
:1056D000C4E92555C4E93455C4E93655C4E91B5518
:1056E000C4E92F55C4F8A050A4F8A850C4F8A45099
:1056F000C4F89C50A564E56384F8B450A4F8405005
:10570000256584F84C50A4F8B650A4F8B85000F0C1
:1057100077FD4FF080432363402384F83430054BFA
:10572000A563C4E93105C4E93855C4F8E83038BD8B
:105730007BBE0000C8C40000064A031F1C3053F89B
:10574000041F914203D18342F9D101207047002008
:10575000704700BF4523CDAB08B9084B18680268F5
:1057600083699A4207D3C16B03EB8100824202D264
:105770001846FFF7E1BF0020704700BFF06C002023
:10578000034A031F1C3043F8042F8342FBD17047A8
:105790004523CDAB2DE9F04F89B0DDE9136A0593C0
:1057A0009DF848300493BDF858300693DDE917930F
:1057B0001A9C0793BDF86430159F039205468846EE
:1057C00002930CB9FDF7E6FFFDF79CF8834A844B82
:1057D000834630B16260F022C4E9022320212170A7
:1057E000FEE735B96260F322C4E902230A21217081
:1057F000FEE7039931B96260F622C4E902230A2167
:105800002170FEE736B96260F922C4E902230A2159
:105810002170FEE773490968B94206D96260FC222B
:10582000C4E9022308212170FEE7574506D86260CB
:10583000FF22C4E9022308212170FEE704993F29D1
:1058400007D962604FF48172C4E9022308212170F4
:10585000FEE7654906980988814207D262604FF4E5
:105860008372C4E9022308212170FEE72846FFF76E
:105870001DFF5B4B594AE360029B626040F20B12D2
:10588000A2609A0784F800B040F08A80029B0599D4
:1058900003982AF0070A06EB8A0ACDE9007332461C
:1058A000534600F0ADFD864283460AD93223237069
:1058B0004A4B63604FF49473A360494BE360FDF778
:1058C00069FF39463046FFF75BFF039BEB61059BA1
:1058D0002B62049B454CC5F80C8085F8333085F865
:1058E0003430C5F800B0C5F808A0C5F86C90B9F11F
:1058F000000F62D13E4BD3F800A001F045FC2268B6
:10590000511E0C4649464B46EAFB0041204603F037
:10591000BFF8079B6B60029BA5F8403005F17C0443
:105920000023C5E925330699C5F89C302867AE6188
:105930002046EF63FEF792FF284600F05EFD284602
:1059400002F012FAEB6B95F83320E96800932846D1
:10595000AB6902F091FB42462946262002F0D8FBB3
:1059600042462146232002F0D3FBFCF7C2FF044647
:1059700095F83300FFF738FA2846FEF759FA28461B
:10598000FFF750FE1B4A1388013313801A4B1B7814
:10599000012B20461BD009B0BDE8F04FFCF7AFBF8C
:1059A000029B9B077FF572AF00231A4602E046F880
:1059B00023200133BB42FAD168E701F0E5FB2268FE
:1059C0000023511E0C461946E9FB00419EE7FCF7F7
:1059D00096FF09B0BDE8F04FFEF73EBB08BE0000E1
:1059E00097BE0000ACBA0000586700207C6700201A
:1059F000E86B0020006D0020E46B002070B50446C9
:105A00000D4694F83230072B08D8013B062B0BD8F3
:105A1000DFE803F01F22221F1F222200FF2B1AD0D3
:105A2000BDE87040FDF7B6BE2046FEF79FFA284657
:105A300084F83350FFF7D8F92D4B1B68A34220465A
:105A400003D1BDE87040FEF7D7B9BDE87040FEF75E
:105A5000EFB984F8335070BD94F8303094F8336067
:105A600084F83350013B072BDAD801A252F823F017
:105A7000915A0000575A0000215A00009B5A00001A
:105A8000915A0000915A0000575A0000915A0000A4
:105A90002046BDE87040FDF7E5BF2046FDF7E2FF78
:105AA000E36A5C6AB54294F833300AD2AB42D2D989
:105AB000204601F073FE2A4601462D2002F01CF814
:105AC0009FE7B3429DD12046FFF766F894F8342053
:105AD00094F83330904228BF1046C5B2AB42BAD0DA
